{
  "contractName": "AssetLibrary",
  "abi": [
    {
      "constant": false,
      "inputs": [
        {
          "name": "_investor",
          "type": "address"
        }
      ],
      "name": "invest",
      "outputs": [
        {
          "name": "",
          "type": "bool"
        }
      ],
      "payable": true,
      "stateMutability": "payable",
      "type": "function"
    },
    {
      "constant": true,
      "inputs": [],
      "name": "grossReturn",
      "outputs": [
        {
          "name": "",
          "type": "uint256"
        }
      ],
      "payable": false,
      "stateMutability": "view",
      "type": "function"
    },
    {
      "constant": true,
      "inputs": [],
      "name": "investor",
      "outputs": [
        {
          "name": "",
          "type": "address"
        }
      ],
      "payable": false,
      "stateMutability": "view",
      "type": "function"
    },
    {
      "constant": true,
      "inputs": [],
      "name": "status",
      "outputs": [
        {
          "name": "",
          "type": "uint8"
        }
      ],
      "payable": false,
      "stateMutability": "view",
      "type": "function"
    },
    {
      "constant": true,
      "inputs": [],
      "name": "boughtValue",
      "outputs": [
        {
          "name": "",
          "type": "uint256"
        }
      ],
      "payable": false,
      "stateMutability": "view",
      "type": "function"
    },
    {
      "constant": false,
      "inputs": [],
      "name": "withdrawFunds",
      "outputs": [
        {
          "name": "",
          "type": "bool"
        }
      ],
      "payable": false,
      "stateMutability": "nonpayable",
      "type": "function"
    },
    {
      "constant": true,
      "inputs": [],
      "name": "protocolVersion",
      "outputs": [
        {
          "name": "",
          "type": "string"
        }
      ],
      "payable": false,
      "stateMutability": "view",
      "type": "function"
    },
    {
      "constant": false,
      "inputs": [],
      "name": "cancelSellOrder",
      "outputs": [
        {
          "name": "",
          "type": "bool"
        }
      ],
      "payable": false,
      "stateMutability": "nonpayable",
      "type": "function"
    },
    {
      "constant": true,
      "inputs": [],
      "name": "value",
      "outputs": [
        {
          "name": "",
          "type": "uint256"
        }
      ],
      "payable": false,
      "stateMutability": "view",
      "type": "function"
    },
    {
      "constant": false,
      "inputs": [],
      "name": "returnInvestment",
      "outputs": [
        {
          "name": "",
          "type": "bool"
        }
      ],
      "payable": true,
      "stateMutability": "payable",
      "type": "function"
    },
    {
      "constant": false,
      "inputs": [],
      "name": "acceptSale",
      "outputs": [
        {
          "name": "",
          "type": "bool"
        }
      ],
      "payable": false,
      "stateMutability": "nonpayable",
      "type": "function"
    },
    {
      "constant": true,
      "inputs": [],
      "name": "investedAt",
      "outputs": [
        {
          "name": "",
          "type": "uint256"
        }
      ],
      "payable": false,
      "stateMutability": "view",
      "type": "function"
    },
    {
      "constant": true,
      "inputs": [],
      "name": "protocol",
      "outputs": [
        {
          "name": "",
          "type": "address"
        }
      ],
      "payable": false,
      "stateMutability": "view",
      "type": "function"
    },
    {
      "constant": true,
      "inputs": [],
      "name": "owner",
      "outputs": [
        {
          "name": "",
          "type": "address"
        }
      ],
      "payable": false,
      "stateMutability": "view",
      "type": "function"
    },
    {
      "constant": false,
      "inputs": [],
      "name": "cancelInvestment",
      "outputs": [
        {
          "name": "",
          "type": "bool"
        }
      ],
      "payable": false,
      "stateMutability": "nonpayable",
      "type": "function"
    },
    {
      "constant": true,
      "inputs": [],
      "name": "paybackDays",
      "outputs": [
        {
          "name": "",
          "type": "uint256"
        }
      ],
      "payable": false,
      "stateMutability": "view",
      "type": "function"
    },
    {
      "constant": false,
      "inputs": [
        {
          "name": "_amount",
          "type": "uint256"
        }
      ],
      "name": "supplyFuel",
      "outputs": [
        {
          "name": "",
          "type": "bool"
        }
      ],
      "payable": false,
      "stateMutability": "nonpayable",
      "type": "function"
    },
    {
      "constant": false,
      "inputs": [],
      "name": "refuseSale",
      "outputs": [
        {
          "name": "",
          "type": "bool"
        }
      ],
      "payable": false,
      "stateMutability": "nonpayable",
      "type": "function"
    },
    {
      "constant": true,
      "inputs": [],
      "name": "sellData",
      "outputs": [
        {
          "name": "value",
          "type": "uint256"
        },
        {
          "name": "buyer",
          "type": "address"
        }
      ],
      "payable": false,
      "stateMutability": "view",
      "type": "function"
    },
    {
      "constant": false,
      "inputs": [
        {
          "name": "_sellValue",
          "type": "uint256"
        }
      ],
      "name": "sell",
      "outputs": [
        {
          "name": "",
          "type": "bool"
        }
      ],
      "payable": false,
      "stateMutability": "nonpayable",
      "type": "function"
    },
    {
      "constant": true,
      "inputs": [],
      "name": "currency",
      "outputs": [
        {
          "name": "",
          "type": "string"
        }
      ],
      "payable": false,
      "stateMutability": "view",
      "type": "function"
    },
    {
      "constant": false,
      "inputs": [],
      "name": "cancelSale",
      "outputs": [
        {
          "name": "",
          "type": "bool"
        }
      ],
      "payable": false,
      "stateMutability": "nonpayable",
      "type": "function"
    },
    {
      "constant": false,
      "inputs": [
        {
          "name": "_buyer",
          "type": "address"
        }
      ],
      "name": "buy",
      "outputs": [
        {
          "name": "",
          "type": "bool"
        }
      ],
      "payable": true,
      "stateMutability": "payable",
      "type": "function"
    },
    {
      "constant": false,
      "inputs": [],
      "name": "requireTokenFuel",
      "outputs": [
        {
          "name": "",
          "type": "bool"
        }
      ],
      "payable": false,
      "stateMutability": "nonpayable",
      "type": "function"
    },
    {
      "constant": true,
      "inputs": [],
      "name": "tokenFuel",
      "outputs": [
        {
          "name": "",
          "type": "uint256"
        }
      ],
      "payable": false,
      "stateMutability": "view",
      "type": "function"
    },
    {
      "constant": true,
      "inputs": [],
      "name": "token",
      "outputs": [
        {
          "name": "",
          "type": "address"
        }
      ],
      "payable": false,
      "stateMutability": "view",
      "type": "function"
    },
    {
      "constant": false,
      "inputs": [],
      "name": "refuseInvestment",
      "outputs": [
        {
          "name": "",
          "type": "bool"
        }
      ],
      "payable": false,
      "stateMutability": "nonpayable",
      "type": "function"
    },
    {
      "anonymous": false,
      "inputs": [
        {
          "indexed": false,
          "name": "_owner",
          "type": "address"
        },
        {
          "indexed": false,
          "name": "_investor",
          "type": "address"
        },
        {
          "indexed": false,
          "name": "_value",
          "type": "uint256"
        }
      ],
      "name": "Invested",
      "type": "event"
    },
    {
      "anonymous": false,
      "inputs": [
        {
          "indexed": false,
          "name": "_owner",
          "type": "address"
        },
        {
          "indexed": false,
          "name": "_investor",
          "type": "address"
        },
        {
          "indexed": false,
          "name": "_value",
          "type": "uint256"
        }
      ],
      "name": "Canceled",
      "type": "event"
    },
    {
      "anonymous": false,
      "inputs": [
        {
          "indexed": false,
          "name": "_owner",
          "type": "address"
        },
        {
          "indexed": false,
          "name": "_investor",
          "type": "address"
        },
        {
          "indexed": false,
          "name": "_value",
          "type": "uint256"
        }
      ],
      "name": "Withdrawal",
      "type": "event"
    },
    {
      "anonymous": false,
      "inputs": [
        {
          "indexed": false,
          "name": "_owner",
          "type": "address"
        },
        {
          "indexed": false,
          "name": "_investor",
          "type": "address"
        },
        {
          "indexed": false,
          "name": "_value",
          "type": "uint256"
        }
      ],
      "name": "Refused",
      "type": "event"
    },
    {
      "anonymous": false,
      "inputs": [
        {
          "indexed": false,
          "name": "_owner",
          "type": "address"
        },
        {
          "indexed": false,
          "name": "_investor",
          "type": "address"
        },
        {
          "indexed": false,
          "name": "_value",
          "type": "uint256"
        },
        {
          "indexed": false,
          "name": "_delayed",
          "type": "bool"
        }
      ],
      "name": "Returned",
      "type": "event"
    },
    {
      "anonymous": false,
      "inputs": [
        {
          "indexed": false,
          "name": "_owner",
          "type": "address"
        },
        {
          "indexed": false,
          "name": "_amount",
          "type": "uint256"
        },
        {
          "indexed": false,
          "name": "_assetFuel",
          "type": "uint256"
        }
      ],
      "name": "Supplied",
      "type": "event"
    },
    {
      "anonymous": false,
      "inputs": [
        {
          "indexed": false,
          "name": "_to",
          "type": "address"
        },
        {
          "indexed": false,
          "name": "_amount",
          "type": "uint256"
        }
      ],
      "name": "TokenWithdrawal",
      "type": "event"
    },
    {
      "anonymous": false,
      "inputs": [
        {
          "indexed": false,
          "name": "_investor",
          "type": "address"
        },
        {
          "indexed": false,
          "name": "_value",
          "type": "uint256"
        }
      ],
      "name": "ForSale",
      "type": "event"
    },
    {
      "anonymous": false,
      "inputs": [
        {
          "indexed": false,
          "name": "_investor",
          "type": "address"
        },
        {
          "indexed": false,
          "name": "_value",
          "type": "uint256"
        }
      ],
      "name": "CanceledSell",
      "type": "event"
    }
  ],
  "bytecode": "0x6060604052341561000f57600080fd5b6129138061001e6000396000f30060606040526004361061015f576000357c0100000000000000000000000000000000000000000000000000000000900463ffffffff16806303f9c793146101645780631b4a044d146101aa5780631e0018d6146101d3578063200d2ed2146102285780632218c1941461025f57806324600fc3146102885780632ae9c600146102b557806339b50688146103435780633fa4f2451461037057806340ac89a21461039957806340b6290f146103bb5780638ac48191146103e85780638ce74426146104115780638da5cb5b1461046657806394f8e954146104bb578063a13b9b1f146104e8578063a918c09c14610511578063b08c9bd11461054c578063cb73696014610579578063e4849b32146105d5578063e5a6b10f14610610578063e7e104901461069e578063f088d547146106cb578063f2c3e6d914610711578063f771ac011461073e578063fc0c546a14610767578063fcc36c49146107bc575b600080fd5b610190600480803573ffffffffffffffffffffffffffffffffffffffff169060200190919050506107e9565b604051808215151515815260200191505060405180910390f35b34156101b557600080fd5b6101bd61098b565b6040518082815260200191505060405180910390f35b34156101de57600080fd5b6101e6610991565b604051808273ffffffffffffffffffffffffffffffffffffffff1673ffffffffffffffffffffffffffffffffffffffff16815260200191505060405180910390f35b341561023357600080fd5b61023b6109b7565b6040518082600681111561024b57fe5b60ff16815260200191505060405180910390f35b341561026a57600080fd5b6102726109ca565b6040518082815260200191505060405180910390f35b341561029357600080fd5b61029b6109d0565b604051808215151515815260200191505060405180910390f35b34156102c057600080fd5b6102c8610c42565b6040518080602001828103825283818151815260200191508051906020019080838360005b838110156103085780820151818401526020810190506102ed565b50505050905090810190601f1680156103355780820380516001836020036101000a031916815260200191505b509250505060405180910390f35b341561034e57600080fd5b610356610ce0565b604051808215151515815260200191505060405180910390f35b341561037b57600080fd5b610383610e8e565b6040518082815260200191505060405180910390f35b6103a1610e94565b604051808215151515815260200191505060405180910390f35b34156103c657600080fd5b6103ce611246565b604051808215151515815260200191505060405180910390f35b34156103f357600080fd5b6103fb611561565b6040518082815260200191505060405180910390f35b341561041c57600080fd5b610424611567565b604051808273ffffffffffffffffffffffffffffffffffffffff1673ffffffffffffffffffffffffffffffffffffffff16815260200191505060405180910390f35b341561047157600080fd5b61047961158d565b604051808273ffffffffffffffffffffffffffffffffffffffff1673ffffffffffffffffffffffffffffffffffffffff16815260200191505060405180910390f35b34156104c657600080fd5b6104ce6115b2565b604051808215151515815260200191505060405180910390f35b34156104f357600080fd5b6104fb611773565b6040518082815260200191505060405180910390f35b341561051c57600080fd5b6105326004808035906020019091905050611779565b604051808215151515815260200191505060405180910390f35b341561055757600080fd5b61055f6119ea565b604051808215151515815260200191505060405180910390f35b341561058457600080fd5b61058c611c8b565b604051808381526020018273ffffffffffffffffffffffffffffffffffffffff1673ffffffffffffffffffffffffffffffffffffffff1681526020019250505060405180910390f35b34156105e057600080fd5b6105f66004808035906020019091905050611cbd565b604051808215151515815260200191505060405180910390f35b341561061b57600080fd5b610623611e48565b6040518080602001828103825283818151815260200191508051906020019080838360005b83811015610663578082015181840152602081019050610648565b50505050905090810190601f1680156106905780820380516001836020036101000a031916815260200191505b509250505060405180910390f35b34156106a957600080fd5b6106b1611ee6565b604051808215151515815260200191505060405180910390f35b6106f7600480803573ffffffffffffffffffffffffffffffffffffffff1690602001909190505061218a565b604051808215151515815260200191505060405180910390f35b341561071c57600080fd5b6107246122f1565b604051808215151515815260200191505060405180910390f35b341561074957600080fd5b6107516123c8565b6040518082815260200191505060405180910390f35b341561077257600080fd5b61077a6123ce565b604051808273ffffffffffffffffffffffffffffffffffffffff1673ffffffffffffffffffffffffffffffffffffffff16815260200191505060405180910390f35b34156107c757600080fd5b6107cf6123f4565b604051808215151515815260200191505060405180910390f35b6000808060068111156107f857fe5b600e60009054906101000a900460ff16600681111561081357fe5b14151561081c57fe5b6001600e60006101000a81548160ff0219169083600681111561083b57fe5b021790555082600760006101000a81548173ffffffffffffffffffffffffffffffffffffffff021916908373ffffffffffffffffffffffffffffffffffffffff160217905550426009819055507faddfb37e33a1976f4125989f1e8869258d15590c4782f2c44ca2e443231092426000809054906101000a900473ffffffffffffffffffffffffffffffffffffffff16600760009054906101000a900473ffffffffffffffffffffffffffffffffffffffff163073ffffffffffffffffffffffffffffffffffffffff1631604051808473ffffffffffffffffffffffffffffffffffffffff1673ffffffffffffffffffffffffffffffffffffffff1681526020018373ffffffffffffffffffffffffffffffffffffffff1673ffffffffffffffffffffffffffffffffffffffff168152602001828152602001935050505060405180910390a16001915050919050565b60065481565b600760009054906101000a900473ffffffffffffffffffffffffffffffffffffffff1681565b600e60009054906101000a900460ff1681565b60045481565b6000806000809054906101000a900473ffffffffffffffffffffffffffffffffffffffff1673ffffffffffffffffffffffffffffffffffffffff163373ffffffffffffffffffffffffffffffffffffffff161480610a7b5750600160009054906101000a900473ffffffffffffffffffffffffffffffffffffffff1673ffffffffffffffffffffffffffffffffffffffff163373ffffffffffffffffffffffffffffffffffffffff16145b1515610a8657600080fd5b6001806006811115610a9457fe5b600e60009054906101000a900460ff166006811115610aaf57fe5b141515610ab857fe5b6002600e60006101000a81548160ff02191690836006811115610ad757fe5b02179055503073ffffffffffffffffffffffffffffffffffffffff163191506000809054906101000a900473ffffffffffffffffffffffffffffffffffffffff1673ffffffffffffffffffffffffffffffffffffffff166108fc839081150290604051600060405180830381858888f193505050501515610b5757600080fd5b7f2717ead6b9200dd235aad468c9809ea400fe33ac69b5bfaa6d3e90fc922b63986000809054906101000a900473ffffffffffffffffffffffffffffffffffffffff16600760009054906101000a900473ffffffffffffffffffffffffffffffffffffffff1684604051808473ffffffffffffffffffffffffffffffffffffffff1673ffffffffffffffffffffffffffffffffffffffff1681526020018373ffffffffffffffffffffffffffffffffffffffff1673ffffffffffffffffffffffffffffffffffffffff168152602001828152602001935050505060405180910390a160019250505090565b60088054600181600116156101000203166002900480601f016020809104026020016040519081016040528092919081815260200182805460018160011615610100020316600290048015610cd85780601f10610cad57610100808354040283529160200191610cd8565b820191906000526020600020905b815481529060010190602001808311610cbb57829003601f168201915b505050505081565b6000600760009054906101000a900473ffffffffffffffffffffffffffffffffffffffff1673ffffffffffffffffffffffffffffffffffffffff163373ffffffffffffffffffffffffffffffffffffffff161480610d8b5750600160009054906101000a900473ffffffffffffffffffffffffffffffffffffffff1673ffffffffffffffffffffffffffffffffffffffff163373ffffffffffffffffffffffffffffffffffffffff16145b1515610d9657600080fd5b6003806006811115610da457fe5b600e60009054906101000a900460ff166006811115610dbf57fe5b141515610dc857fe5b6002600e60006101000a81548160ff02191690836006811115610de757fe5b02179055506000600c600001819055507ff4da5a9400c6658aa44bacc8fe6cad78c3f6136fc8f25e78685a3875ec41c239600760009054906101000a900473ffffffffffffffffffffffffffffffffffffffff16600354604051808373ffffffffffffffffffffffffffffffffffffffff1673ffffffffffffffffffffffffffffffffffffffff1681526020018281526020019250505060405180910390a1600191505090565b60035481565b6000806000806000809054906101000a900473ffffffffffffffffffffffffffffffffffffffff1673ffffffffffffffffffffffffffffffffffffffff163373ffffffffffffffffffffffffffffffffffffffff16141515610ef557600080fd5b60026006811115610f0257fe5b600e60009054906101000a900460ff166006811115610f1d57fe5b1480610f4e575060036006811115610f3157fe5b600e60009054906101000a900460ff166006811115610f4c57fe5b145b80610f7e575060046006811115610f6157fe5b600e60009054906101000a900460ff166006811115610f7c57fe5b145b1515610f8657fe5b600e60009054906101000a900460ff169250610fa06125b4565b915081610fae576005610fb1565b60065b600e60006101000a81548160ff02191690836006811115610fce57fe5b02179055506000600b54111561103e578161100a576000809054906101000a900473ffffffffffffffffffffffffffffffffffffffff1661102e565b600760009054906101000a900473ffffffffffffffffffffffffffffffffffffffff165b905061103c81600b546125c9565b505b6004600681111561104b57fe5b83600681111561105757fe5b14156110ec57600c60010160009054906101000a900473ffffffffffffffffffffffffffffffffffffffff1673ffffffffffffffffffffffffffffffffffffffff166108fc6110c6343073ffffffffffffffffffffffffffffffffffffffff163161275c90919063ffffffff16565b9081150290604051600060405180830381858888f1935050505015156110eb57600080fd5b5b600760009054906101000a900473ffffffffffffffffffffffffffffffffffffffff1673ffffffffffffffffffffffffffffffffffffffff166108fc349081150290604051600060405180830381858888f19350505050151561114e57600080fd5b7f8e964350dc81427324d6a33199adce3b1068fc559d90c0a1ec576af3324974c76000809054906101000a900473ffffffffffffffffffffffffffffffffffffffff16600760009054906101000a900473ffffffffffffffffffffffffffffffffffffffff163485604051808573ffffffffffffffffffffffffffffffffffffffff1673ffffffffffffffffffffffffffffffffffffffff1681526020018473ffffffffffffffffffffffffffffffffffffffff1673ffffffffffffffffffffffffffffffffffffffff1681526020018381526020018215151515815260200194505050505060405180910390a16001935050505090565b6000806000600760009054906101000a900473ffffffffffffffffffffffffffffffffffffffff1673ffffffffffffffffffffffffffffffffffffffff163373ffffffffffffffffffffffffffffffffffffffff1614806112f45750600160009054906101000a900473ffffffffffffffffffffffffffffffffffffffff1673ffffffffffffffffffffffffffffffffffffffff163373ffffffffffffffffffffffffffffffffffffffff16145b15156112ff57600080fd5b600480600681111561130d57fe5b600e60009054906101000a900460ff16600681111561132857fe5b14151561133157fe5b6002600e60006101000a81548160ff0219169083600681111561135057fe5b0217905550600760009054906101000a900473ffffffffffffffffffffffffffffffffffffffff1692503073ffffffffffffffffffffffffffffffffffffffff163191508273ffffffffffffffffffffffffffffffffffffffff166108fc839081150290604051600060405180830381858888f1935050505015156113d457600080fd5b600c60010160009054906101000a900473ffffffffffffffffffffffffffffffffffffffff16600760006101000a81548173ffffffffffffffffffffffffffffffffffffffff021916908373ffffffffffffffffffffffffffffffffffffffff160217905550600c600001546004819055506000600c60010160006101000a81548173ffffffffffffffffffffffffffffffffffffffff021916908373ffffffffffffffffffffffffffffffffffffffff1602179055506000600c600001819055507f2717ead6b9200dd235aad468c9809ea400fe33ac69b5bfaa6d3e90fc922b639883600760009054906101000a900473ffffffffffffffffffffffffffffffffffffffff1684604051808473ffffffffffffffffffffffffffffffffffffffff1673ffffffffffffffffffffffffffffffffffffffff1681526020018373ffffffffffffffffffffffffffffffffffffffff1673ffffffffffffffffffffffffffffffffffffffff168152602001828152602001935050505060405180910390a16001935050505090565b60095481565b600160009054906101000a900473ffffffffffffffffffffffffffffffffffffffff1681565b6000809054906101000a900473ffffffffffffffffffffffffffffffffffffffff1681565b6000806000600760009054906101000a900473ffffffffffffffffffffffffffffffffffffffff1673ffffffffffffffffffffffffffffffffffffffff163373ffffffffffffffffffffffffffffffffffffffff1614806116605750600160009054906101000a900473ffffffffffffffffffffffffffffffffffffffff1673ffffffffffffffffffffffffffffffffffffffff163373ffffffffffffffffffffffffffffffffffffffff16145b151561166b57600080fd5b600180600681111561167957fe5b600e60009054906101000a900460ff16600681111561169457fe5b14151561169d57fe5b6116a5612775565b925092507f7a474a7438d5f1dd10b368d84960c99d45e011ac29f2f10d6acfbb1aa284cf496000809054906101000a900473ffffffffffffffffffffffffffffffffffffffff168484604051808473ffffffffffffffffffffffffffffffffffffffff1673ffffffffffffffffffffffffffffffffffffffff1681526020018373ffffffffffffffffffffffffffffffffffffffff1673ffffffffffffffffffffffffffffffffffffffff168152602001828152602001935050505060405180910390a16001935050505090565b60055481565b60008060009054906101000a900473ffffffffffffffffffffffffffffffffffffffff1673ffffffffffffffffffffffffffffffffffffffff163373ffffffffffffffffffffffffffffffffffffffff161415156117d657600080fd5b60008060068111156117e457fe5b600e60009054906101000a900460ff1660068111156117ff57fe5b14151561180857fe5b600a60009054906101000a900473ffffffffffffffffffffffffffffffffffffffff1673ffffffffffffffffffffffffffffffffffffffff166323b872dd3330866000604051602001526040518463ffffffff167c0100000000000000000000000000000000000000000000000000000000028152600401808473ffffffffffffffffffffffffffffffffffffffff1673ffffffffffffffffffffffffffffffffffffffff1681526020018373ffffffffffffffffffffffffffffffffffffffff1673ffffffffffffffffffffffffffffffffffffffff1681526020018281526020019350505050602060405180830381600087803b151561190957600080fd5b6102c65a03f1151561191a57600080fd5b50505060405180519050151561192f57600080fd5b61194483600b546128c990919063ffffffff16565b600b819055507f5c2c0d2616a06b35bb159b4d7e227972b59bb33f8d5229ca0e5e438259bfd5d36000809054906101000a900473ffffffffffffffffffffffffffffffffffffffff1684600b54604051808473ffffffffffffffffffffffffffffffffffffffff1673ffffffffffffffffffffffffffffffffffffffff168152602001838152602001828152602001935050505060405180910390a16001915050919050565b6000806000600760009054906101000a900473ffffffffffffffffffffffffffffffffffffffff1673ffffffffffffffffffffffffffffffffffffffff163373ffffffffffffffffffffffffffffffffffffffff161480611a985750600160009054906101000a900473ffffffffffffffffffffffffffffffffffffffff1673ffffffffffffffffffffffffffffffffffffffff163373ffffffffffffffffffffffffffffffffffffffff16145b1515611aa357600080fd5b6004806006811115611ab157fe5b600e60009054906101000a900460ff166006811115611acc57fe5b141515611ad557fe5b6003600e60006101000a81548160ff02191690836006811115611af457fe5b0217905550600c60010160009054906101000a900473ffffffffffffffffffffffffffffffffffffffff1692503073ffffffffffffffffffffffffffffffffffffffff163191508273ffffffffffffffffffffffffffffffffffffffff166108fc839081150290604051600060405180830381858888f193505050501515611b7b57600080fd5b6000600c60010160006101000a81548173ffffffffffffffffffffffffffffffffffffffff021916908373ffffffffffffffffffffffffffffffffffffffff1602179055507f6cd9f1a330d83b8c2346c1b5ef8e1fca8e368e77743e27bcd8eb2d20bafb01c6600760009054906101000a900473ffffffffffffffffffffffffffffffffffffffff168484604051808473ffffffffffffffffffffffffffffffffffffffff1673ffffffffffffffffffffffffffffffffffffffff1681526020018373ffffffffffffffffffffffffffffffffffffffff1673ffffffffffffffffffffffffffffffffffffffff168152602001828152602001935050505060405180910390a16001935050505090565b600c8060000154908060010160009054906101000a900473ffffffffffffffffffffffffffffffffffffffff16905082565b6000600760009054906101000a900473ffffffffffffffffffffffffffffffffffffffff1673ffffffffffffffffffffffffffffffffffffffff163373ffffffffffffffffffffffffffffffffffffffff161480611d685750600160009054906101000a900473ffffffffffffffffffffffffffffffffffffffff1673ffffffffffffffffffffffffffffffffffffffff163373ffffffffffffffffffffffffffffffffffffffff16145b1515611d7357600080fd5b6002806006811115611d8157fe5b600e60009054906101000a900460ff166006811115611d9c57fe5b141515611da557fe5b6003600e60006101000a81548160ff02191690836006811115611dc457fe5b021790555082600c600001819055507fbdeee1f1fbccb405bb11b23aab22fce5084b092d5edb2c16a71dda656df59e873384604051808373ffffffffffffffffffffffffffffffffffffffff1673ffffffffffffffffffffffffffffffffffffffff1681526020018281526020019250505060405180910390a16001915050919050565b60028054600181600116156101000203166002900480601f016020809104026020016040519081016040528092919081815260200182805460018160011615610100020316600290048015611ede5780601f10611eb357610100808354040283529160200191611ede565b820191906000526020600020905b815481529060010190602001808311611ec157829003601f168201915b505050505081565b60008060006004806006811115611ef957fe5b600e60009054906101000a900460ff166006811115611f1457fe5b141515611f1d57fe5b600160009054906101000a900473ffffffffffffffffffffffffffffffffffffffff1673ffffffffffffffffffffffffffffffffffffffff163373ffffffffffffffffffffffffffffffffffffffff161480611fc95750600c60010160009054906101000a900473ffffffffffffffffffffffffffffffffffffffff1673ffffffffffffffffffffffffffffffffffffffff163373ffffffffffffffffffffffffffffffffffffffff16145b1515611fd457600080fd5b6003600e60006101000a81548160ff02191690836006811115611ff357fe5b0217905550600c60010160009054906101000a900473ffffffffffffffffffffffffffffffffffffffff1692503073ffffffffffffffffffffffffffffffffffffffff163191508273ffffffffffffffffffffffffffffffffffffffff166108fc839081150290604051600060405180830381858888f19350505050151561207a57600080fd5b6000600c60010160006101000a81548173ffffffffffffffffffffffffffffffffffffffff021916908373ffffffffffffffffffffffffffffffffffffffff1602179055507f7a474a7438d5f1dd10b368d84960c99d45e011ac29f2f10d6acfbb1aa284cf49600760009054906101000a900473ffffffffffffffffffffffffffffffffffffffff168484604051808473ffffffffffffffffffffffffffffffffffffffff1673ffffffffffffffffffffffffffffffffffffffff1681526020018373ffffffffffffffffffffffffffffffffffffffff1673ffffffffffffffffffffffffffffffffffffffff168152602001828152602001935050505060405180910390a16001935050505090565b6000600380600681111561219a57fe5b600e60009054906101000a900460ff1660068111156121b557fe5b1415156121be57fe5b6004600e60006101000a81548160ff021916908360068111156121dd57fe5b021790555082600c60010160006101000a81548173ffffffffffffffffffffffffffffffffffffffff021916908373ffffffffffffffffffffffffffffffffffffffff1602179055507faddfb37e33a1976f4125989f1e8869258d15590c4782f2c44ca2e44323109242600760009054906101000a900473ffffffffffffffffffffffffffffffffffffffff168434604051808473ffffffffffffffffffffffffffffffffffffffff1673ffffffffffffffffffffffffffffffffffffffff1681526020018373ffffffffffffffffffffffffffffffffffffffff1673ffffffffffffffffffffffffffffffffffffffff168152602001828152602001935050505060405180910390a16001915050919050565b6000600760009054906101000a900473ffffffffffffffffffffffffffffffffffffffff1673ffffffffffffffffffffffffffffffffffffffff163373ffffffffffffffffffffffffffffffffffffffff1614151561234f57600080fd5b600280600681111561235d57fe5b600e60009054906101000a900460ff16600681111561237857fe5b14151561238157fe5b6123896125b4565b151561239457600080fd5b6123c2600760009054906101000a900473ffffffffffffffffffffffffffffffffffffffff16600b546125c9565b91505090565b600b5481565b600a60009054906101000a900473ffffffffffffffffffffffffffffffffffffffff1681565b60008060008060009054906101000a900473ffffffffffffffffffffffffffffffffffffffff1673ffffffffffffffffffffffffffffffffffffffff163373ffffffffffffffffffffffffffffffffffffffff1614806124a15750600160009054906101000a900473ffffffffffffffffffffffffffffffffffffffff1673ffffffffffffffffffffffffffffffffffffffff163373ffffffffffffffffffffffffffffffffffffffff16145b15156124ac57600080fd5b60018060068111156124ba57fe5b600e60009054906101000a900460ff1660068111156124d557fe5b1415156124de57fe5b6124e6612775565b925092507f6cd9f1a330d83b8c2346c1b5ef8e1fca8e368e77743e27bcd8eb2d20bafb01c66000809054906101000a900473ffffffffffffffffffffffffffffffffffffffff168484604051808473ffffffffffffffffffffffffffffffffffffffff1673ffffffffffffffffffffffffffffffffffffffff1681526020018373ffffffffffffffffffffffffffffffffffffffff1673ffffffffffffffffffffffffffffffffffffffff168152602001828152602001935050505060405180910390a16001935050505090565b60006201518060055402600954014211905090565b600081600b54101515156125d957fe5b600a60009054906101000a900473ffffffffffffffffffffffffffffffffffffffff1673ffffffffffffffffffffffffffffffffffffffff1663a9059cbb84846000604051602001526040518363ffffffff167c0100000000000000000000000000000000000000000000000000000000028152600401808373ffffffffffffffffffffffffffffffffffffffff1673ffffffffffffffffffffffffffffffffffffffff16815260200182815260200192505050602060405180830381600087803b15156126a657600080fd5b6102c65a03f115156126b757600080fd5b5050506040518051905015156126cc57600080fd5b7feddb53e10e60b3a2396b4222b3db092137bdbf7a6fecceaf2b0b438ff0ddc66e8383604051808373ffffffffffffffffffffffffffffffffffffffff1673ffffffffffffffffffffffffffffffffffffffff1681526020018281526020019250505060405180910390a161274c82600b5461275c90919063ffffffff16565b600b819055506001905092915050565b600082821115151561276a57fe5b818303905092915050565b600080600080600180600681111561278957fe5b600e60009054906101000a900460ff1660068111156127a457fe5b1415156127ad57fe5b6000600e60006101000a81548160ff021916908360068111156127cc57fe5b02179055503073ffffffffffffffffffffffffffffffffffffffff16319250600760009054906101000a900473ffffffffffffffffffffffffffffffffffffffff1673ffffffffffffffffffffffffffffffffffffffff166108fc849081150290604051600060405180830381858888f19350505050151561284d57600080fd5b600760009054906101000a900473ffffffffffffffffffffffffffffffffffffffff1691506000600760006101000a81548173ffffffffffffffffffffffffffffffffffffffff021916908373ffffffffffffffffffffffffffffffffffffffff16021790555060006009819055508183945094505050509091565b60008082840190508381101515156128dd57fe5b80915050929150505600a165627a7a72305820adfddc15f9dcb8b518f43c3792b8582e37be8b789d60955077ed2d522b3f31b30029",
  "source": "pragma solidity ^0.4.18;\n\nimport './AssetEvents.sol';\nimport '../token/Token.sol';\nimport \"zeppelin-solidity/contracts/math/SafeMath.sol\";\n\n// Defines methods and control modifiers for an investment\ncontract AssetLibrary is AssetEvents {\n\n    using SafeMath for uint256;\n\n    // Asset owner\n    address public owner;\n    // Protocol\n    address public protocol;\n    // Asset currency\n    string public currency;\n    // Asset fixed value\n    uint256 public value;\n    //Value bought\n    uint256 public boughtValue;\n    // period to return the investment\n    uint256 public paybackDays;\n    // Gross return of investment\n    uint256 public grossReturn;\n    // Asset buyer\n    address public investor;\n    // Protocol version\n    string public protocolVersion;\n    // investment timestamp\n    uint public investedAt;\n\n    // asset fuel\n    Token public token;\n    uint256 public tokenFuel;\n\n    // sell data\n    struct Sell {\n        uint256 value;\n        address buyer;\n    }\n\n    Sell public sellData;\n\n    // possible stages of an asset\n    enum Status {\n        AVAILABLE,\n        PENDING_OWNER_AGREEMENT,\n        INVESTED,\n        FOR_SALE,\n        PENDING_INVESTOR_AGREEMENT,\n        RETURNED,\n        DELAYED_RETURN\n    }\n    Status public status;\n\n    // Checks the current asset's status\n    modifier hasStatus(Status _status) {\n        assert(status == _status);\n        _;\n    }\n\n    // Checks if the owner is the caller\n    modifier onlyOwner() {\n        require(msg.sender == owner);\n        _;\n    }\n\n    // Checks if the investor is the caller\n    modifier onlyInvestor() {\n        require(msg.sender == investor);\n        _;\n    }\n\n    modifier protocolOrInvestor() {\n        require(msg.sender == investor || msg.sender == protocol);\n        _;\n    }\n\n    modifier protocolOrOwner() {\n        require(msg.sender == owner || msg.sender == protocol);\n        _;\n    }    \n\n    modifier onlyDelayed(){\n        require(isDelayed());\n        _;\n    }\n\n    function isDelayed()\n        view\n        internal\n        returns(bool)\n    {\n        return now > investedAt + paybackDays * 1 days;\n    }\n\n    // Refund and remove the current investor and make the asset available for investments\n    function makeAvailable()\n        hasStatus(Status.PENDING_OWNER_AGREEMENT)\n        private\n        returns(address, uint256)\n    {\n        status = Status.AVAILABLE;\n        uint256 investedValue = this.balance;\n        investor.transfer(investedValue);\n        address currentInvestor = investor;\n        investor = address(0);\n        investedAt = uint(0);\n        return (currentInvestor, investedValue);\n    }\n\n\n    function withdrawTokens(address _recipient, uint256 _amount)\n        private\n        returns(bool)\n    {\n        assert(tokenFuel >= _amount);\n        require(token.transfer(_recipient, _amount));\n        TokenWithdrawal(_recipient, _amount);\n        tokenFuel = tokenFuel.sub(_amount);\n        return true;\n    }\n\n    // Add investment interest in this asset and retain the funds within the smart contract\n    function invest(address _investor) payable\n         hasStatus(Status.AVAILABLE)\n         external\n         returns(bool)\n    {\n        status = Status.PENDING_OWNER_AGREEMENT;\n        investor = _investor;\n        investedAt = now;\n        Invested(owner, investor, this.balance);\n        return true;\n    }\n\n    // Cancel the pending investment\n    function cancelInvestment()\n        protocolOrInvestor\n        hasStatus(Status.PENDING_OWNER_AGREEMENT)\n        external\n        returns(bool)\n    {\n        var (currentInvestor, investedValue) = makeAvailable();\n        Canceled(owner, currentInvestor, investedValue);\n        return true;\n    }\n\n    // Accept the investor as the asset buyer and withdraw funds\n    function withdrawFunds()\n        protocolOrOwner\n        hasStatus(Status.PENDING_OWNER_AGREEMENT)\n        external\n        returns(bool)\n    {\n        status = Status.INVESTED;\n        uint256 _value = this.balance;\n        owner.transfer(_value);\n        Withdrawal(owner, investor, _value);\n        return true;\n    }\n\n    // Refuse the pending investment\n    function refuseInvestment()\n        protocolOrOwner\n        hasStatus(Status.PENDING_OWNER_AGREEMENT)\n        external\n        returns(bool)\n    {\n        var (currentInvestor, investedValue) = makeAvailable();\n        Refused(owner, currentInvestor, investedValue);\n        return true;\n    }\n\n    function sell(uint256 _sellValue)\n        protocolOrInvestor\n        hasStatus(Status.INVESTED)\n        external\n        returns(bool)\n    {\n        status = Status.FOR_SALE;\n        sellData.value = _sellValue;\n        ForSale(msg.sender, _sellValue);\n        return true;\n    }\n\n    function cancelSellOrder()\n        protocolOrInvestor\n        hasStatus(Status.FOR_SALE)\n        external\n        returns(bool)\n    {\n        status = Status.INVESTED;\n        sellData.value = uint256(0);\n        CanceledSell(investor, value);\n        return true;\n    }\n\n    function buy(address _buyer) payable\n        hasStatus(Status.FOR_SALE)\n        external\n        returns(bool)\n    {\n        status = Status.PENDING_INVESTOR_AGREEMENT;\n        sellData.buyer = _buyer;\n        Invested(investor, _buyer, msg.value);\n        return true;\n    }\n\n    function cancelSale()\n        hasStatus(Status.PENDING_INVESTOR_AGREEMENT)\n        external\n        returns(bool)\n    {\n        require(msg.sender == protocol || msg.sender == sellData.buyer);\n        status = Status.FOR_SALE;\n        address buyer = sellData.buyer;\n        uint256 _value = this.balance;\n        buyer.transfer(_value);\n        sellData.buyer = address(0);\n        Canceled(investor, buyer, _value);\n        return true;\n    }\n\n    // Refunds asset's buyer and became available for sale again\n    function refuseSale()\n        protocolOrInvestor\n        hasStatus(Status.PENDING_INVESTOR_AGREEMENT)\n        external\n        returns(bool)\n    {\n        status = Status.FOR_SALE;\n        address buyer = sellData.buyer;\n        uint256 _value = this.balance;\n        buyer.transfer(_value);\n        sellData.buyer = address(0);\n        Refused(investor, buyer, _value);\n        return true;\n    }\n\n    // Withdraw funds, clear the sell data and change investor's address\n    function acceptSale()\n        protocolOrInvestor\n        hasStatus(Status.PENDING_INVESTOR_AGREEMENT)\n        external\n        returns(bool)\n    {\n        status = Status.INVESTED;\n        address currentInvestor = investor;\n        uint256 _value = this.balance;\n        currentInvestor.transfer(_value);\n        investor = sellData.buyer;\n        boughtValue = sellData.value;\n        sellData.buyer = address(0);\n        sellData.value = uint256(0);\n        Withdrawal(currentInvestor, investor, _value);\n        return true;\n    }\n\n    function returnInvestment() payable\n        onlyOwner\n        external\n        returns(bool)\n    {\n        assert(status == Status.INVESTED || status == Status.FOR_SALE || status == Status.PENDING_INVESTOR_AGREEMENT);\n        Status currentStatus = status;\n        bool _isDelayed = isDelayed();\n        status = _isDelayed ? Status.DELAYED_RETURN : Status.RETURNED;\n        if(tokenFuel > 0){\n            address recipient = _isDelayed ? investor : owner;\n            withdrawTokens(recipient, tokenFuel);\n        }\n        if (currentStatus == Status.PENDING_INVESTOR_AGREEMENT) {\n            sellData.buyer.transfer(this.balance.sub(msg.value));\n        }\n        investor.transfer(msg.value);\n        Returned(owner, investor, msg.value, _isDelayed);\n        return true;\n    }\n\n    function supplyFuel(uint256 _amount)\n        onlyOwner\n        hasStatus(Status.AVAILABLE)\n        external\n        returns(bool)\n    {\n        require(token.transferFrom(msg.sender, this, _amount));\n        tokenFuel = tokenFuel.add(_amount);\n        Supplied(owner, _amount, tokenFuel);\n        return true;\n    }\n\n    function requireTokenFuel()\n        onlyInvestor\n        hasStatus(Status.INVESTED)\n        onlyDelayed\n        external\n        returns(bool)\n    {\n        return withdrawTokens(investor, tokenFuel);\n    }\n\n}\n",
  "sourcePath": "/Users/tuliobraga/Development/swapy/swapy-exchange-protocol-004-ropsten/contracts/investment/AssetLibrary.sol",
  "compiler": {
    "name": "solc",
    "version": "0.4.18+commit.9cf6e910.Emscripten.clang"
  },
  "schemaVersion": "1.0.1",
  "updatedAt": "2018-03-28T18:57:46.786Z"
}