{
  "contractName": "AssetLibrary",
  "abi": [
    {
      "constant": false,
      "inputs": [
        {
          "name": "_investor",
          "type": "address"
        }
      ],
      "name": "invest",
      "outputs": [
        {
          "name": "",
          "type": "bool"
        }
      ],
      "payable": true,
      "stateMutability": "payable",
      "type": "function"
    },
    {
      "constant": true,
      "inputs": [],
      "name": "grossReturn",
      "outputs": [
        {
          "name": "",
          "type": "uint256"
        }
      ],
      "payable": false,
      "stateMutability": "view",
      "type": "function"
    },
    {
      "constant": true,
      "inputs": [],
      "name": "investor",
      "outputs": [
        {
          "name": "",
          "type": "address"
        }
      ],
      "payable": false,
      "stateMutability": "view",
      "type": "function"
    },
    {
      "constant": true,
      "inputs": [],
      "name": "status",
      "outputs": [
        {
          "name": "",
          "type": "uint8"
        }
      ],
      "payable": false,
      "stateMutability": "view",
      "type": "function"
    },
    {
      "constant": true,
      "inputs": [],
      "name": "boughtValue",
      "outputs": [
        {
          "name": "",
          "type": "uint256"
        }
      ],
      "payable": false,
      "stateMutability": "view",
      "type": "function"
    },
    {
      "constant": false,
      "inputs": [],
      "name": "withdrawFunds",
      "outputs": [
        {
          "name": "",
          "type": "bool"
        }
      ],
      "payable": false,
      "stateMutability": "nonpayable",
      "type": "function"
    },
    {
      "constant": true,
      "inputs": [],
      "name": "protocolVersion",
      "outputs": [
        {
          "name": "",
          "type": "string"
        }
      ],
      "payable": false,
      "stateMutability": "view",
      "type": "function"
    },
    {
      "constant": false,
      "inputs": [],
      "name": "cancelSellOrder",
      "outputs": [
        {
          "name": "",
          "type": "bool"
        }
      ],
      "payable": false,
      "stateMutability": "nonpayable",
      "type": "function"
    },
    {
      "constant": true,
      "inputs": [],
      "name": "value",
      "outputs": [
        {
          "name": "",
          "type": "uint256"
        }
      ],
      "payable": false,
      "stateMutability": "view",
      "type": "function"
    },
    {
      "constant": false,
      "inputs": [],
      "name": "returnInvestment",
      "outputs": [
        {
          "name": "",
          "type": "bool"
        }
      ],
      "payable": true,
      "stateMutability": "payable",
      "type": "function"
    },
    {
      "constant": false,
      "inputs": [],
      "name": "acceptSale",
      "outputs": [
        {
          "name": "",
          "type": "bool"
        }
      ],
      "payable": false,
      "stateMutability": "nonpayable",
      "type": "function"
    },
    {
      "constant": true,
      "inputs": [],
      "name": "investedAt",
      "outputs": [
        {
          "name": "",
          "type": "uint256"
        }
      ],
      "payable": false,
      "stateMutability": "view",
      "type": "function"
    },
    {
      "constant": true,
      "inputs": [],
      "name": "protocol",
      "outputs": [
        {
          "name": "",
          "type": "address"
        }
      ],
      "payable": false,
      "stateMutability": "view",
      "type": "function"
    },
    {
      "constant": true,
      "inputs": [],
      "name": "owner",
      "outputs": [
        {
          "name": "",
          "type": "address"
        }
      ],
      "payable": false,
      "stateMutability": "view",
      "type": "function"
    },
    {
      "constant": false,
      "inputs": [],
      "name": "cancelInvestment",
      "outputs": [
        {
          "name": "",
          "type": "bool"
        }
      ],
      "payable": false,
      "stateMutability": "nonpayable",
      "type": "function"
    },
    {
      "constant": true,
      "inputs": [],
      "name": "paybackDays",
      "outputs": [
        {
          "name": "",
          "type": "uint256"
        }
      ],
      "payable": false,
      "stateMutability": "view",
      "type": "function"
    },
    {
      "constant": false,
      "inputs": [
        {
          "name": "_amount",
          "type": "uint256"
        }
      ],
      "name": "supplyFuel",
      "outputs": [
        {
          "name": "",
          "type": "bool"
        }
      ],
      "payable": false,
      "stateMutability": "nonpayable",
      "type": "function"
    },
    {
      "constant": false,
      "inputs": [],
      "name": "refuseSale",
      "outputs": [
        {
          "name": "",
          "type": "bool"
        }
      ],
      "payable": false,
      "stateMutability": "nonpayable",
      "type": "function"
    },
    {
      "constant": false,
      "inputs": [
        {
          "name": "_sellValue",
          "type": "uint256"
        }
      ],
      "name": "sell",
      "outputs": [
        {
          "name": "",
          "type": "bool"
        }
      ],
      "payable": false,
      "stateMutability": "nonpayable",
      "type": "function"
    },
    {
      "constant": true,
      "inputs": [],
      "name": "currency",
      "outputs": [
        {
          "name": "",
          "type": "string"
        }
      ],
      "payable": false,
      "stateMutability": "view",
      "type": "function"
    },
    {
      "constant": false,
      "inputs": [],
      "name": "cancelSale",
      "outputs": [
        {
          "name": "",
          "type": "bool"
        }
      ],
      "payable": false,
      "stateMutability": "nonpayable",
      "type": "function"
    },
    {
      "constant": false,
      "inputs": [
        {
          "name": "_buyer",
          "type": "address"
        }
      ],
      "name": "buy",
      "outputs": [
        {
          "name": "",
          "type": "bool"
        }
      ],
      "payable": true,
      "stateMutability": "payable",
      "type": "function"
    },
    {
      "constant": false,
      "inputs": [],
      "name": "requireTokenFuel",
      "outputs": [
        {
          "name": "",
          "type": "bool"
        }
      ],
      "payable": false,
      "stateMutability": "nonpayable",
      "type": "function"
    },
    {
      "constant": true,
      "inputs": [],
      "name": "tokenFuel",
      "outputs": [
        {
          "name": "",
          "type": "uint256"
        }
      ],
      "payable": false,
      "stateMutability": "view",
      "type": "function"
    },
    {
      "constant": true,
      "inputs": [],
      "name": "token",
      "outputs": [
        {
          "name": "",
          "type": "address"
        }
      ],
      "payable": false,
      "stateMutability": "view",
      "type": "function"
    },
    {
      "constant": false,
      "inputs": [],
      "name": "refuseInvestment",
      "outputs": [
        {
          "name": "",
          "type": "bool"
        }
      ],
      "payable": false,
      "stateMutability": "nonpayable",
      "type": "function"
    },
    {
      "anonymous": false,
      "inputs": [
        {
          "indexed": false,
          "name": "_owner",
          "type": "address"
        },
        {
          "indexed": false,
          "name": "_investor",
          "type": "address"
        },
        {
          "indexed": false,
          "name": "_value",
          "type": "uint256"
        }
      ],
      "name": "Invested",
      "type": "event"
    },
    {
      "anonymous": false,
      "inputs": [
        {
          "indexed": false,
          "name": "_owner",
          "type": "address"
        },
        {
          "indexed": false,
          "name": "_investor",
          "type": "address"
        },
        {
          "indexed": false,
          "name": "_value",
          "type": "uint256"
        }
      ],
      "name": "Canceled",
      "type": "event"
    },
    {
      "anonymous": false,
      "inputs": [
        {
          "indexed": false,
          "name": "_owner",
          "type": "address"
        },
        {
          "indexed": false,
          "name": "_investor",
          "type": "address"
        },
        {
          "indexed": false,
          "name": "_value",
          "type": "uint256"
        }
      ],
      "name": "Withdrawal",
      "type": "event"
    },
    {
      "anonymous": false,
      "inputs": [
        {
          "indexed": false,
          "name": "_owner",
          "type": "address"
        },
        {
          "indexed": false,
          "name": "_investor",
          "type": "address"
        },
        {
          "indexed": false,
          "name": "_value",
          "type": "uint256"
        }
      ],
      "name": "Refused",
      "type": "event"
    },
    {
      "anonymous": false,
      "inputs": [
        {
          "indexed": false,
          "name": "_owner",
          "type": "address"
        },
        {
          "indexed": false,
          "name": "_investor",
          "type": "address"
        },
        {
          "indexed": false,
          "name": "_value",
          "type": "uint256"
        },
        {
          "indexed": false,
          "name": "_delayed",
          "type": "bool"
        }
      ],
      "name": "Returned",
      "type": "event"
    },
    {
      "anonymous": false,
      "inputs": [
        {
          "indexed": false,
          "name": "_owner",
          "type": "address"
        },
        {
          "indexed": false,
          "name": "_amount",
          "type": "uint256"
        },
        {
          "indexed": false,
          "name": "_assetFuel",
          "type": "uint256"
        }
      ],
      "name": "Supplied",
      "type": "event"
    },
    {
      "anonymous": false,
      "inputs": [
        {
          "indexed": false,
          "name": "_to",
          "type": "address"
        },
        {
          "indexed": false,
          "name": "_amount",
          "type": "uint256"
        }
      ],
      "name": "TokenWithdrawal",
      "type": "event"
    },
    {
      "anonymous": false,
      "inputs": [
        {
          "indexed": false,
          "name": "_investor",
          "type": "address"
        },
        {
          "indexed": false,
          "name": "_value",
          "type": "uint256"
        }
      ],
      "name": "ForSale",
      "type": "event"
    },
    {
      "anonymous": false,
      "inputs": [
        {
          "indexed": false,
          "name": "_investor",
          "type": "address"
        },
        {
          "indexed": false,
          "name": "_value",
          "type": "uint256"
        }
      ],
      "name": "CanceledSell",
      "type": "event"
    }
  ],
  "bytecode": "0x6060604052341561000f57600080fd5b6125cc8061001e6000396000f300606060405260043610610154576000357c0100000000000000000000000000000000000000000000000000000000900463ffffffff16806303f9c793146101595780631b4a044d1461019f5780631e0018d6146101c8578063200d2ed21461021d5780632218c1941461025457806324600fc31461027d5780632ae9c600146102aa57806339b50688146103385780633fa4f2451461036557806340ac89a21461038e57806340b6290f146103b05780638ac48191146103dd5780638ce74426146104065780638da5cb5b1461045b57806394f8e954146104b0578063a13b9b1f146104dd578063a918c09c14610506578063b08c9bd114610541578063e4849b321461056e578063e5a6b10f146105a9578063e7e1049014610637578063f088d54714610664578063f2c3e6d9146106aa578063f771ac01146106d7578063fc0c546a14610700578063fcc36c4914610755575b600080fd5b610185600480803573ffffffffffffffffffffffffffffffffffffffff16906020019091905050610782565b604051808215151515815260200191505060405180910390f35b34156101aa57600080fd5b6101b2610924565b6040518082815260200191505060405180910390f35b34156101d357600080fd5b6101db61092a565b604051808273ffffffffffffffffffffffffffffffffffffffff1673ffffffffffffffffffffffffffffffffffffffff16815260200191505060405180910390f35b341561022857600080fd5b610230610950565b6040518082600681111561024057fe5b60ff16815260200191505060405180910390f35b341561025f57600080fd5b610267610963565b6040518082815260200191505060405180910390f35b341561028857600080fd5b610290610969565b604051808215151515815260200191505060405180910390f35b34156102b557600080fd5b6102bd610b83565b6040518080602001828103825283818151815260200191508051906020019080838360005b838110156102fd5780820151818401526020810190506102e2565b50505050905090810190601f16801561032a5780820380516001836020036101000a031916815260200191505b509250505060405180910390f35b341561034357600080fd5b61034b610c21565b604051808215151515815260200191505060405180910390f35b341561037057600080fd5b610378610dcf565b6040518082815260200191505060405180910390f35b610396610dd5565b604051808215151515815260200191505060405180910390f35b34156103bb57600080fd5b6103c3611067565b604051808215151515815260200191505060405180910390f35b34156103e857600080fd5b6103f0611382565b6040518082815260200191505060405180910390f35b341561041157600080fd5b610419611388565b604051808273ffffffffffffffffffffffffffffffffffffffff1673ffffffffffffffffffffffffffffffffffffffff16815260200191505060405180910390f35b341561046657600080fd5b61046e6113ae565b604051808273ffffffffffffffffffffffffffffffffffffffff1673ffffffffffffffffffffffffffffffffffffffff16815260200191505060405180910390f35b34156104bb57600080fd5b6104c36113d3565b604051808215151515815260200191505060405180910390f35b34156104e857600080fd5b6104f061153c565b6040518082815260200191505060405180910390f35b341561051157600080fd5b6105276004808035906020019091905050611542565b604051808215151515815260200191505060405180910390f35b341561054c57600080fd5b61055461176f565b604051808215151515815260200191505060405180910390f35b341561057957600080fd5b61058f6004808035906020019091905050611a10565b604051808215151515815260200191505060405180910390f35b34156105b457600080fd5b6105bc611b9b565b6040518080602001828103825283818151815260200191508051906020019080838360005b838110156105fc5780820151818401526020810190506105e1565b50505050905090810190601f1680156106295780820380516001836020036101000a031916815260200191505b509250505060405180910390f35b341561064257600080fd5b61064a611c39565b604051808215151515815260200191505060405180910390f35b610690600480803573ffffffffffffffffffffffffffffffffffffffff16906020019091905050611edd565b604051808215151515815260200191505060405180910390f35b34156106b557600080fd5b6106bd612044565b604051808215151515815260200191505060405180910390f35b34156106e257600080fd5b6106ea61211b565b6040518082815260200191505060405180910390f35b341561070b57600080fd5b610713612121565b604051808273ffffffffffffffffffffffffffffffffffffffff1673ffffffffffffffffffffffffffffffffffffffff16815260200191505060405180910390f35b341561076057600080fd5b610768612147565b604051808215151515815260200191505060405180910390f35b60008080600681111561079157fe5b600e60009054906101000a900460ff1660068111156107ac57fe5b1415156107b557fe5b82600760006101000a81548173ffffffffffffffffffffffffffffffffffffffff021916908373ffffffffffffffffffffffffffffffffffffffff160217905550426009819055506001600e60006101000a81548160ff0219169083600681111561081c57fe5b02179055507faddfb37e33a1976f4125989f1e8869258d15590c4782f2c44ca2e443231092426000809054906101000a900473ffffffffffffffffffffffffffffffffffffffff16600760009054906101000a900473ffffffffffffffffffffffffffffffffffffffff163073ffffffffffffffffffffffffffffffffffffffff1631604051808473ffffffffffffffffffffffffffffffffffffffff1673ffffffffffffffffffffffffffffffffffffffff1681526020018373ffffffffffffffffffffffffffffffffffffffff1673ffffffffffffffffffffffffffffffffffffffff168152602001828152602001935050505060405180910390a16001915050919050565b60065481565b600760009054906101000a900473ffffffffffffffffffffffffffffffffffffffff1681565b600e60009054906101000a900460ff1681565b60045481565b6000806000809054906101000a900473ffffffffffffffffffffffffffffffffffffffff1673ffffffffffffffffffffffffffffffffffffffff163373ffffffffffffffffffffffffffffffffffffffff161415156109c757600080fd5b60018060068111156109d557fe5b600e60009054906101000a900460ff1660068111156109f057fe5b1415156109f957fe5b3073ffffffffffffffffffffffffffffffffffffffff163191506000809054906101000a900473ffffffffffffffffffffffffffffffffffffffff1673ffffffffffffffffffffffffffffffffffffffff166108fc839081150290604051600060405180830381858888f193505050501515610a7457600080fd5b6002600e60006101000a81548160ff02191690836006811115610a9357fe5b02179055507f2717ead6b9200dd235aad468c9809ea400fe33ac69b5bfaa6d3e90fc922b63986000809054906101000a900473ffffffffffffffffffffffffffffffffffffffff16600760009054906101000a900473ffffffffffffffffffffffffffffffffffffffff1684604051808473ffffffffffffffffffffffffffffffffffffffff1673ffffffffffffffffffffffffffffffffffffffff1681526020018373ffffffffffffffffffffffffffffffffffffffff1673ffffffffffffffffffffffffffffffffffffffff168152602001828152602001935050505060405180910390a160019250505090565b60088054600181600116156101000203166002900480601f016020809104026020016040519081016040528092919081815260200182805460018160011615610100020316600290048015610c195780601f10610bee57610100808354040283529160200191610c19565b820191906000526020600020905b815481529060010190602001808311610bfc57829003601f168201915b505050505081565b6000600760009054906101000a900473ffffffffffffffffffffffffffffffffffffffff1673ffffffffffffffffffffffffffffffffffffffff163373ffffffffffffffffffffffffffffffffffffffff161480610ccc5750600160009054906101000a900473ffffffffffffffffffffffffffffffffffffffff1673ffffffffffffffffffffffffffffffffffffffff163373ffffffffffffffffffffffffffffffffffffffff16145b1515610cd757600080fd5b6003806006811115610ce557fe5b600e60009054906101000a900460ff166006811115610d0057fe5b141515610d0957fe5b6000600c600001819055506002600e60006101000a81548160ff02191690836006811115610d3357fe5b02179055507ff4da5a9400c6658aa44bacc8fe6cad78c3f6136fc8f25e78685a3875ec41c239600760009054906101000a900473ffffffffffffffffffffffffffffffffffffffff16600354604051808373ffffffffffffffffffffffffffffffffffffffff1673ffffffffffffffffffffffffffffffffffffffff1681526020018281526020019250505060405180910390a1600191505090565b60035481565b60008060008060009054906101000a900473ffffffffffffffffffffffffffffffffffffffff1673ffffffffffffffffffffffffffffffffffffffff163373ffffffffffffffffffffffffffffffffffffffff16141515610e3557600080fd5b6002806006811115610e4357fe5b600e60009054906101000a900460ff166006811115610e5e57fe5b141515610e6757fe5b600760009054906101000a900473ffffffffffffffffffffffffffffffffffffffff1673ffffffffffffffffffffffffffffffffffffffff166108fc349081150290604051600060405180830381858888f193505050501515610ec957600080fd5b610ed16122af565b925082610edf576005610ee2565b60065b600e60006101000a81548160ff02191690836006811115610eff57fe5b02179055506000600b541115610f6f5782610f3b576000809054906101000a900473ffffffffffffffffffffffffffffffffffffffff16610f5f565b600760009054906101000a900473ffffffffffffffffffffffffffffffffffffffff165b9150610f6d82600b546122c4565b505b7f8e964350dc81427324d6a33199adce3b1068fc559d90c0a1ec576af3324974c76000809054906101000a900473ffffffffffffffffffffffffffffffffffffffff16600760009054906101000a900473ffffffffffffffffffffffffffffffffffffffff163486604051808573ffffffffffffffffffffffffffffffffffffffff1673ffffffffffffffffffffffffffffffffffffffff1681526020018473ffffffffffffffffffffffffffffffffffffffff1673ffffffffffffffffffffffffffffffffffffffff1681526020018381526020018215151515815260200194505050505060405180910390a16001935050505090565b6000806000600760009054906101000a900473ffffffffffffffffffffffffffffffffffffffff1673ffffffffffffffffffffffffffffffffffffffff163373ffffffffffffffffffffffffffffffffffffffff1614806111155750600160009054906101000a900473ffffffffffffffffffffffffffffffffffffffff1673ffffffffffffffffffffffffffffffffffffffff163373ffffffffffffffffffffffffffffffffffffffff16145b151561112057600080fd5b600480600681111561112e57fe5b600e60009054906101000a900460ff16600681111561114957fe5b14151561115257fe5b600760009054906101000a900473ffffffffffffffffffffffffffffffffffffffff1692503073ffffffffffffffffffffffffffffffffffffffff163191508273ffffffffffffffffffffffffffffffffffffffff166108fc839081150290604051600060405180830381858888f1935050505015156111d157600080fd5b6002600e60006101000a81548160ff021916908360068111156111f057fe5b0217905550600c60010160009054906101000a900473ffffffffffffffffffffffffffffffffffffffff16600760006101000a81548173ffffffffffffffffffffffffffffffffffffffff021916908373ffffffffffffffffffffffffffffffffffffffff160217905550600c600001546004819055506000600c60010160006101000a81548173ffffffffffffffffffffffffffffffffffffffff021916908373ffffffffffffffffffffffffffffffffffffffff1602179055506000600c600001819055507f2717ead6b9200dd235aad468c9809ea400fe33ac69b5bfaa6d3e90fc922b639883600760009054906101000a900473ffffffffffffffffffffffffffffffffffffffff1684604051808473ffffffffffffffffffffffffffffffffffffffff1673ffffffffffffffffffffffffffffffffffffffff1681526020018373ffffffffffffffffffffffffffffffffffffffff1673ffffffffffffffffffffffffffffffffffffffff168152602001828152602001935050505060405180910390a16001935050505090565b60095481565b600160009054906101000a900473ffffffffffffffffffffffffffffffffffffffff1681565b6000809054906101000a900473ffffffffffffffffffffffffffffffffffffffff1681565b6000806000600760009054906101000a900473ffffffffffffffffffffffffffffffffffffffff1673ffffffffffffffffffffffffffffffffffffffff163373ffffffffffffffffffffffffffffffffffffffff1614151561143457600080fd5b600180600681111561144257fe5b600e60009054906101000a900460ff16600681111561145d57fe5b14151561146657fe5b61146e61244c565b925092507f7a474a7438d5f1dd10b368d84960c99d45e011ac29f2f10d6acfbb1aa284cf496000809054906101000a900473ffffffffffffffffffffffffffffffffffffffff168484604051808473ffffffffffffffffffffffffffffffffffffffff1673ffffffffffffffffffffffffffffffffffffffff1681526020018373ffffffffffffffffffffffffffffffffffffffff1673ffffffffffffffffffffffffffffffffffffffff168152602001828152602001935050505060405180910390a16001935050505090565b60055481565b60008060009054906101000a900473ffffffffffffffffffffffffffffffffffffffff1673ffffffffffffffffffffffffffffffffffffffff163373ffffffffffffffffffffffffffffffffffffffff1614151561159f57600080fd5b60008060068111156115ad57fe5b600e60009054906101000a900460ff1660068111156115c857fe5b1415156115d157fe5b82600b5401600a60009054906101000a900473ffffffffffffffffffffffffffffffffffffffff1673ffffffffffffffffffffffffffffffffffffffff166370a08231306000604051602001526040518263ffffffff167c0100000000000000000000000000000000000000000000000000000000028152600401808273ffffffffffffffffffffffffffffffffffffffff1673ffffffffffffffffffffffffffffffffffffffff168152602001915050602060405180830381600087803b151561169b57600080fd5b6102c65a03f115156116ac57600080fd5b505050604051805190501415156116bf57fe5b82600b600082825401925050819055507f5c2c0d2616a06b35bb159b4d7e227972b59bb33f8d5229ca0e5e438259bfd5d36000809054906101000a900473ffffffffffffffffffffffffffffffffffffffff1684600b54604051808473ffffffffffffffffffffffffffffffffffffffff1673ffffffffffffffffffffffffffffffffffffffff168152602001838152602001828152602001935050505060405180910390a16001915050919050565b6000806000600760009054906101000a900473ffffffffffffffffffffffffffffffffffffffff1673ffffffffffffffffffffffffffffffffffffffff163373ffffffffffffffffffffffffffffffffffffffff16148061181d5750600160009054906101000a900473ffffffffffffffffffffffffffffffffffffffff1673ffffffffffffffffffffffffffffffffffffffff163373ffffffffffffffffffffffffffffffffffffffff16145b151561182857600080fd5b600480600681111561183657fe5b600e60009054906101000a900460ff16600681111561185157fe5b14151561185a57fe5b600c60010160009054906101000a900473ffffffffffffffffffffffffffffffffffffffff1692503073ffffffffffffffffffffffffffffffffffffffff163191508273ffffffffffffffffffffffffffffffffffffffff166108fc839081150290604051600060405180830381858888f1935050505015156118dc57600080fd5b6000600c60010160006101000a81548173ffffffffffffffffffffffffffffffffffffffff021916908373ffffffffffffffffffffffffffffffffffffffff1602179055506003600e60006101000a81548160ff0219169083600681111561194057fe5b02179055507f6cd9f1a330d83b8c2346c1b5ef8e1fca8e368e77743e27bcd8eb2d20bafb01c6600760009054906101000a900473ffffffffffffffffffffffffffffffffffffffff168484604051808473ffffffffffffffffffffffffffffffffffffffff1673ffffffffffffffffffffffffffffffffffffffff1681526020018373ffffffffffffffffffffffffffffffffffffffff1673ffffffffffffffffffffffffffffffffffffffff168152602001828152602001935050505060405180910390a16001935050505090565b6000600760009054906101000a900473ffffffffffffffffffffffffffffffffffffffff1673ffffffffffffffffffffffffffffffffffffffff163373ffffffffffffffffffffffffffffffffffffffff161480611abb5750600160009054906101000a900473ffffffffffffffffffffffffffffffffffffffff1673ffffffffffffffffffffffffffffffffffffffff163373ffffffffffffffffffffffffffffffffffffffff16145b1515611ac657600080fd5b6002806006811115611ad457fe5b600e60009054906101000a900460ff166006811115611aef57fe5b141515611af857fe5b82600c600001819055506003600e60006101000a81548160ff02191690836006811115611b2157fe5b02179055507fbdeee1f1fbccb405bb11b23aab22fce5084b092d5edb2c16a71dda656df59e873384604051808373ffffffffffffffffffffffffffffffffffffffff1673ffffffffffffffffffffffffffffffffffffffff1681526020018281526020019250505060405180910390a16001915050919050565b60028054600181600116156101000203166002900480601f016020809104026020016040519081016040528092919081815260200182805460018160011615610100020316600290048015611c315780601f10611c0657610100808354040283529160200191611c31565b820191906000526020600020905b815481529060010190602001808311611c1457829003601f168201915b505050505081565b60008060006004806006811115611c4c57fe5b600e60009054906101000a900460ff166006811115611c6757fe5b141515611c7057fe5b600160009054906101000a900473ffffffffffffffffffffffffffffffffffffffff1673ffffffffffffffffffffffffffffffffffffffff163373ffffffffffffffffffffffffffffffffffffffff161480611d1c5750600c60010160009054906101000a900473ffffffffffffffffffffffffffffffffffffffff1673ffffffffffffffffffffffffffffffffffffffff163373ffffffffffffffffffffffffffffffffffffffff16145b1515611d2757600080fd5b600c60010160009054906101000a900473ffffffffffffffffffffffffffffffffffffffff1692503073ffffffffffffffffffffffffffffffffffffffff163191508273ffffffffffffffffffffffffffffffffffffffff166108fc839081150290604051600060405180830381858888f193505050501515611da957600080fd5b6000600c60010160006101000a81548173ffffffffffffffffffffffffffffffffffffffff021916908373ffffffffffffffffffffffffffffffffffffffff1602179055506003600e60006101000a81548160ff02191690836006811115611e0d57fe5b02179055507f7a474a7438d5f1dd10b368d84960c99d45e011ac29f2f10d6acfbb1aa284cf49600760009054906101000a900473ffffffffffffffffffffffffffffffffffffffff168484604051808473ffffffffffffffffffffffffffffffffffffffff1673ffffffffffffffffffffffffffffffffffffffff1681526020018373ffffffffffffffffffffffffffffffffffffffff1673ffffffffffffffffffffffffffffffffffffffff168152602001828152602001935050505060405180910390a16001935050505090565b60006003806006811115611eed57fe5b600e60009054906101000a900460ff166006811115611f0857fe5b141515611f1157fe5b82600c60010160006101000a81548173ffffffffffffffffffffffffffffffffffffffff021916908373ffffffffffffffffffffffffffffffffffffffff1602179055506004600e60006101000a81548160ff02191690836006811115611f7457fe5b02179055507faddfb37e33a1976f4125989f1e8869258d15590c4782f2c44ca2e44323109242600760009054906101000a900473ffffffffffffffffffffffffffffffffffffffff168434604051808473ffffffffffffffffffffffffffffffffffffffff1673ffffffffffffffffffffffffffffffffffffffff1681526020018373ffffffffffffffffffffffffffffffffffffffff1673ffffffffffffffffffffffffffffffffffffffff168152602001828152602001935050505060405180910390a16001915050919050565b6000600760009054906101000a900473ffffffffffffffffffffffffffffffffffffffff1673ffffffffffffffffffffffffffffffffffffffff163373ffffffffffffffffffffffffffffffffffffffff161415156120a257600080fd5b60028060068111156120b057fe5b600e60009054906101000a900460ff1660068111156120cb57fe5b1415156120d457fe5b6120dc6122af565b15156120e757600080fd5b612115600760009054906101000a900473ffffffffffffffffffffffffffffffffffffffff16600b546122c4565b91505090565b600b5481565b600a60009054906101000a900473ffffffffffffffffffffffffffffffffffffffff1681565b60008060008060009054906101000a900473ffffffffffffffffffffffffffffffffffffffff1673ffffffffffffffffffffffffffffffffffffffff163373ffffffffffffffffffffffffffffffffffffffff161415156121a757600080fd5b60018060068111156121b557fe5b600e60009054906101000a900460ff1660068111156121d057fe5b1415156121d957fe5b6121e161244c565b925092507f6cd9f1a330d83b8c2346c1b5ef8e1fca8e368e77743e27bcd8eb2d20bafb01c66000809054906101000a900473ffffffffffffffffffffffffffffffffffffffff168484604051808473ffffffffffffffffffffffffffffffffffffffff1673ffffffffffffffffffffffffffffffffffffffff1681526020018373ffffffffffffffffffffffffffffffffffffffff1673ffffffffffffffffffffffffffffffffffffffff168152602001828152602001935050505060405180910390a16001935050505090565b60006201518060055402600954014211905090565b600081600b54101515156122d457fe5b600a60009054906101000a900473ffffffffffffffffffffffffffffffffffffffff1673ffffffffffffffffffffffffffffffffffffffff1663a9059cbb84846000604051602001526040518363ffffffff167c0100000000000000000000000000000000000000000000000000000000028152600401808373ffffffffffffffffffffffffffffffffffffffff1673ffffffffffffffffffffffffffffffffffffffff16815260200182815260200192505050602060405180830381600087803b15156123a157600080fd5b6102c65a03f115156123b257600080fd5b5050506040518051905015156123c757600080fd5b7feddb53e10e60b3a2396b4222b3db092137bdbf7a6fecceaf2b0b438ff0ddc66e8383604051808373ffffffffffffffffffffffffffffffffffffffff1673ffffffffffffffffffffffffffffffffffffffff1681526020018281526020019250505060405180910390a181600b600082825403925050819055506001905092915050565b600080600080600180600681111561246057fe5b600e60009054906101000a900460ff16600681111561247b57fe5b14151561248457fe5b3073ffffffffffffffffffffffffffffffffffffffff16319250600760009054906101000a900473ffffffffffffffffffffffffffffffffffffffff1673ffffffffffffffffffffffffffffffffffffffff166108fc849081150290604051600060405180830381858888f19350505050151561250057600080fd5b600760009054906101000a900473ffffffffffffffffffffffffffffffffffffffff1691506000600760006101000a81548173ffffffffffffffffffffffffffffffffffffffff021916908373ffffffffffffffffffffffffffffffffffffffff1602179055506000600e60006101000a81548160ff0219169083600681111561258657fe5b0217905550600060098190555081839450945050505090915600a165627a7a72305820d3bc88feda64cced231c2c822b074dce8c94f11f156301f70b225c4025dcf66f0029",
  "source": "pragma solidity ^0.4.18;\n\nimport './AssetEvents.sol';\nimport '../token/Token.sol';\n\n// Defines methods and control modifiers for an investment\ncontract AssetLibrary is AssetEvents {\n\n    // Asset owner\n    address public owner;\n    // Protocol\n    address public protocol;\n    // Asset currency\n    string public currency;\n    // Asset fixed value\n    uint256 public value;\n    //Value bought\n    uint256 public boughtValue;\n    // period to return the investment\n    uint256 public paybackDays;\n    // Gross return of investment\n    uint256 public grossReturn;\n    // Asset buyer\n    address public investor;\n    // Protocol version\n    string public protocolVersion;\n    // investment timestamp\n    uint public investedAt;\n\n    // asset fuel\n    Token public token;\n    uint256 public tokenFuel;\n\n    // sell data\n    struct Sell {\n        uint256 value;\n        address buyer;\n    }\n\n    Sell sellData;\n\n    // possible stages of an asset\n    enum Status {\n        AVAILABLE,\n        PENDING_OWNER_AGREEMENT,\n        INVESTED,\n        FOR_SALE,\n        PENDING_INVESTOR_AGREEMENT,\n        RETURNED,\n        DELAYED_RETURN\n    }\n    Status public status;\n\n    // Checks the current asset's status\n    modifier hasStatus(Status _status) {\n        assert(status == _status);\n        _;\n    }\n\n    // Checks if the owner is the caller\n    modifier onlyOwner() {\n        require(msg.sender == owner);\n        _;\n    }\n\n    // Checks if the investor is the caller\n    modifier onlyInvestor() {\n        require(msg.sender == investor);\n        _;\n    }\n\n    // The asset can be selled by using the protocol or directly by the current investor\n    modifier authorizedToSell() {\n        require(msg.sender == investor || msg.sender == protocol);\n        _;\n    }\n\n    modifier onlyDelayed(){\n        require(isDelayed());\n        _;\n    }\n\n\n    function isDelayed()\n        view\n        internal\n        returns(bool)\n    {\n        return now > investedAt + paybackDays * 1 days;\n    }\n\n    // Refund and remove the current investor and make the asset available for investments\n    function makeAvailable()\n        hasStatus(Status.PENDING_OWNER_AGREEMENT)\n        private\n        returns(address, uint256)\n    {\n        uint256 investedValue = this.balance;\n        investor.transfer(investedValue);\n        address currentInvestor = investor;\n        investor = address(0);\n        status = Status.AVAILABLE;\n        investedAt = uint(0);\n        return (currentInvestor, investedValue);\n    }\n\n\n    function withdrawTokens(address _recipient, uint256 _amount)\n        private\n        returns(bool)\n    {\n        assert(tokenFuel >= _amount);\n        require(token.transfer(_recipient, _amount));\n        TokenWithdrawal(_recipient, _amount);\n        tokenFuel -= _amount;\n        return true;\n    }\n\n    // Add investment interest in this asset and retain the funds within the smart contract\n    function invest(address _investor) payable\n         hasStatus(Status.AVAILABLE)\n         external\n         returns(bool)\n    {\n        investor = _investor;\n        investedAt = now;\n        status = Status.PENDING_OWNER_AGREEMENT;\n        Invested(owner, investor, this.balance);\n        return true;\n    }\n\n    // Cancel the pending investment\n    function cancelInvestment()\n        onlyInvestor\n        hasStatus(Status.PENDING_OWNER_AGREEMENT)\n        external\n        returns(bool)\n    {\n        var (currentInvestor, investedValue) = makeAvailable();\n        Canceled(owner, currentInvestor, investedValue);\n        return true;\n    }\n\n    // Accept the investor as the asset buyer and withdraw funds\n    function withdrawFunds()\n        onlyOwner\n        hasStatus(Status.PENDING_OWNER_AGREEMENT)\n        external\n        returns(bool)\n    {\n        uint256 _value = this.balance;\n        owner.transfer(_value);\n        status = Status.INVESTED;\n        Withdrawal(owner, investor, _value);\n        return true;\n    }\n\n    // Refuse the pending investment\n    function refuseInvestment()\n        onlyOwner\n        hasStatus(Status.PENDING_OWNER_AGREEMENT)\n        external\n        returns(bool)\n    {\n        var (currentInvestor, investedValue) = makeAvailable();\n        Refused(owner, currentInvestor, investedValue);\n        return true;\n    }\n\n    function sell(uint256 _sellValue)\n        authorizedToSell\n        hasStatus(Status.INVESTED)\n        external\n        returns(bool)\n    {\n        sellData.value = _sellValue;\n        status = Status.FOR_SALE;\n        ForSale(msg.sender, _sellValue);\n        return true;\n    }\n\n    function cancelSellOrder()\n        authorizedToSell\n        hasStatus(Status.FOR_SALE)\n        external\n        returns(bool)\n    {\n        sellData.value = uint256(0);\n        status = Status.INVESTED;\n        CanceledSell(investor, value);\n        return true;\n    }\n\n    function buy(address _buyer) payable\n        hasStatus(Status.FOR_SALE)\n        external\n        returns(bool)\n    {\n        sellData.buyer = _buyer;\n        status = Status.PENDING_INVESTOR_AGREEMENT;\n        Invested(investor, _buyer, msg.value);\n        return true;\n    }\n\n     function cancelSale()\n        hasStatus(Status.PENDING_INVESTOR_AGREEMENT)\n        external\n        returns(bool)\n    {\n        require(msg.sender == protocol || msg.sender == sellData.buyer);\n        address buyer = sellData.buyer;\n        uint256 _value = this.balance;\n        buyer.transfer(_value);\n        sellData.buyer = address(0);\n        status = Status.FOR_SALE;\n        Canceled(investor, buyer, _value);\n        return true;\n    }\n\n    // Refunds asset's buyer and became available for sale again\n    function refuseSale()\n        authorizedToSell\n        hasStatus(Status.PENDING_INVESTOR_AGREEMENT)\n        external\n        returns(bool)\n    {\n        address buyer = sellData.buyer;\n        uint256 _value = this.balance;\n        buyer.transfer(_value);\n        sellData.buyer = address(0);\n        status = Status.FOR_SALE;\n        Refused(investor, buyer, _value);\n        return true;\n    }\n\n    // Withdraw funds, clear the sell data and change investor's address\n    function acceptSale()\n        authorizedToSell\n        hasStatus(Status.PENDING_INVESTOR_AGREEMENT)\n        external\n        returns(bool)\n    {\n        address currentInvestor = investor;\n        uint256 _value = this.balance;\n        currentInvestor.transfer(_value);\n        status = Status.INVESTED;\n        investor = sellData.buyer;\n        boughtValue = sellData.value;\n        sellData.buyer = address(0);\n        sellData.value = uint256(0);\n        Withdrawal(currentInvestor, investor, _value);\n        return true;\n    }\n\n    function returnInvestment() payable\n        onlyOwner\n        hasStatus(Status.INVESTED)\n        external\n        returns(bool)\n    {\n        investor.transfer(msg.value);\n        bool _isDelayed = isDelayed();\n        status = _isDelayed ? Status.DELAYED_RETURN : Status.RETURNED;\n        if(tokenFuel > 0){\n            address recipient = _isDelayed ? investor : owner;\n            withdrawTokens(recipient, tokenFuel);\n        }\n        Returned(owner, investor, msg.value, _isDelayed);\n        return true;\n    }\n\n    function supplyFuel(uint256 _amount)\n        onlyOwner\n        hasStatus(Status.AVAILABLE)\n        external\n        returns(bool)\n    {\n        assert(token.balanceOf(this) == tokenFuel + _amount);\n        tokenFuel += _amount;\n        Supplied(owner, _amount, tokenFuel);\n        return true;\n    }\n\n    function requireTokenFuel()\n        onlyInvestor\n        hasStatus(Status.INVESTED)\n        onlyDelayed\n        external\n        returns(bool)\n    {\n        return withdrawTokens(investor, tokenFuel);\n    }\n\n}\n",
  "sourcePath": "/home/adriel/Development/swapy-exchange-protocol/contracts/investment/AssetLibrary.sol",
  "compiler": {
    "name": "solc",
    "version": "0.4.18+commit.9cf6e910.Emscripten.clang"
  },
  "schemaVersion": "1.0.1",
  "updatedAt": "2017-12-22T22:03:53.693Z"
}