{
  "contractName": "InvestmentAsset",
  "abi": [
    {
      "constant": true,
      "inputs": [],
      "name": "grossReturn",
      "outputs": [
        {
          "name": "",
          "type": "uint256"
        }
      ],
      "payable": false,
      "stateMutability": "view",
      "type": "function"
    },
    {
      "constant": true,
      "inputs": [],
      "name": "investor",
      "outputs": [
        {
          "name": "",
          "type": "address"
        }
      ],
      "payable": false,
      "stateMutability": "view",
      "type": "function"
    },
    {
      "constant": true,
      "inputs": [],
      "name": "status",
      "outputs": [
        {
          "name": "",
          "type": "uint8"
        }
      ],
      "payable": false,
      "stateMutability": "view",
      "type": "function"
    },
    {
      "constant": true,
      "inputs": [],
      "name": "boughtValue",
      "outputs": [
        {
          "name": "",
          "type": "uint256"
        }
      ],
      "payable": false,
      "stateMutability": "view",
      "type": "function"
    },
    {
      "constant": true,
      "inputs": [],
      "name": "protocolVersion",
      "outputs": [
        {
          "name": "",
          "type": "string"
        }
      ],
      "payable": false,
      "stateMutability": "view",
      "type": "function"
    },
    {
      "constant": true,
      "inputs": [],
      "name": "assetLibrary",
      "outputs": [
        {
          "name": "",
          "type": "address"
        }
      ],
      "payable": false,
      "stateMutability": "view",
      "type": "function"
    },
    {
      "constant": true,
      "inputs": [],
      "name": "value",
      "outputs": [
        {
          "name": "",
          "type": "uint256"
        }
      ],
      "payable": false,
      "stateMutability": "view",
      "type": "function"
    },
    {
      "constant": true,
      "inputs": [],
      "name": "getAsset",
      "outputs": [
        {
          "name": "",
          "type": "address"
        },
        {
          "name": "",
          "type": "string"
        },
        {
          "name": "",
          "type": "uint256"
        },
        {
          "name": "",
          "type": "uint256"
        },
        {
          "name": "",
          "type": "uint256"
        },
        {
          "name": "",
          "type": "uint8"
        },
        {
          "name": "",
          "type": "address"
        },
        {
          "name": "",
          "type": "string"
        },
        {
          "name": "",
          "type": "uint256"
        },
        {
          "name": "",
          "type": "uint256"
        },
        {
          "name": "",
          "type": "address"
        },
        {
          "name": "",
          "type": "uint256"
        },
        {
          "name": "",
          "type": "uint256"
        }
      ],
      "payable": false,
      "stateMutability": "view",
      "type": "function"
    },
    {
      "constant": true,
      "inputs": [],
      "name": "investedAt",
      "outputs": [
        {
          "name": "",
          "type": "uint256"
        }
      ],
      "payable": false,
      "stateMutability": "view",
      "type": "function"
    },
    {
      "constant": true,
      "inputs": [],
      "name": "protocol",
      "outputs": [
        {
          "name": "",
          "type": "address"
        }
      ],
      "payable": false,
      "stateMutability": "view",
      "type": "function"
    },
    {
      "constant": true,
      "inputs": [],
      "name": "owner",
      "outputs": [
        {
          "name": "",
          "type": "address"
        }
      ],
      "payable": false,
      "stateMutability": "view",
      "type": "function"
    },
    {
      "constant": true,
      "inputs": [],
      "name": "paybackDays",
      "outputs": [
        {
          "name": "",
          "type": "uint256"
        }
      ],
      "payable": false,
      "stateMutability": "view",
      "type": "function"
    },
    {
      "constant": true,
      "inputs": [],
      "name": "sellData",
      "outputs": [
        {
          "name": "value",
          "type": "uint256"
        },
        {
          "name": "buyer",
          "type": "address"
        }
      ],
      "payable": false,
      "stateMutability": "view",
      "type": "function"
    },
    {
      "constant": true,
      "inputs": [],
      "name": "currency",
      "outputs": [
        {
          "name": "",
          "type": "string"
        }
      ],
      "payable": false,
      "stateMutability": "view",
      "type": "function"
    },
    {
      "constant": true,
      "inputs": [],
      "name": "tokenFuel",
      "outputs": [
        {
          "name": "",
          "type": "uint256"
        }
      ],
      "payable": false,
      "stateMutability": "view",
      "type": "function"
    },
    {
      "constant": true,
      "inputs": [],
      "name": "token",
      "outputs": [
        {
          "name": "",
          "type": "address"
        }
      ],
      "payable": false,
      "stateMutability": "view",
      "type": "function"
    },
    {
      "inputs": [
        {
          "name": "_library",
          "type": "address"
        },
        {
          "name": "_protocol",
          "type": "address"
        },
        {
          "name": "_owner",
          "type": "address"
        },
        {
          "name": "_protocolVersion",
          "type": "string"
        },
        {
          "name": "_currency",
          "type": "string"
        },
        {
          "name": "_value",
          "type": "uint256"
        },
        {
          "name": "_paybackDays",
          "type": "uint256"
        },
        {
          "name": "_grossReturn",
          "type": "uint256"
        },
        {
          "name": "_token",
          "type": "address"
        }
      ],
      "payable": false,
      "stateMutability": "nonpayable",
      "type": "constructor"
    },
    {
      "payable": true,
      "stateMutability": "payable",
      "type": "fallback"
    }
  ],
  "bytecode": "0x6060604052341561000f57600080fd5b604051610eea380380610eea8339810160405280805190602001909190805190602001909190805190602001909190805182019190602001805182019190602001805190602001909190805190602001909190805190602001909190805190602001909190505088600e60016101000a81548173ffffffffffffffffffffffffffffffffffffffff021916908373ffffffffffffffffffffffffffffffffffffffff16021790555087600160006101000a81548173ffffffffffffffffffffffffffffffffffffffff021916908373ffffffffffffffffffffffffffffffffffffffff160217905550866000806101000a81548173ffffffffffffffffffffffffffffffffffffffff021916908373ffffffffffffffffffffffffffffffffffffffff160217905550856008908051906020019061014e9291906101fe565b5084600290805190602001906101659291906101fe565b5083600381905550600060048190555082600581905550816006819055506000600e60006101000a81548160ff021916908360068111156101a257fe5b02179055506000600b8190555080600a60006101000a81548173ffffffffffffffffffffffffffffffffffffffff021916908373ffffffffffffffffffffffffffffffffffffffff1602179055505050505050505050506102a3565b828054600181600116156101000203166002900490600052602060002090601f016020900481019282601f1061023f57805160ff191683800117855561026d565b8280016001018555821561026d579182015b8281111561026c578251825591602001919060010190610251565b5b50905061027a919061027e565b5090565b6102a091905b8082111561029c576000816000905550600101610284565b5090565b90565b610c38806102b26000396000f3006060604052600436106100e6576000357c0100000000000000000000000000000000000000000000000000000000900463ffffffff1680631b4a044d146101555780631e0018d61461017e578063200d2ed2146101d35780632218c1941461020a5780632ae9c600146102335780633951d06b146102c15780633fa4f245146103165780635c222bad1461033f5780638ac48191146105185780638ce74426146105415780638da5cb5b14610596578063a13b9b1f146105eb578063cb73696014610614578063e5a6b10f14610670578063f771ac01146106fe578063fc0c546a14610727575b600e60019054906101000a900473ffffffffffffffffffffffffffffffffffffffff1673ffffffffffffffffffffffffffffffffffffffff16600036604051808383808284378201915050925050506000604051808303818561646e5a03f4915050151561015357600080fd5b005b341561016057600080fd5b61016861077c565b6040518082815260200191505060405180910390f35b341561018957600080fd5b610191610782565b604051808273ffffffffffffffffffffffffffffffffffffffff1673ffffffffffffffffffffffffffffffffffffffff16815260200191505060405180910390f35b34156101de57600080fd5b6101e66107a8565b604051808260068111156101f657fe5b60ff16815260200191505060405180910390f35b341561021557600080fd5b61021d6107bb565b6040518082815260200191505060405180910390f35b341561023e57600080fd5b6102466107c1565b6040518080602001828103825283818151815260200191508051906020019080838360005b8381101561028657808201518184015260208101905061026b565b50505050905090810190601f1680156102b35780820380516001836020036101000a031916815260200191505b509250505060405180910390f35b34156102cc57600080fd5b6102d461085f565b604051808273ffffffffffffffffffffffffffffffffffffffff1673ffffffffffffffffffffffffffffffffffffffff16815260200191505060405180910390f35b341561032157600080fd5b610329610885565b6040518082815260200191505060405180910390f35b341561034a57600080fd5b61035261088b565b604051808e73ffffffffffffffffffffffffffffffffffffffff1673ffffffffffffffffffffffffffffffffffffffff168152602001806020018d81526020018c81526020018b81526020018a60068111156103aa57fe5b60ff1681526020018973ffffffffffffffffffffffffffffffffffffffff1673ffffffffffffffffffffffffffffffffffffffff168152602001806020018881526020018781526020018673ffffffffffffffffffffffffffffffffffffffff1673ffffffffffffffffffffffffffffffffffffffff16815260200185815260200184815260200183810383528f818151815260200191508051906020019080838360005b8381101561046a57808201518184015260208101905061044f565b50505050905090810190601f1680156104975780820380516001836020036101000a031916815260200191505b50838103825289818151815260200191508051906020019080838360005b838110156104d05780820151818401526020810190506104b5565b50505050905090810190601f1680156104fd5780820380516001836020036101000a031916815260200191505b509f5050505050505050505050505050505060405180910390f35b341561052357600080fd5b61052b610aa5565b6040518082815260200191505060405180910390f35b341561054c57600080fd5b610554610aab565b604051808273ffffffffffffffffffffffffffffffffffffffff1673ffffffffffffffffffffffffffffffffffffffff16815260200191505060405180910390f35b34156105a157600080fd5b6105a9610ad1565b604051808273ffffffffffffffffffffffffffffffffffffffff1673ffffffffffffffffffffffffffffffffffffffff16815260200191505060405180910390f35b34156105f657600080fd5b6105fe610af6565b6040518082815260200191505060405180910390f35b341561061f57600080fd5b610627610afc565b604051808381526020018273ffffffffffffffffffffffffffffffffffffffff1673ffffffffffffffffffffffffffffffffffffffff1681526020019250505060405180910390f35b341561067b57600080fd5b610683610b2e565b6040518080602001828103825283818151815260200191508051906020019080838360005b838110156106c35780820151818401526020810190506106a8565b50505050905090810190601f1680156106f05780820380516001836020036101000a031916815260200191505b509250505060405180910390f35b341561070957600080fd5b610711610bcc565b6040518082815260200191505060405180910390f35b341561073257600080fd5b61073a610bd2565b604051808273ffffffffffffffffffffffffffffffffffffffff1673ffffffffffffffffffffffffffffffffffffffff16815260200191505060405180910390f35b60065481565b600760009054906101000a900473ffffffffffffffffffffffffffffffffffffffff1681565b600e60009054906101000a900460ff1681565b60045481565b60088054600181600116156101000203166002900480601f0160208091040260200160405190810160405280929190818152602001828054600181600116156101000203166002900480156108575780601f1061082c57610100808354040283529160200191610857565b820191906000526020600020905b81548152906001019060200180831161083a57829003601f168201915b505050505081565b600e60019054906101000a900473ffffffffffffffffffffffffffffffffffffffff1681565b60035481565b6000610895610bf8565b60008060008060006108a5610bf8565b60008060008060008060009054906101000a900473ffffffffffffffffffffffffffffffffffffffff166002600354600554600654600e60009054906101000a900460ff16600760009054906101000a900473ffffffffffffffffffffffffffffffffffffffff166008600954600b54600c60010160009054906101000a900473ffffffffffffffffffffffffffffffffffffffff16600c600001546004548b8054600181600116156101000203166002900480601f0160208091040260200160405190810160405280929190818152602001828054600181600116156101000203166002900480156109d95780601f106109ae576101008083540402835291602001916109d9565b820191906000526020600020905b8154815290600101906020018083116109bc57829003601f168201915b50505050509b50858054600181600116156101000203166002900480601f016020809104026020016040519081016040528092919081815260200182805460018160011615610100020316600290048015610a755780601f10610a4a57610100808354040283529160200191610a75565b820191906000526020600020905b815481529060010190602001808311610a5857829003601f168201915b505050505095509c509c509c509c509c509c509c509c509c509c509c509c509c50909192939495969798999a9b9c565b60095481565b600160009054906101000a900473ffffffffffffffffffffffffffffffffffffffff1681565b6000809054906101000a900473ffffffffffffffffffffffffffffffffffffffff1681565b60055481565b600c8060000154908060010160009054906101000a900473ffffffffffffffffffffffffffffffffffffffff16905082565b60028054600181600116156101000203166002900480601f016020809104026020016040519081016040528092919081815260200182805460018160011615610100020316600290048015610bc45780601f10610b9957610100808354040283529160200191610bc4565b820191906000526020600020905b815481529060010190602001808311610ba757829003601f168201915b505050505081565b600b5481565b600a60009054906101000a900473ffffffffffffffffffffffffffffffffffffffff1681565b6020604051908101604052806000815250905600a165627a7a7230582036e5d467dc8b9f932283cc70c94780b4a677a1f726d6fe699d05e2c50761fa420029",
  "source": "pragma solidity ^0.4.18;\n\nimport '../token/Token.sol';\n\n// Defines a fund raising asset contract\n\ncontract InvestmentAsset {\n\n    // Asset owner\n    address public owner;\n    // Protocol\n    address public protocol;\n    // Asset currency\n    string public currency;\n    // Asset value\n    uint256 public value;\n    //Value bought\n    uint256 public boughtValue;\n    // period to return the investment\n    uint256 public paybackDays;\n    // Gross return of investment\n    uint256 public grossReturn;\n    // Asset buyer\n    address public investor;\n    // Protocol version\n    string public protocolVersion;\n    // investment timestamp\n    uint public investedAt;\n\n    // Fuel\n    Token public token;\n    uint256 public tokenFuel;\n\n    // sell data\n    struct Sell {\n        uint256 value;\n        address buyer;\n    }\n    Sell public sellData;\n\n    // possible stages of an asset\n    enum Status {\n        AVAILABLE,\n        PENDING_OWNER_AGREEMENT,\n        INVESTED,\n        FOR_SALE,\n        PENDING_INVESTOR_AGREEMENT,\n        RETURNED,\n        DELAYED_RETURN\n    }\n    Status public status;\n\n    //  Library to delegate calls\n    address public assetLibrary;\n\n    function InvestmentAsset(\n        address _library,\n        address _protocol,\n        address _owner,\n        string _protocolVersion,\n        string _currency,\n        uint256 _value,\n        uint _paybackDays,\n        uint _grossReturn,\n        address _token)\n        public\n    {\n        // set the library to delegate methods\n        assetLibrary = _library;\n        // init asset\n        protocol = _protocol;\n        owner = _owner;\n        protocolVersion = _protocolVersion;\n        currency = _currency;\n        value = _value;\n        boughtValue = 0;\n        paybackDays = _paybackDays;\n        grossReturn = _grossReturn;\n        status = Status.AVAILABLE;\n        tokenFuel = 0;\n        token = Token(_token);\n    }\n\n    function getAsset()\n        external\n        constant\n        returns(address, string, uint256, uint256, uint256, Status, address, string, uint, uint256, address, uint256, uint256)\n    {\n        return (owner, currency, value, paybackDays, grossReturn, status, investor, protocolVersion, investedAt, tokenFuel, sellData.buyer, sellData.value, boughtValue);\n    }\n\n    function () payable\n        external\n    {\n        require(assetLibrary.delegatecall(msg.data));\n    }\n\n}\n",
  "sourcePath": "/home/adriel/Development/swapy-exchange-protocol/contracts/investment/InvestmentAsset.sol",
  "compiler": {
    "name": "solc",
    "version": "0.4.18+commit.9cf6e910.Emscripten.clang"
  },
  "schemaVersion": "1.0.1",
  "updatedAt": "2018-05-14T15:44:32.464Z"
}