{
  "contractName": "SwapyExchange",
  "abi": [
    {
      "constant": false,
      "inputs": [
        {
          "name": "_assets",
          "type": "address[]"
        }
      ],
      "name": "invest",
      "outputs": [
        {
          "name": "",
          "type": "bool"
        }
      ],
      "payable": true,
      "stateMutability": "payable",
      "type": "function"
    },
    {
      "constant": false,
      "inputs": [
        {
          "name": "_paybackDays",
          "type": "uint256"
        },
        {
          "name": "_grossReturn",
          "type": "uint256"
        },
        {
          "name": "_currency",
          "type": "string"
        },
        {
          "name": "_assets",
          "type": "uint256[]"
        }
      ],
      "name": "createOffer",
      "outputs": [
        {
          "name": "",
          "type": "bool"
        }
      ],
      "payable": false,
      "stateMutability": "nonpayable",
      "type": "function"
    },
    {
      "constant": true,
      "inputs": [],
      "name": "assetLibrary",
      "outputs": [
        {
          "name": "",
          "type": "address"
        }
      ],
      "payable": false,
      "stateMutability": "view",
      "type": "function"
    },
    {
      "constant": false,
      "inputs": [
        {
          "name": "_asset",
          "type": "address"
        }
      ],
      "name": "buyAsset",
      "outputs": [
        {
          "name": "",
          "type": "bool"
        }
      ],
      "payable": true,
      "stateMutability": "payable",
      "type": "function"
    },
    {
      "constant": false,
      "inputs": [
        {
          "name": "_asset",
          "type": "address"
        },
        {
          "name": "_value",
          "type": "uint256"
        }
      ],
      "name": "sellAsset",
      "outputs": [
        {
          "name": "",
          "type": "bool"
        }
      ],
      "payable": false,
      "stateMutability": "nonpayable",
      "type": "function"
    },
    {
      "constant": true,
      "inputs": [],
      "name": "token",
      "outputs": [
        {
          "name": "",
          "type": "address"
        }
      ],
      "payable": false,
      "stateMutability": "view",
      "type": "function"
    },
    {
      "constant": true,
      "inputs": [],
      "name": "VERSION",
      "outputs": [
        {
          "name": "",
          "type": "string"
        }
      ],
      "payable": false,
      "stateMutability": "view",
      "type": "function"
    },
    {
      "inputs": [
        {
          "name": "_assetLibrary",
          "type": "address"
        },
        {
          "name": "_token",
          "type": "address"
        }
      ],
      "payable": false,
      "stateMutability": "nonpayable",
      "type": "constructor"
    },
    {
      "anonymous": false,
      "inputs": [
        {
          "indexed": true,
          "name": "_from",
          "type": "address"
        },
        {
          "indexed": false,
          "name": "_protocolVersion",
          "type": "string"
        },
        {
          "indexed": false,
          "name": "_assets",
          "type": "address[]"
        }
      ],
      "name": "Offers",
      "type": "event"
    },
    {
      "anonymous": false,
      "inputs": [
        {
          "indexed": true,
          "name": "_investor",
          "type": "address"
        },
        {
          "indexed": false,
          "name": "_assets",
          "type": "address[]"
        },
        {
          "indexed": false,
          "name": "_value",
          "type": "uint256"
        }
      ],
      "name": "Investments",
      "type": "event"
    },
    {
      "anonymous": false,
      "inputs": [
        {
          "indexed": true,
          "name": "_investor",
          "type": "address"
        },
        {
          "indexed": false,
          "name": "_asset",
          "type": "address"
        },
        {
          "indexed": false,
          "name": "_value",
          "type": "uint256"
        }
      ],
      "name": "ForSale",
      "type": "event"
    },
    {
      "anonymous": false,
      "inputs": [
        {
          "indexed": true,
          "name": "_buyer",
          "type": "address"
        },
        {
          "indexed": false,
          "name": "_asset",
          "type": "address"
        },
        {
          "indexed": false,
          "name": "_value",
          "type": "uint256"
        }
      ],
      "name": "Bought",
      "type": "event"
    }
  ],
  "bytecode": "0x6060604052341561000f57600080fd5b604051604080611c7483398101604052808051906020019091908051906020019091905050816000806101000a81548173ffffffffffffffffffffffffffffffffffffffff021916908373ffffffffffffffffffffffffffffffffffffffff16021790555080600160006101000a81548173ffffffffffffffffffffffffffffffffffffffff021916908373ffffffffffffffffffffffffffffffffffffffff1602179055505050611bae806100c66000396000f300606060405260043610610082576000357c0100000000000000000000000000000000000000000000000000000000900463ffffffff168062b3c728146100875780630d9049f2146100c25780633951d06b1461012e57806386bb5a4814610183578063d3e38dae146101c9578063fc0c546a14610223578063ffa1ad7414610278575b600080fd5b6100a860048080359060200190820180359060200191909192905050610306565b604051808215151515815260200191505060405180910390f35b34156100cd57600080fd5b6101146004808035906020019091908035906020019091908035906020019082018035906020019190919290803590602001908201803590602001919091929050506104d7565b604051808215151515815260200191505060405180910390f35b341561013957600080fd5b610141610690565b604051808273ffffffffffffffffffffffffffffffffffffffff1673ffffffffffffffffffffffffffffffffffffffff16815260200191505060405180910390f35b6101af600480803573ffffffffffffffffffffffffffffffffffffffff169060200190919050506106b5565b604051808215151515815260200191505060405180910390f35b34156101d457600080fd5b610209600480803573ffffffffffffffffffffffffffffffffffffffff1690602001909190803590602001909190505061083c565b604051808215151515815260200191505060405180910390f35b341561022e57600080fd5b610236610a56565b604051808273ffffffffffffffffffffffffffffffffffffffff1673ffffffffffffffffffffffffffffffffffffffff16815260200191505060405180910390f35b341561028357600080fd5b61028b610a7c565b6040518080602001828103825283818151815260200191508051906020019080838360005b838110156102cb5780820151818401526020810190506102b0565b50505050905090810190601f1680156102f85780820380516001836020036101000a031916815260200191505b509250505060405180910390f35b6000806000848490503481151561031957fe5b049150600090505b8484905081101561045857848482818110151561033a57fe5b9050602002013573ffffffffffffffffffffffffffffffffffffffff1673ffffffffffffffffffffffffffffffffffffffff168260405180807f696e766573742861646472657373290000000000000000000000000000000000815250600f01905060405180910390207c0100000000000000000000000000000000000000000000000000000000900490336040518363ffffffff167c0100000000000000000000000000000000000000000000000000000000028152600401808273ffffffffffffffffffffffffffffffffffffffff1673ffffffffffffffffffffffffffffffffffffffff16815260200191505060006040518083038185886187965a03f19350505050151561044b57600080fd5b8080600101915050610321565b3373ffffffffffffffffffffffffffffffffffffffff167f727e3a62e643411b078c571689c8cef03f82ddf8bab3ee01b1d3d1cc5bf70bff86863460405180806020018381526020018281038252858582818152602001925060200280828437820191505094505050505060405180910390a260019250505092915050565b60006104e1610dcd565b61054e84848080602002602001604051908101604052809392919081815260200183836020028082843782019150505050505087878080601f0160208091040260200160405190810160405280939291908181526020018383808284378201915050505050508a8a610ab5565b90503373ffffffffffffffffffffffffffffffffffffffff167f38a3b172767ecb07a19d1357d8108fd759fac3ac495e789aa4408de6a650e3846040805190810160405280600581526020017f312e302e3000000000000000000000000000000000000000000000000000000081525083604051808060200180602001838103835285818151815260200191508051906020019080838360005b838110156106035780820151818401526020810190506105e8565b50505050905090810190601f1680156106305780820380516001836020036101000a031916815260200191505b50838103825284818151815260200191508051906020019060200280838360005b8381101561066c578082015181840152602081019050610651565b5050505090500194505050505060405180910390a260019150509695505050505050565b6000809054906101000a900473ffffffffffffffffffffffffffffffffffffffff1681565b6000803490508273ffffffffffffffffffffffffffffffffffffffff168160405180807f6275792861646472657373290000000000000000000000000000000000000000815250600c01905060405180910390207c0100000000000000000000000000000000000000000000000000000000900490336040518363ffffffff167c0100000000000000000000000000000000000000000000000000000000028152600401808273ffffffffffffffffffffffffffffffffffffffff1673ffffffffffffffffffffffffffffffffffffffff16815260200191505060006040518083038185886187965a03f1935050505015156107b057600080fd5b3373ffffffffffffffffffffffffffffffffffffffff167f0a553f03004ca54c18763b68c9ef162311a3c847d15f2d2e12a39cdf28e966ce8434604051808373ffffffffffffffffffffffffffffffffffffffff1673ffffffffffffffffffffffffffffffffffffffff1681526020018281526020019250505060405180910390a26001915050919050565b6000808390508073ffffffffffffffffffffffffffffffffffffffff16631e0018d66000604051602001526040518163ffffffff167c0100000000000000000000000000000000000000000000000000000000028152600401602060405180830381600087803b15156108ae57600080fd5b6102c65a03f115156108bf57600080fd5b5050506040518051905073ffffffffffffffffffffffffffffffffffffffff163373ffffffffffffffffffffffffffffffffffffffff1614151561090257600080fd5b8373ffffffffffffffffffffffffffffffffffffffff1660405180807f73656c6c2875696e743235362900000000000000000000000000000000000000815250600d01905060405180910390207c01000000000000000000000000000000000000000000000000000000009004846040518263ffffffff167c01000000000000000000000000000000000000000000000000000000000281526004018082815260200191505060006040518083038160008761646e5a03f19250505015156109c957600080fd5b3373ffffffffffffffffffffffffffffffffffffffff167f3958bd6e9ec89cb936f5a97ee8cade87440c6927910fce4d0bd65c50b5cea1ef8585604051808373ffffffffffffffffffffffffffffffffffffffff1673ffffffffffffffffffffffffffffffffffffffff1681526020018281526020019250505060405180910390a2600191505092915050565b600160009054906101000a900473ffffffffffffffffffffffffffffffffffffffff1681565b6040805190810160405280600581526020017f312e302e3000000000000000000000000000000000000000000000000000000081525081565b610abd610dcd565b610ac5610dcd565b60008651604051805910610ad65750595b90808252806020026020018201604052509150600090505b8651811015610dc0576000809054906101000a900473ffffffffffffffffffffffffffffffffffffffff1630336040805190810160405280600581526020017f312e302e30000000000000000000000000000000000000000000000000000000815250898b86815181101515610b6057fe5b906020019060200201518a8a600160009054906101000a900473ffffffffffffffffffffffffffffffffffffffff16610b97610de1565b808a73ffffffffffffffffffffffffffffffffffffffff1673ffffffffffffffffffffffffffffffffffffffff1681526020018973ffffffffffffffffffffffffffffffffffffffff1673ffffffffffffffffffffffffffffffffffffffff1681526020018873ffffffffffffffffffffffffffffffffffffffff1673ffffffffffffffffffffffffffffffffffffffff16815260200180602001806020018781526020018681526020018581526020018473ffffffffffffffffffffffffffffffffffffffff1673ffffffffffffffffffffffffffffffffffffffff168152602001838103835289818151815260200191508051906020019080838360005b83811015610cb2578082015181840152602081019050610c97565b50505050905090810190601f168015610cdf5780820380516001836020036101000a031916815260200191505b50838103825288818151815260200191508051906020019080838360005b83811015610d18578082015181840152602081019050610cfd565b50505050905090810190601f168015610d455780820380516001836020036101000a031916815260200191505b509b505050505050505050505050604051809103906000f0801515610d6957600080fd5b8282815181101515610d7757fe5b9060200190602002019073ffffffffffffffffffffffffffffffffffffffff16908173ffffffffffffffffffffffffffffffffffffffff16815250508080600101915050610aee565b8192505050949350505050565b602060405190810160405280600081525090565b604051610d9180610df28339019056006060604052341561000f57600080fd5b604051610d91380380610d918339810160405280805190602001909190805190602001909190805190602001909190805182019190602001805182019190602001805190602001909190805190602001909190805190602001909190805190602001909190505088600d60016101000a81548173ffffffffffffffffffffffffffffffffffffffff021916908373ffffffffffffffffffffffffffffffffffffffff16021790555087600160006101000a81548173ffffffffffffffffffffffffffffffffffffffff021916908373ffffffffffffffffffffffffffffffffffffffff160217905550866000806101000a81548173ffffffffffffffffffffffffffffffffffffffff021916908373ffffffffffffffffffffffffffffffffffffffff160217905550856007908051906020019061014e9291906101f6565b5084600290805190602001906101659291906101f6565b508360038190555082600481905550816005819055506000600d60006101000a81548160ff0219169083600681111561019a57fe5b02179055506000600a8190555080600960006101000a81548173ffffffffffffffffffffffffffffffffffffffff021916908373ffffffffffffffffffffffffffffffffffffffff16021790555050505050505050505061029b565b828054600181600116156101000203166002900490600052602060002090601f016020900481019282601f1061023757805160ff1916838001178555610265565b82800160010185558215610265579182015b82811115610264578251825591602001919060010190610249565b5b5090506102729190610276565b5090565b61029891905b8082111561029457600081600090555060010161027c565b5090565b90565b610ae7806102aa6000396000f3006060604052600436106100d0576000357c0100000000000000000000000000000000000000000000000000000000900463ffffffff1680631b4a044d1461013f5780631e0018d614610168578063200d2ed2146101bd5780632ae9c600146101f45780633951d06b146102825780633fa4f245146102d75780635c222bad146103005780638ac48191146104985780638ce74426146104c15780638da5cb5b14610516578063a13b9b1f1461056b578063e5a6b10f14610594578063f771ac0114610622578063fc0c546a1461064b575b600d60019054906101000a900473ffffffffffffffffffffffffffffffffffffffff1673ffffffffffffffffffffffffffffffffffffffff16600036604051808383808284378201915050925050506000604051808303818561646e5a03f4915050151561013d57600080fd5b005b341561014a57600080fd5b6101526106a0565b6040518082815260200191505060405180910390f35b341561017357600080fd5b61017b6106a6565b604051808273ffffffffffffffffffffffffffffffffffffffff1673ffffffffffffffffffffffffffffffffffffffff16815260200191505060405180910390f35b34156101c857600080fd5b6101d06106cc565b604051808260068111156101e057fe5b60ff16815260200191505060405180910390f35b34156101ff57600080fd5b6102076106df565b6040518080602001828103825283818151815260200191508051906020019080838360005b8381101561024757808201518184015260208101905061022c565b50505050905090810190601f1680156102745780820380516001836020036101000a031916815260200191505b509250505060405180910390f35b341561028d57600080fd5b61029561077d565b604051808273ffffffffffffffffffffffffffffffffffffffff1673ffffffffffffffffffffffffffffffffffffffff16815260200191505060405180910390f35b34156102e257600080fd5b6102ea6107a3565b6040518082815260200191505060405180910390f35b341561030b57600080fd5b6103136107a9565b604051808b73ffffffffffffffffffffffffffffffffffffffff1673ffffffffffffffffffffffffffffffffffffffff168152602001806020018a815260200189815260200188815260200187600681111561036b57fe5b60ff1681526020018673ffffffffffffffffffffffffffffffffffffffff1673ffffffffffffffffffffffffffffffffffffffff1681526020018060200185815260200184815260200183810383528c818151815260200191508051906020019080838360005b838110156103ed5780820151818401526020810190506103d2565b50505050905090810190601f16801561041a5780820380516001836020036101000a031916815260200191505b50838103825286818151815260200191508051906020019080838360005b83811015610453578082015181840152602081019050610438565b50505050905090810190601f1680156104805780820380516001836020036101000a031916815260200191505b509c5050505050505050505050505060405180910390f35b34156104a357600080fd5b6104ab610986565b6040518082815260200191505060405180910390f35b34156104cc57600080fd5b6104d461098c565b604051808273ffffffffffffffffffffffffffffffffffffffff1673ffffffffffffffffffffffffffffffffffffffff16815260200191505060405180910390f35b341561052157600080fd5b6105296109b2565b604051808273ffffffffffffffffffffffffffffffffffffffff1673ffffffffffffffffffffffffffffffffffffffff16815260200191505060405180910390f35b341561057657600080fd5b61057e6109d7565b6040518082815260200191505060405180910390f35b341561059f57600080fd5b6105a76109dd565b6040518080602001828103825283818151815260200191508051906020019080838360005b838110156105e75780820151818401526020810190506105cc565b50505050905090810190601f1680156106145780820380516001836020036101000a031916815260200191505b509250505060405180910390f35b341561062d57600080fd5b610635610a7b565b6040518082815260200191505060405180910390f35b341561065657600080fd5b61065e610a81565b604051808273ffffffffffffffffffffffffffffffffffffffff1673ffffffffffffffffffffffffffffffffffffffff16815260200191505060405180910390f35b60055481565b600660009054906101000a900473ffffffffffffffffffffffffffffffffffffffff1681565b600d60009054906101000a900460ff1681565b60078054600181600116156101000203166002900480601f0160208091040260200160405190810160405280929190818152602001828054600181600116156101000203166002900480156107755780601f1061074a57610100808354040283529160200191610775565b820191906000526020600020905b81548152906001019060200180831161075857829003601f168201915b505050505081565b600d60019054906101000a900473ffffffffffffffffffffffffffffffffffffffff1681565b60035481565b60006107b3610aa7565b60008060008060006107c3610aa7565b6000806000809054906101000a900473ffffffffffffffffffffffffffffffffffffffff166002600354600454600554600d60009054906101000a900460ff16600660009054906101000a900473ffffffffffffffffffffffffffffffffffffffff166007600854600a54888054600181600116156101000203166002900480601f0160208091040260200160405190810160405280929190818152602001828054600181600116156101000203166002900480156108c35780601f10610898576101008083540402835291602001916108c3565b820191906000526020600020905b8154815290600101906020018083116108a657829003601f168201915b50505050509850828054600181600116156101000203166002900480601f01602080910402602001604051908101604052809291908181526020018280546001816001161561010002031660029004801561095f5780601f106109345761010080835404028352916020019161095f565b820191906000526020600020905b81548152906001019060200180831161094257829003601f168201915b50505050509250995099509950995099509950995099509950995090919293949596979899565b60085481565b600160009054906101000a900473ffffffffffffffffffffffffffffffffffffffff1681565b6000809054906101000a900473ffffffffffffffffffffffffffffffffffffffff1681565b60045481565b60028054600181600116156101000203166002900480601f016020809104026020016040519081016040528092919081815260200182805460018160011615610100020316600290048015610a735780601f10610a4857610100808354040283529160200191610a73565b820191906000526020600020905b815481529060010190602001808311610a5657829003601f168201915b505050505081565b600a5481565b600960009054906101000a900473ffffffffffffffffffffffffffffffffffffffff1681565b6020604051908101604052806000815250905600a165627a7a7230582008161fbb95c6d02bef38805e04cb739fb57b7f029f6303a4c9c6a16790cdabab0029a165627a7a723058208a97f5039bf27304935696d0f24d380801eff4ff8f48e11bf9c154eb344679690029",
  "source": "pragma solidity ^0.4.18;\n\nimport './investment/InvestmentAsset.sol';\n\ncontract SwapyExchange {\n\n  // Protocol version\n  string constant public VERSION = \"1.0.0\";\n  address public assetLibrary;\n  address public token;\n\n  event Offers(\n    address indexed _from,\n    string _protocolVersion,\n    address[] _assets\n  );\n\n  event Investments(\n    address indexed _investor,\n    address[] _assets,\n    uint256 _value\n  );\n\n  event ForSale(\n    address indexed _investor,\n    address _asset,\n    uint256 _value\n  );\n\n  event Bought(\n    address indexed _buyer,\n    address _asset,\n    uint256 _value\n  );\n\n  function SwapyExchange(address _assetLibrary, address _token)\n    public\n  {\n    assetLibrary = _assetLibrary;\n    token = _token;\n  }\n\n  // Creates a new investment offer\n  function createOffer(\n      uint256 _paybackDays,\n      uint256 _grossReturn,\n      string _currency,\n      uint256[] _assets)\n    external\n    returns(bool)\n  {\n    address[] memory newAssets = createOfferAssets(_assets, _currency, _paybackDays, _grossReturn);\n    Offers(msg.sender, VERSION, newAssets);\n    return true;\n  }\n\n  function createOfferAssets(\n      uint256[] _assets,\n      string _currency,\n      uint _paybackDays,\n      uint _grossReturn)\n    internal\n    returns (address[])\n  {\n    address[] memory newAssets = new address[](_assets.length);\n    for (uint index = 0; index < _assets.length; index++) {\n      newAssets[index] = new InvestmentAsset(\n        assetLibrary,\n        this,\n        msg.sender,\n        VERSION,\n        _currency,\n        _assets[index],\n        _paybackDays,\n        _grossReturn,\n        token\n      );\n    }\n    return newAssets;\n  }\n\n  function invest(address[] _assets) payable\n    external\n    returns(bool)\n  {\n    uint256 assetValue = msg.value / _assets.length;\n    for (uint index = 0; index < _assets.length; index++) {\n      require(_assets[index].call.value(assetValue)(bytes4(keccak256(\"invest(address)\")), msg.sender));\n    }\n    Investments(msg.sender, _assets, msg.value);\n    return true;\n  }\n\n  function sellAsset(address _asset, uint256 _value)\n    external\n    returns(bool)\n  {\n    InvestmentAsset asset = InvestmentAsset(_asset);\n    require(msg.sender == asset.investor());\n    require(_asset.call(bytes4(keccak256(\"sell(uint256)\")), _value));\n    ForSale(msg.sender, _asset, _value);\n    return true;\n  }\n\n  function buyAsset(address _asset) payable\n    external\n    returns(bool)\n  {\n    uint256 assetValue = msg.value;\n    require(_asset.call.value(assetValue)(bytes4(keccak256(\"buy(address)\")), msg.sender));\n    Bought(msg.sender, _asset, msg.value);\n    return true;\n  }\n\n}\n",
  "sourcePath": "/home/icaro/workfolder/swapy-exchange-protocol/contracts/SwapyExchange.sol",
  "compiler": {
    "name": "solc",
    "version": "0.4.18+commit.9cf6e910.Emscripten.clang"
  },
  "schemaVersion": "1.0.1",
  "updatedAt": "2017-12-14T16:24:40.528Z"
}