{
  "contractName": "AssetLibrary",
  "abi": [
    {
      "constant": false,
      "inputs": [
        {
          "name": "_investor",
          "type": "address"
        }
      ],
      "name": "invest",
      "outputs": [
        {
          "name": "",
          "type": "bool"
        }
      ],
      "payable": true,
      "stateMutability": "payable",
      "type": "function"
    },
    {
      "constant": true,
      "inputs": [],
      "name": "grossReturn",
      "outputs": [
        {
          "name": "",
          "type": "uint256"
        }
      ],
      "payable": false,
      "stateMutability": "view",
      "type": "function"
    },
    {
      "constant": true,
      "inputs": [],
      "name": "investor",
      "outputs": [
        {
          "name": "",
          "type": "address"
        }
      ],
      "payable": false,
      "stateMutability": "view",
      "type": "function"
    },
    {
      "constant": true,
      "inputs": [],
      "name": "status",
      "outputs": [
        {
          "name": "",
          "type": "uint8"
        }
      ],
      "payable": false,
      "stateMutability": "view",
      "type": "function"
    },
    {
      "constant": false,
      "inputs": [],
      "name": "withdrawFunds",
      "outputs": [
        {
          "name": "",
          "type": "bool"
        }
      ],
      "payable": false,
      "stateMutability": "nonpayable",
      "type": "function"
    },
    {
      "constant": true,
      "inputs": [],
      "name": "protocolVersion",
      "outputs": [
        {
          "name": "",
          "type": "string"
        }
      ],
      "payable": false,
      "stateMutability": "view",
      "type": "function"
    },
    {
      "constant": false,
      "inputs": [],
      "name": "cancelSellOrder",
      "outputs": [
        {
          "name": "",
          "type": "bool"
        }
      ],
      "payable": false,
      "stateMutability": "nonpayable",
      "type": "function"
    },
    {
      "constant": true,
      "inputs": [],
      "name": "value",
      "outputs": [
        {
          "name": "",
          "type": "uint256"
        }
      ],
      "payable": false,
      "stateMutability": "view",
      "type": "function"
    },
    {
      "constant": false,
      "inputs": [],
      "name": "returnInvestment",
      "outputs": [
        {
          "name": "",
          "type": "bool"
        }
      ],
      "payable": true,
      "stateMutability": "payable",
      "type": "function"
    },
    {
      "constant": false,
      "inputs": [],
      "name": "acceptSale",
      "outputs": [
        {
          "name": "",
          "type": "bool"
        }
      ],
      "payable": false,
      "stateMutability": "nonpayable",
      "type": "function"
    },
    {
      "constant": true,
      "inputs": [],
      "name": "investedAt",
      "outputs": [
        {
          "name": "",
          "type": "uint256"
        }
      ],
      "payable": false,
      "stateMutability": "view",
      "type": "function"
    },
    {
      "constant": true,
      "inputs": [],
      "name": "protocol",
      "outputs": [
        {
          "name": "",
          "type": "address"
        }
      ],
      "payable": false,
      "stateMutability": "view",
      "type": "function"
    },
    {
      "constant": true,
      "inputs": [],
      "name": "owner",
      "outputs": [
        {
          "name": "",
          "type": "address"
        }
      ],
      "payable": false,
      "stateMutability": "view",
      "type": "function"
    },
    {
      "constant": false,
      "inputs": [],
      "name": "cancelInvestment",
      "outputs": [
        {
          "name": "",
          "type": "bool"
        }
      ],
      "payable": false,
      "stateMutability": "nonpayable",
      "type": "function"
    },
    {
      "constant": true,
      "inputs": [],
      "name": "paybackDays",
      "outputs": [
        {
          "name": "",
          "type": "uint256"
        }
      ],
      "payable": false,
      "stateMutability": "view",
      "type": "function"
    },
    {
      "constant": false,
      "inputs": [
        {
          "name": "_amount",
          "type": "uint256"
        }
      ],
      "name": "supplyFuel",
      "outputs": [
        {
          "name": "",
          "type": "bool"
        }
      ],
      "payable": false,
      "stateMutability": "nonpayable",
      "type": "function"
    },
    {
      "constant": false,
      "inputs": [
        {
          "name": "_amount",
          "type": "uint256"
        }
      ],
      "name": "refuseSale",
      "outputs": [
        {
          "name": "",
          "type": "bool"
        }
      ],
      "payable": false,
      "stateMutability": "nonpayable",
      "type": "function"
    },
    {
      "constant": false,
      "inputs": [
        {
          "name": "_sellValue",
          "type": "uint256"
        }
      ],
      "name": "sell",
      "outputs": [
        {
          "name": "",
          "type": "bool"
        }
      ],
      "payable": false,
      "stateMutability": "nonpayable",
      "type": "function"
    },
    {
      "constant": true,
      "inputs": [
        {
          "name": "_sellValue",
          "type": "uint256"
        }
      ],
      "name": "currency",
      "outputs": [
        {
          "name": "",
          "type": "string"
        }
      ],
      "payable": false,
      "stateMutability": "view",
      "type": "function"
    },
    {
      "constant": false,
      "inputs": [],
      "name": "cancelSale",
      "outputs": [
        {
          "name": "",
          "type": "bool"
        }
      ],
      "payable": false,
      "stateMutability": "nonpayable",
      "type": "function"
    },
    {
      "constant": false,
      "inputs": [
        {
          "name": "_buyer",
          "type": "address"
        }
      ],
      "name": "buy",
      "outputs": [
        {
          "name": "",
          "type": "bool"
        }
      ],
      "payable": true,
      "stateMutability": "payable",
      "type": "function"
    },
    {
      "constant": false,
      "inputs": [
        {
          "name": "_buyer",
          "type": "address"
        }
      ],
      "name": "requireTokenFuel",
      "outputs": [
        {
          "name": "",
          "type": "bool"
        }
      ],
      "payable": false,
      "stateMutability": "nonpayable",
      "type": "function"
    },
    {
      "constant": true,
      "inputs": [],
      "name": "tokenFuel",
      "outputs": [
        {
          "name": "",
          "type": "uint256"
        }
      ],
      "payable": false,
      "stateMutability": "view",
      "type": "function"
    },
    {
      "constant": true,
      "inputs": [],
      "name": "token",
      "outputs": [
        {
          "name": "",
          "type": "address"
        }
      ],
      "payable": false,
      "stateMutability": "view",
      "type": "function"
    },
    {
      "constant": false,
      "inputs": [],
      "name": "refuseInvestment",
      "outputs": [
        {
          "name": "",
          "type": "bool"
        }
      ],
      "payable": false,
      "stateMutability": "nonpayable",
      "type": "function"
    },
    {
      "constant": false,
      "inputs": [
        {
          "indexed": false,
          "name": "_owner",
          "type": "address"
        },
        {
          "indexed": false,
          "name": "_investor",
          "type": "address"
        },
        {
          "indexed": false,
          "name": "_value",
          "type": "uint256"
        }
      ],
      "name": "Invested",
      "outputs": [
        {
          "name": "",
          "type": "bool"
        }
      ],
      "payable": false,
      "stateMutability": "nonpayable",
      "type": "event",
      "anonymous": false
    },
    {
      "anonymous": false,
      "inputs": [
        {
          "indexed": false,
          "name": "_owner",
          "type": "address"
        },
        {
          "indexed": false,
          "name": "_investor",
          "type": "address"
        },
        {
          "indexed": false,
          "name": "_value",
          "type": "uint256"
        }
      ],
      "name": "Canceled",
      "type": "event"
    },
    {
      "anonymous": false,
      "inputs": [
        {
          "indexed": false,
          "name": "_owner",
          "type": "address"
        },
        {
          "indexed": false,
          "name": "_investor",
          "type": "address"
        },
        {
          "indexed": false,
          "name": "_value",
          "type": "uint256"
        }
      ],
      "name": "Withdrawal",
      "type": "event"
    },
    {
      "anonymous": false,
      "inputs": [
        {
          "indexed": false,
          "name": "_owner",
          "type": "address"
        },
        {
          "indexed": false,
          "name": "_investor",
          "type": "address"
        },
        {
          "indexed": false,
          "name": "_value",
          "type": "uint256"
        }
      ],
      "name": "Refused",
      "type": "event"
    },
    {
      "anonymous": false,
      "inputs": [
        {
          "indexed": false,
          "name": "_owner",
          "type": "address"
        },
        {
          "indexed": false,
          "name": "_investor",
          "type": "address"
        },
        {
          "indexed": false,
          "name": "_value",
          "type": "uint256"
        },
        {
          "indexed": false,
          "name": "_delayed",
          "type": "bool"
        }
      ],
      "name": "Returned",
      "type": "event"
    },
    {
      "anonymous": false,
      "inputs": [
        {
          "indexed": false,
          "name": "_owner",
          "type": "address"
        },
        {
          "indexed": false,
          "name": "_amount",
          "type": "uint256"
        },
        {
          "indexed": false,
          "name": "_assetFuel",
          "type": "uint256"
        },
        {
          "indexed": false,
          "name": "_delayed",
          "type": "bool"
        }
      ],
      "name": "Supplied",
      "type": "event"
    },
    {
      "anonymous": false,
      "inputs": [
        {
          "indexed": false,
          "name": "_to",
          "type": "address"
        },
        {
          "indexed": false,
          "name": "_amount",
          "type": "uint256"
        },
        {
          "indexed": false,
          "name": "_assetFuel",
          "type": "uint256"
        }
      ],
      "name": "TokenWithdrawal",
      "type": "event"
    },
    {
      "anonymous": false,
      "inputs": [
        {
          "indexed": false,
          "name": "_investor",
          "type": "address"
        },
        {
          "indexed": false,
          "name": "_value",
          "type": "uint256"
        }
      ],
      "name": "ForSale",
      "type": "event"
    },
    {
      "anonymous": false,
      "inputs": [
        {
          "indexed": false,
          "name": "_investor",
          "type": "address"
        },
        {
          "indexed": false,
          "name": "_value",
          "type": "uint256"
        }
      ],
      "name": "CanceledSell",
      "type": "event"
    },
    {
      "anonymous": false,
      "inputs": [
        {
          "indexed": false,
          "name": "_investor",
          "type": "address"
        },
        {
          "indexed": false,
          "name": "_value",
          "type": "uint256"
        }
      ],
      "name": "CanceledSell",
      "type": "event"
    }
  ],
  "bytecode": "0x6060604052341561000f57600080fd5b6125868061001e6000396000f300606060405260043610610149576000357c0100000000000000000000000000000000000000000000000000000000900463ffffffff16806303f9c7931461014e5780631b4a044d146101945780631e0018d6146101bd578063200d2ed21461021257806324600fc3146102495780632ae9c6001461027657806339b50688146103045780633fa4f2451461033157806340ac89a21461035a57806340b6290f1461037c5780638ac48191146103a95780638ce74426146103d25780638da5cb5b1461042757806394f8e9541461047c578063a13b9b1f146104a9578063a918c09c146104d2578063b08c9bd11461050d578063e4849b321461053a578063e5a6b10f14610575578063e7e1049014610603578063f088d54714610630578063f2c3e6d914610676578063f771ac01146106a3578063fc0c546a146106cc578063fcc36c4914610721575b600080fd5b61017a600480803573ffffffffffffffffffffffffffffffffffffffff1690602001909190505061074e565b604051808215151515815260200191505060405180910390f35b341561019f57600080fd5b6101a76108f0565b6040518082815260200191505060405180910390f35b34156101c857600080fd5b6101d06108f6565b604051808273ffffffffffffffffffffffffffffffffffffffff1673ffffffffffffffffffffffffffffffffffffffff16815260200191505060405180910390f35b341561021d57600080fd5b61022561091c565b6040518082600681111561023557fe5b60ff16815260200191505060405180910390f35b341561025457600080fd5b61025c61092f565b604051808215151515815260200191505060405180910390f35b341561028157600080fd5b610289610b49565b6040518080602001828103825283818151815260200191508051906020019080838360005b838110156102c95780820151818401526020810190506102ae565b50505050905090810190601f1680156102f65780820380516001836020036101000a031916815260200191505b509250505060405180910390f35b341561030f57600080fd5b610317610be7565b604051808215151515815260200191505060405180910390f35b341561033c57600080fd5b610344610d95565b6040518082815260200191505060405180910390f35b610362610d9b565b604051808215151515815260200191505060405180910390f35b341561038757600080fd5b61038f61102d565b604051808215151515815260200191505060405180910390f35b34156103b457600080fd5b6103bc61133c565b6040518082815260200191505060405180910390f35b34156103dd57600080fd5b6103e5611342565b604051808273ffffffffffffffffffffffffffffffffffffffff1673ffffffffffffffffffffffffffffffffffffffff16815260200191505060405180910390f35b341561043257600080fd5b61043a611368565b604051808273ffffffffffffffffffffffffffffffffffffffff1673ffffffffffffffffffffffffffffffffffffffff16815260200191505060405180910390f35b341561048757600080fd5b61048f61138d565b604051808215151515815260200191505060405180910390f35b34156104b457600080fd5b6104bc6114f6565b6040518082815260200191505060405180910390f35b34156104dd57600080fd5b6104f360048080359060200190919050506114fc565b604051808215151515815260200191505060405180910390f35b341561051857600080fd5b610520611729565b604051808215151515815260200191505060405180910390f35b341561054557600080fd5b61055b60048080359060200190919050506119ca565b604051808215151515815260200191505060405180910390f35b341561058057600080fd5b610588611b55565b6040518080602001828103825283818151815260200191508051906020019080838360005b838110156105c85780820151818401526020810190506105ad565b50505050905090810190601f1680156105f55780820380516001836020036101000a031916815260200191505b509250505060405180910390f35b341561060e57600080fd5b610616611bf3565b604051808215151515815260200191505060405180910390f35b61065c600480803573ffffffffffffffffffffffffffffffffffffffff16906020019091905050611e97565b604051808215151515815260200191505060405180910390f35b341561068157600080fd5b610689611ffe565b604051808215151515815260200191505060405180910390f35b34156106ae57600080fd5b6106b66120d5565b6040518082815260200191505060405180910390f35b34156106d757600080fd5b6106df6120db565b604051808273ffffffffffffffffffffffffffffffffffffffff1673ffffffffffffffffffffffffffffffffffffffff16815260200191505060405180910390f35b341561072c57600080fd5b610734612101565b604051808215151515815260200191505060405180910390f35b60008080600681111561075d57fe5b600d60009054906101000a900460ff16600681111561077857fe5b14151561078157fe5b82600660006101000a81548173ffffffffffffffffffffffffffffffffffffffff021916908373ffffffffffffffffffffffffffffffffffffffff160217905550426008819055506001600d60006101000a81548160ff021916908360068111156107e857fe5b02179055507faddfb37e33a1976f4125989f1e8869258d15590c4782f2c44ca2e443231092426000809054906101000a900473ffffffffffffffffffffffffffffffffffffffff16600660009054906101000a900473ffffffffffffffffffffffffffffffffffffffff163073ffffffffffffffffffffffffffffffffffffffff1631604051808473ffffffffffffffffffffffffffffffffffffffff1673ffffffffffffffffffffffffffffffffffffffff1681526020018373ffffffffffffffffffffffffffffffffffffffff1673ffffffffffffffffffffffffffffffffffffffff168152602001828152602001935050505060405180910390a16001915050919050565b60055481565b600660009054906101000a900473ffffffffffffffffffffffffffffffffffffffff1681565b600d60009054906101000a900460ff1681565b6000806000809054906101000a900473ffffffffffffffffffffffffffffffffffffffff1673ffffffffffffffffffffffffffffffffffffffff163373ffffffffffffffffffffffffffffffffffffffff1614151561098d57600080fd5b600180600681111561099b57fe5b600d60009054906101000a900460ff1660068111156109b657fe5b1415156109bf57fe5b3073ffffffffffffffffffffffffffffffffffffffff163191506000809054906101000a900473ffffffffffffffffffffffffffffffffffffffff1673ffffffffffffffffffffffffffffffffffffffff166108fc839081150290604051600060405180830381858888f193505050501515610a3a57600080fd5b6002600d60006101000a81548160ff02191690836006811115610a5957fe5b02179055507f2717ead6b9200dd235aad468c9809ea400fe33ac69b5bfaa6d3e90fc922b63986000809054906101000a900473ffffffffffffffffffffffffffffffffffffffff16600660009054906101000a900473ffffffffffffffffffffffffffffffffffffffff1684604051808473ffffffffffffffffffffffffffffffffffffffff1673ffffffffffffffffffffffffffffffffffffffff1681526020018373ffffffffffffffffffffffffffffffffffffffff1673ffffffffffffffffffffffffffffffffffffffff168152602001828152602001935050505060405180910390a160019250505090565b60078054600181600116156101000203166002900480601f016020809104026020016040519081016040528092919081815260200182805460018160011615610100020316600290048015610bdf5780601f10610bb457610100808354040283529160200191610bdf565b820191906000526020600020905b815481529060010190602001808311610bc257829003601f168201915b505050505081565b6000600660009054906101000a900473ffffffffffffffffffffffffffffffffffffffff1673ffffffffffffffffffffffffffffffffffffffff163373ffffffffffffffffffffffffffffffffffffffff161480610c925750600160009054906101000a900473ffffffffffffffffffffffffffffffffffffffff1673ffffffffffffffffffffffffffffffffffffffff163373ffffffffffffffffffffffffffffffffffffffff16145b1515610c9d57600080fd5b6003806006811115610cab57fe5b600d60009054906101000a900460ff166006811115610cc657fe5b141515610ccf57fe5b6000600b600001819055506002600d60006101000a81548160ff02191690836006811115610cf957fe5b02179055507ff4da5a9400c6658aa44bacc8fe6cad78c3f6136fc8f25e78685a3875ec41c239600660009054906101000a900473ffffffffffffffffffffffffffffffffffffffff16600354604051808373ffffffffffffffffffffffffffffffffffffffff1673ffffffffffffffffffffffffffffffffffffffff1681526020018281526020019250505060405180910390a1600191505090565b60035481565b60008060008060009054906101000a900473ffffffffffffffffffffffffffffffffffffffff1673ffffffffffffffffffffffffffffffffffffffff163373ffffffffffffffffffffffffffffffffffffffff16141515610dfb57600080fd5b6002806006811115610e0957fe5b600d60009054906101000a900460ff166006811115610e2457fe5b141515610e2d57fe5b600660009054906101000a900473ffffffffffffffffffffffffffffffffffffffff1673ffffffffffffffffffffffffffffffffffffffff166108fc349081150290604051600060405180830381858888f193505050501515610e8f57600080fd5b610e97612269565b925082610ea5576005610ea8565b60065b600d60006101000a81548160ff02191690836006811115610ec557fe5b02179055506000600a541115610f355782610f01576000809054906101000a900473ffffffffffffffffffffffffffffffffffffffff16610f25565b600660009054906101000a900473ffffffffffffffffffffffffffffffffffffffff165b9150610f3382600a5461227e565b505b7f8e964350dc81427324d6a33199adce3b1068fc559d90c0a1ec576af3324974c76000809054906101000a900473ffffffffffffffffffffffffffffffffffffffff16600660009054906101000a900473ffffffffffffffffffffffffffffffffffffffff163486604051808573ffffffffffffffffffffffffffffffffffffffff1673ffffffffffffffffffffffffffffffffffffffff1681526020018473ffffffffffffffffffffffffffffffffffffffff1673ffffffffffffffffffffffffffffffffffffffff1681526020018381526020018215151515815260200194505050505060405180910390a16001935050505090565b6000806000600660009054906101000a900473ffffffffffffffffffffffffffffffffffffffff1673ffffffffffffffffffffffffffffffffffffffff163373ffffffffffffffffffffffffffffffffffffffff1614806110db5750600160009054906101000a900473ffffffffffffffffffffffffffffffffffffffff1673ffffffffffffffffffffffffffffffffffffffff163373ffffffffffffffffffffffffffffffffffffffff16145b15156110e657600080fd5b60048060068111156110f457fe5b600d60009054906101000a900460ff16600681111561110f57fe5b14151561111857fe5b600660009054906101000a900473ffffffffffffffffffffffffffffffffffffffff1692503073ffffffffffffffffffffffffffffffffffffffff163191508273ffffffffffffffffffffffffffffffffffffffff166108fc839081150290604051600060405180830381858888f19350505050151561119757600080fd5b6002600d60006101000a81548160ff021916908360068111156111b657fe5b0217905550600b60010160009054906101000a900473ffffffffffffffffffffffffffffffffffffffff16600660006101000a81548173ffffffffffffffffffffffffffffffffffffffff021916908373ffffffffffffffffffffffffffffffffffffffff1602179055506000600b60010160006101000a81548173ffffffffffffffffffffffffffffffffffffffff021916908373ffffffffffffffffffffffffffffffffffffffff1602179055506000600b600001819055507f2717ead6b9200dd235aad468c9809ea400fe33ac69b5bfaa6d3e90fc922b639883600660009054906101000a900473ffffffffffffffffffffffffffffffffffffffff1684604051808473ffffffffffffffffffffffffffffffffffffffff1673ffffffffffffffffffffffffffffffffffffffff1681526020018373ffffffffffffffffffffffffffffffffffffffff1673ffffffffffffffffffffffffffffffffffffffff168152602001828152602001935050505060405180910390a16001935050505090565b60085481565b600160009054906101000a900473ffffffffffffffffffffffffffffffffffffffff1681565b6000809054906101000a900473ffffffffffffffffffffffffffffffffffffffff1681565b6000806000600660009054906101000a900473ffffffffffffffffffffffffffffffffffffffff1673ffffffffffffffffffffffffffffffffffffffff163373ffffffffffffffffffffffffffffffffffffffff161415156113ee57600080fd5b60018060068111156113fc57fe5b600d60009054906101000a900460ff16600681111561141757fe5b14151561142057fe5b611428612406565b925092507f7a474a7438d5f1dd10b368d84960c99d45e011ac29f2f10d6acfbb1aa284cf496000809054906101000a900473ffffffffffffffffffffffffffffffffffffffff168484604051808473ffffffffffffffffffffffffffffffffffffffff1673ffffffffffffffffffffffffffffffffffffffff1681526020018373ffffffffffffffffffffffffffffffffffffffff1673ffffffffffffffffffffffffffffffffffffffff168152602001828152602001935050505060405180910390a16001935050505090565b60045481565b60008060009054906101000a900473ffffffffffffffffffffffffffffffffffffffff1673ffffffffffffffffffffffffffffffffffffffff163373ffffffffffffffffffffffffffffffffffffffff1614151561155957600080fd5b600080600681111561156757fe5b600d60009054906101000a900460ff16600681111561158257fe5b14151561158b57fe5b82600a5401600960009054906101000a900473ffffffffffffffffffffffffffffffffffffffff1673ffffffffffffffffffffffffffffffffffffffff166370a08231306000604051602001526040518263ffffffff167c0100000000000000000000000000000000000000000000000000000000028152600401808273ffffffffffffffffffffffffffffffffffffffff1673ffffffffffffffffffffffffffffffffffffffff168152602001915050602060405180830381600087803b151561165557600080fd5b6102c65a03f1151561166657600080fd5b5050506040518051905014151561167957fe5b82600a600082825401925050819055507f5c2c0d2616a06b35bb159b4d7e227972b59bb33f8d5229ca0e5e438259bfd5d36000809054906101000a900473ffffffffffffffffffffffffffffffffffffffff1684600a54604051808473ffffffffffffffffffffffffffffffffffffffff1673ffffffffffffffffffffffffffffffffffffffff168152602001838152602001828152602001935050505060405180910390a16001915050919050565b6000806000600660009054906101000a900473ffffffffffffffffffffffffffffffffffffffff1673ffffffffffffffffffffffffffffffffffffffff163373ffffffffffffffffffffffffffffffffffffffff1614806117d75750600160009054906101000a900473ffffffffffffffffffffffffffffffffffffffff1673ffffffffffffffffffffffffffffffffffffffff163373ffffffffffffffffffffffffffffffffffffffff16145b15156117e257600080fd5b60048060068111156117f057fe5b600d60009054906101000a900460ff16600681111561180b57fe5b14151561181457fe5b600b60010160009054906101000a900473ffffffffffffffffffffffffffffffffffffffff1692503073ffffffffffffffffffffffffffffffffffffffff163191508273ffffffffffffffffffffffffffffffffffffffff166108fc839081150290604051600060405180830381858888f19350505050151561189657600080fd5b6000600b60010160006101000a81548173ffffffffffffffffffffffffffffffffffffffff021916908373ffffffffffffffffffffffffffffffffffffffff1602179055506003600d60006101000a81548160ff021916908360068111156118fa57fe5b02179055507f6cd9f1a330d83b8c2346c1b5ef8e1fca8e368e77743e27bcd8eb2d20bafb01c6600660009054906101000a900473ffffffffffffffffffffffffffffffffffffffff168484604051808473ffffffffffffffffffffffffffffffffffffffff1673ffffffffffffffffffffffffffffffffffffffff1681526020018373ffffffffffffffffffffffffffffffffffffffff1673ffffffffffffffffffffffffffffffffffffffff168152602001828152602001935050505060405180910390a16001935050505090565b6000600660009054906101000a900473ffffffffffffffffffffffffffffffffffffffff1673ffffffffffffffffffffffffffffffffffffffff163373ffffffffffffffffffffffffffffffffffffffff161480611a755750600160009054906101000a900473ffffffffffffffffffffffffffffffffffffffff1673ffffffffffffffffffffffffffffffffffffffff163373ffffffffffffffffffffffffffffffffffffffff16145b1515611a8057600080fd5b6002806006811115611a8e57fe5b600d60009054906101000a900460ff166006811115611aa957fe5b141515611ab257fe5b82600b600001819055506003600d60006101000a81548160ff02191690836006811115611adb57fe5b02179055507fbdeee1f1fbccb405bb11b23aab22fce5084b092d5edb2c16a71dda656df59e873384604051808373ffffffffffffffffffffffffffffffffffffffff1673ffffffffffffffffffffffffffffffffffffffff1681526020018281526020019250505060405180910390a16001915050919050565b60028054600181600116156101000203166002900480601f016020809104026020016040519081016040528092919081815260200182805460018160011615610100020316600290048015611beb5780601f10611bc057610100808354040283529160200191611beb565b820191906000526020600020905b815481529060010190602001808311611bce57829003601f168201915b505050505081565b60008060006004806006811115611c0657fe5b600d60009054906101000a900460ff166006811115611c2157fe5b141515611c2a57fe5b600160009054906101000a900473ffffffffffffffffffffffffffffffffffffffff1673ffffffffffffffffffffffffffffffffffffffff163373ffffffffffffffffffffffffffffffffffffffff161480611cd65750600b60010160009054906101000a900473ffffffffffffffffffffffffffffffffffffffff1673ffffffffffffffffffffffffffffffffffffffff163373ffffffffffffffffffffffffffffffffffffffff16145b1515611ce157600080fd5b600b60010160009054906101000a900473ffffffffffffffffffffffffffffffffffffffff1692503073ffffffffffffffffffffffffffffffffffffffff163191508273ffffffffffffffffffffffffffffffffffffffff166108fc839081150290604051600060405180830381858888f193505050501515611d6357600080fd5b6000600b60010160006101000a81548173ffffffffffffffffffffffffffffffffffffffff021916908373ffffffffffffffffffffffffffffffffffffffff1602179055506003600d60006101000a81548160ff02191690836006811115611dc757fe5b02179055507f7a474a7438d5f1dd10b368d84960c99d45e011ac29f2f10d6acfbb1aa284cf49600660009054906101000a900473ffffffffffffffffffffffffffffffffffffffff168484604051808473ffffffffffffffffffffffffffffffffffffffff1673ffffffffffffffffffffffffffffffffffffffff1681526020018373ffffffffffffffffffffffffffffffffffffffff1673ffffffffffffffffffffffffffffffffffffffff168152602001828152602001935050505060405180910390a16001935050505090565b60006003806006811115611ea757fe5b600d60009054906101000a900460ff166006811115611ec257fe5b141515611ecb57fe5b82600b60010160006101000a81548173ffffffffffffffffffffffffffffffffffffffff021916908373ffffffffffffffffffffffffffffffffffffffff1602179055506004600d60006101000a81548160ff02191690836006811115611f2e57fe5b02179055507faddfb37e33a1976f4125989f1e8869258d15590c4782f2c44ca2e44323109242600660009054906101000a900473ffffffffffffffffffffffffffffffffffffffff168434604051808473ffffffffffffffffffffffffffffffffffffffff1673ffffffffffffffffffffffffffffffffffffffff1681526020018373ffffffffffffffffffffffffffffffffffffffff1673ffffffffffffffffffffffffffffffffffffffff168152602001828152602001935050505060405180910390a16001915050919050565b6000600660009054906101000a900473ffffffffffffffffffffffffffffffffffffffff1673ffffffffffffffffffffffffffffffffffffffff163373ffffffffffffffffffffffffffffffffffffffff1614151561205c57600080fd5b600280600681111561206a57fe5b600d60009054906101000a900460ff16600681111561208557fe5b14151561208e57fe5b612096612269565b15156120a157600080fd5b6120cf600660009054906101000a900473ffffffffffffffffffffffffffffffffffffffff16600a5461227e565b91505090565b600a5481565b600960009054906101000a900473ffffffffffffffffffffffffffffffffffffffff1681565b60008060008060009054906101000a900473ffffffffffffffffffffffffffffffffffffffff1673ffffffffffffffffffffffffffffffffffffffff163373ffffffffffffffffffffffffffffffffffffffff1614151561216157600080fd5b600180600681111561216f57fe5b600d60009054906101000a900460ff16600681111561218a57fe5b14151561219357fe5b61219b612406565b925092507f6cd9f1a330d83b8c2346c1b5ef8e1fca8e368e77743e27bcd8eb2d20bafb01c66000809054906101000a900473ffffffffffffffffffffffffffffffffffffffff168484604051808473ffffffffffffffffffffffffffffffffffffffff1673ffffffffffffffffffffffffffffffffffffffff1681526020018373ffffffffffffffffffffffffffffffffffffffff1673ffffffffffffffffffffffffffffffffffffffff168152602001828152602001935050505060405180910390a16001935050505090565b60006201518060045402600854014211905090565b600081600a541015151561228e57fe5b600960009054906101000a900473ffffffffffffffffffffffffffffffffffffffff1673ffffffffffffffffffffffffffffffffffffffff1663a9059cbb84846000604051602001526040518363ffffffff167c0100000000000000000000000000000000000000000000000000000000028152600401808373ffffffffffffffffffffffffffffffffffffffff1673ffffffffffffffffffffffffffffffffffffffff16815260200182815260200192505050602060405180830381600087803b151561235b57600080fd5b6102c65a03f1151561236c57600080fd5b50505060405180519050151561238157600080fd5b7feddb53e10e60b3a2396b4222b3db092137bdbf7a6fecceaf2b0b438ff0ddc66e8383604051808373ffffffffffffffffffffffffffffffffffffffff1673ffffffffffffffffffffffffffffffffffffffff1681526020018281526020019250505060405180910390a181600a600082825403925050819055506001905092915050565b600080600080600180600681111561241a57fe5b600d60009054906101000a900460ff16600681111561243557fe5b14151561243e57fe5b3073ffffffffffffffffffffffffffffffffffffffff16319250600660009054906101000a900473ffffffffffffffffffffffffffffffffffffffff1673ffffffffffffffffffffffffffffffffffffffff166108fc849081150290604051600060405180830381858888f1935050505015156124ba57600080fd5b600660009054906101000a900473ffffffffffffffffffffffffffffffffffffffff1691506000600660006101000a81548173ffffffffffffffffffffffffffffffffffffffff021916908373ffffffffffffffffffffffffffffffffffffffff1602179055506000600d60006101000a81548160ff0219169083600681111561254057fe5b0217905550600060088190555081839450945050505090915600a165627a7a72305820a429b00975c6d65e657afb39a5b4deee1d5433fca4c417d7fb7f16c6f6d47d3b0029",
  "source": "pragma solidity ^0.4.18;\n\nimport './AssetEvents.sol';\nimport '../token/Token.sol';\n\n// Defines methods and control modifiers for an investment\ncontract AssetLibrary is AssetEvents {\n\n    // Asset owner\n    address public owner;\n    // Protocol\n    address public protocol;\n    // Asset currency\n    string public currency;\n    // Asset fixed value\n    uint256 public value;\n    // period to return the investment\n    uint256 public paybackDays;\n    // Gross return of investment\n    uint256 public grossReturn;\n    // Asset buyer\n    address public investor;\n    // Protocol version\n    string public protocolVersion;\n    // investment timestamp\n    uint public investedAt;\n    \n    // asset fuel\n    Token public token;\n    uint256 public tokenFuel;\n    \n    // sell data\n    struct Sell {\n        uint256 value;\n        address buyer;  \n    }\n\n    Sell sellData;\n    \n    // possible stages of an asset\n    enum Status {\n        AVAILABLE,\n        PENDING_OWNER_AGREEMENT,\n        INVESTED,\n        FOR_SALE,\n        PENDING_INVESTOR_AGREEMENT,\n        RETURNED,\n        DELAYED_RETURN\n    }\n    Status public status;\n\n    // Checks the current asset's status\n    modifier hasStatus(Status _status) {\n        assert(status == _status);\n        _;\n    }\n\n    // Checks if the owner is the caller\n    modifier onlyOwner() {\n        require(msg.sender == owner);\n        _;\n    }\n\n    // Checks if the investor is the caller\n    modifier onlyInvestor() {\n        require(msg.sender == investor);\n        _;\n    }\n\n    // The asset can be selled by using the protocol or directly by the current investor\n    modifier authorizedToSell() {\n        require(msg.sender == investor || msg.sender == protocol);\n        _;\n    }\n\n    modifier onlyDelayed(){\n        require(isDelayed());\n        _;\n    }\n\n\n    function isDelayed()\n        view\n        internal\n        returns(bool)\n    {\n        return now > investedAt + paybackDays * 1 days;\n    }\n    \n    // Refund and remove the current investor and make the asset available for investments\n    function makeAvailable()\n        hasStatus(Status.PENDING_OWNER_AGREEMENT)\n        private\n        returns(address, uint256)\n    {\n        uint256 investedValue = this.balance;\n        investor.transfer(investedValue);\n        address currentInvestor = investor;\n        investor = address(0);\n        status = Status.AVAILABLE;\n        investedAt = uint(0);\n        return (currentInvestor, investedValue);\n    }\n\n    \n    function withdrawTokens(address _recipient, uint256 _amount)\n        private\n        returns(bool)\n    {\n        assert(tokenFuel >= _amount);\n        require(token.transfer(_recipient, _amount));\n        TokenWithdrawal(_recipient, _amount);\n        tokenFuel -= _amount;\n        return true;\n    }     \n\n    // Add investment interest in this asset and retain the funds within the smart contract\n    function invest(address _investor) payable\n         hasStatus(Status.AVAILABLE)\n         external\n         returns(bool)\n    {\n        investor = _investor;\n        investedAt = now;\n        status = Status.PENDING_OWNER_AGREEMENT;\n        Invested(owner, investor, this.balance);\n        return true;\n    }\n\n    // Cancel the pending investment\n    function cancelInvestment()\n        onlyInvestor\n        hasStatus(Status.PENDING_OWNER_AGREEMENT)\n        external\n        returns(bool)\n    {\n        var (currentInvestor, investedValue) = makeAvailable();\n        Canceled(owner, currentInvestor, investedValue);\n        return true;\n    }\n\n    // Accept the investor as the asset buyer and withdraw funds\n    function withdrawFunds()\n        onlyOwner\n        hasStatus(Status.PENDING_OWNER_AGREEMENT)\n        external\n        returns(bool)\n    {\n        uint256 _value = this.balance;\n        owner.transfer(_value);\n        status = Status.INVESTED;\n        Withdrawal(owner, investor, _value);\n        return true;\n    }\n\n    // Refuse the pending investment\n    function refuseInvestment()\n        onlyOwner\n        hasStatus(Status.PENDING_OWNER_AGREEMENT)\n        external\n        returns(bool)\n    {\n        var (currentInvestor, investedValue) = makeAvailable();\n        Refused(owner, currentInvestor, investedValue);\n        return true;\n    }\n\n    function sell(uint256 _sellValue) \n        authorizedToSell\n        hasStatus(Status.INVESTED)\n        external\n        returns(bool)\n    {\n        sellData.value = _sellValue;\n        status = Status.FOR_SALE;\n        ForSale(msg.sender, _sellValue);\n        return true;\n    }\n\n    function cancelSellOrder() \n        authorizedToSell\n        hasStatus(Status.FOR_SALE)\n        external\n        returns(bool)\n    {       \n        sellData.value = uint256(0);\n        status = Status.INVESTED;\n        CanceledSell(investor, value);\n        return true;\n    }\n\n    function buy(address _buyer) payable\n        hasStatus(Status.FOR_SALE)\n        external\n        returns(bool)\n    {\n        sellData.buyer = _buyer;\n        status = Status.PENDING_INVESTOR_AGREEMENT;\n        Invested(investor, _buyer, msg.value);\n        return true;\n    }\n\n     function cancelSale()\n        hasStatus(Status.PENDING_INVESTOR_AGREEMENT)\n        external\n        returns(bool)\n    {\n        require(msg.sender == protocol || msg.sender == sellData.buyer);\n        address buyer = sellData.buyer;\n        uint256 _value = this.balance;\n        buyer.transfer(_value);\n        sellData.buyer = address(0);\n        status = Status.FOR_SALE;\n        Canceled(investor, buyer, _value);\n        return true;\n    }\n\n    // Refunds asset's buyer and became available for sale again\n    function refuseSale()\n        authorizedToSell\n        hasStatus(Status.PENDING_INVESTOR_AGREEMENT)\n        external \n        returns(bool)\n    {\n        address buyer = sellData.buyer;\n        uint256 _value = this.balance;\n        buyer.transfer(_value);\n        sellData.buyer = address(0);\n        status = Status.FOR_SALE;\n        Refused(investor, buyer, _value);\n        return true;\n    }  \n\n    // Withdraw funds, clear the sell data and change investor's address\n    function acceptSale()\n        authorizedToSell\n        hasStatus(Status.PENDING_INVESTOR_AGREEMENT)\n        external\n        returns(bool)\n    {\n        address currentInvestor = investor;\n        uint256 _value = this.balance;\n        currentInvestor.transfer(_value);\n        status = Status.INVESTED;\n        investor = sellData.buyer;\n        sellData.buyer = address(0);\n        sellData.value = uint256(0);\n        Withdrawal(currentInvestor, investor, _value);\n        return true;\n    }      \n\n    function returnInvestment() payable\n        onlyOwner\n        hasStatus(Status.INVESTED)\n        external\n        returns(bool)\n    {\n        investor.transfer(msg.value);\n        bool _isDelayed = isDelayed();\n        status = _isDelayed ? Status.DELAYED_RETURN : Status.RETURNED;\n        if(tokenFuel > 0){\n            address recipient = _isDelayed ? investor : owner;          \n            withdrawTokens(recipient, tokenFuel);\n        }\n        Returned(owner, investor, msg.value, _isDelayed);\n        return true;\n    }\n\n    function supplyFuel(uint256 _amount)\n        onlyOwner\n        hasStatus(Status.AVAILABLE)\n        external\n        returns(bool)\n    {\n        assert(token.balanceOf(this) == tokenFuel + _amount);\n        tokenFuel += _amount;\n        Supplied(owner, _amount, tokenFuel);\n        return true; \n    }\n\n    function requireTokenFuel() \n        onlyInvestor\n        hasStatus(Status.INVESTED)\n        onlyDelayed\n        external\n        returns(bool)\n    {   \n        return withdrawTokens(investor, tokenFuel);\n    }\n\n}\n",
  "sourcePath": "/home/icaro/workfolder/swapy-exchange-protocol/contracts/investment/AssetLibrary.sol",
  "compiler": {
    "name": "solc",
    "version": "0.4.18+commit.9cf6e910.Emscripten.clang"
  },
  "schemaVersion": "1.0.1",
  "updatedAt": "2017-12-19T16:17:41.118Z"
}