{
  "contractName": "SwapyExchange",
  "abi": [
    {
      "constant": false,
      "inputs": [
        {
          "name": "_assets",
          "type": "address[]"
        }
      ],
      "name": "refuseInvestment",
      "outputs": [
        {
          "name": "",
          "type": "bool"
        }
      ],
      "payable": false,
      "stateMutability": "nonpayable",
      "type": "function"
    },
    {
      "constant": false,
      "inputs": [
        {
          "name": "_paybackDays",
          "type": "uint256"
        },
        {
          "name": "_grossReturn",
          "type": "uint256"
        },
        {
          "name": "_currency",
          "type": "string"
        },
        {
          "name": "_assets",
          "type": "uint256[]"
        }
      ],
      "name": "createOffer",
      "outputs": [
        {
          "name": "",
          "type": "bool"
        }
      ],
      "payable": false,
      "stateMutability": "nonpayable",
      "type": "function"
    },
    {
      "constant": true,
      "inputs": [],
      "name": "assetLibrary",
      "outputs": [
        {
          "name": "",
          "type": "address"
        }
      ],
      "payable": false,
      "stateMutability": "view",
      "type": "function"
    },
    {
      "constant": false,
      "inputs": [
        {
          "name": "_assets",
          "type": "address[]"
        }
      ],
      "name": "cancelSale",
      "outputs": [
        {
          "name": "",
          "type": "bool"
        }
      ],
      "payable": false,
      "stateMutability": "nonpayable",
      "type": "function"
    },
    {
      "constant": false,
      "inputs": [
        {
          "name": "_assets",
          "type": "address[]"
        },
        {
          "name": "_values",
          "type": "uint256[]"
        }
      ],
      "name": "sellAssets",
      "outputs": [
        {
          "name": "",
          "type": "bool"
        }
      ],
      "payable": false,
      "stateMutability": "nonpayable",
      "type": "function"
    },
    {
      "constant": false,
      "inputs": [
        {
          "name": "_asset",
          "type": "address"
        }
      ],
      "name": "buyAsset",
      "outputs": [
        {
          "name": "",
          "type": "bool"
        }
      ],
      "payable": true,
      "stateMutability": "payable",
      "type": "function"
    },
    {
      "constant": false,
      "inputs": [
        {
          "name": "_assets",
          "type": "address[]"
        }
      ],
      "name": "cancelInvestment",
      "outputs": [
        {
          "name": "",
          "type": "bool"
        }
      ],
      "payable": false,
      "stateMutability": "nonpayable",
      "type": "function"
    },
    {
      "constant": false,
      "inputs": [
        {
          "name": "_assets",
          "type": "address[]"
        },
        {
          "name": "value",
          "type": "uint256"
        }
      ],
      "name": "invest",
      "outputs": [
        {
          "name": "",
          "type": "bool"
        }
      ],
      "payable": true,
      "stateMutability": "payable",
      "type": "function"
    },
    {
      "constant": false,
      "inputs": [
        {
          "name": "_assets",
          "type": "address[]"
        }
      ],
      "name": "cancelSellOrder",
      "outputs": [
        {
          "name": "",
          "type": "bool"
        }
      ],
      "payable": false,
      "stateMutability": "nonpayable",
      "type": "function"
    },
    {
      "constant": false,
      "inputs": [
        {
          "name": "_assets",
          "type": "address[]"
        }
      ],
      "name": "refuseSale",
      "outputs": [
        {
          "name": "",
          "type": "bool"
        }
      ],
      "payable": false,
      "stateMutability": "nonpayable",
      "type": "function"
    },
    {
      "constant": false,
      "inputs": [
        {
          "name": "_assets",
          "type": "address[]"
        },
        {
          "name": "_values",
          "type": "uint256[]"
        }
      ],
      "name": "returnInvestment",
      "outputs": [
        {
          "name": "",
          "type": "bool"
        }
      ],
      "payable": true,
      "stateMutability": "payable",
      "type": "function"
    },
    {
      "constant": false,
      "inputs": [
        {
          "name": "_assets",
          "type": "address[]"
        }
      ],
      "name": "withdrawFunds",
      "outputs": [
        {
          "name": "",
          "type": "bool"
        }
      ],
      "payable": false,
      "stateMutability": "nonpayable",
      "type": "function"
    },
    {
      "constant": false,
      "inputs": [
        {
          "name": "_assets",
          "type": "address[]"
        }
      ],
      "name": "acceptSale",
      "outputs": [
        {
          "name": "",
          "type": "bool"
        }
      ],
      "payable": false,
      "stateMutability": "nonpayable",
      "type": "function"
    },
    {
      "constant": false,
      "inputs": [
        {
          "name": "_assets",
          "type": "address[]"
        }
      ],
      "name": "requireTokenFuel",
      "outputs": [
        {
          "name": "",
          "type": "bool"
        }
      ],
      "payable": false,
      "stateMutability": "nonpayable",
      "type": "function"
    },
    {
      "constant": true,
      "inputs": [],
      "name": "token",
      "outputs": [
        {
          "name": "",
          "type": "address"
        }
      ],
      "payable": false,
      "stateMutability": "view",
      "type": "function"
    },
    {
      "constant": true,
      "inputs": [],
      "name": "VERSION",
      "outputs": [
        {
          "name": "",
          "type": "string"
        }
      ],
      "payable": false,
      "stateMutability": "view",
      "type": "function"
    },
    {
      "inputs": [
        {
          "name": "_assetLibrary",
          "type": "address"
        },
        {
          "name": "_token",
          "type": "address"
        }
      ],
      "payable": false,
      "stateMutability": "nonpayable",
      "type": "constructor"
    },
    {
      "anonymous": false,
      "inputs": [
        {
          "indexed": true,
          "name": "_from",
          "type": "address"
        },
        {
          "indexed": false,
          "name": "_protocolVersion",
          "type": "string"
        },
        {
          "indexed": false,
          "name": "_assets",
          "type": "address[]"
        }
      ],
      "name": "Offers",
      "type": "event"
    },
    {
      "anonymous": false,
      "inputs": [
        {
          "indexed": true,
          "name": "_investor",
          "type": "address"
        },
        {
          "indexed": false,
          "name": "_assets",
          "type": "address[]"
        },
        {
          "indexed": false,
          "name": "_value",
          "type": "uint256"
        }
      ],
      "name": "Investments",
      "type": "event"
    },
    {
      "anonymous": false,
      "inputs": [
        {
          "indexed": true,
          "name": "_investor",
          "type": "address"
        },
        {
          "indexed": false,
          "name": "_asset",
          "type": "address"
        },
        {
          "indexed": false,
          "name": "_value",
          "type": "uint256"
        }
      ],
      "name": "ForSale",
      "type": "event"
    },
    {
      "anonymous": false,
      "inputs": [
        {
          "indexed": true,
          "name": "_buyer",
          "type": "address"
        },
        {
          "indexed": false,
          "name": "_asset",
          "type": "address"
        },
        {
          "indexed": false,
          "name": "_value",
          "type": "uint256"
        }
      ],
      "name": "Bought",
      "type": "event"
    },
    {
      "anonymous": false,
      "inputs": [
        {
          "indexed": true,
          "name": "_from",
          "type": "address"
        },
        {
          "indexed": false,
          "name": "_assets",
          "type": "address[]"
        },
        {
          "indexed": false,
          "name": "_values",
          "type": "uint256[]"
        },
        {
          "indexed": false,
          "name": "_value",
          "type": "uint256"
        }
      ],
      "name": "Returned",
      "type": "event"
    }
  ],
  "bytecode": "0x6060604052341561000f57600080fd5b60405160408061354883398101604052808051906020019091908051906020019091905050816000806101000a81548173ffffffffffffffffffffffffffffffffffffffff021916908373ffffffffffffffffffffffffffffffffffffffff16021790555080600160006101000a81548173ffffffffffffffffffffffffffffffffffffffff021916908373ffffffffffffffffffffffffffffffffffffffff1602179055505050613482806100c66000396000f300606060405260043610620000f7576000357c0100000000000000000000000000000000000000000000000000000000900463ffffffff16806308bfdd7614620000fc5780630d9049f214620001455780633951d06b14620001b457806342261ea4146200020c5780637f7fde8e146200025557806386bb5a4814620002b257806388f1ccf214620002fa57806393920e8f1462000343578063ae0b4edd1462000389578063de18dd1814620003d2578063e24a7b65146200041b578063ef42b5da146200046c578063f1765b2214620004b5578063f63cb8a314620004fe578063fc0c546a1462000547578063ffa1ad74146200059f575b600080fd5b34156200010857600080fd5b6200012b6004808035906020019082018035906020019190919290505062000633565b604051808215151515815260200191505060405180910390f35b34156200015157600080fd5b6200019a6004808035906020019091908035906020019091908035906020019082018035906020019190919290803590602001908201803590602001919091929050506200082b565b604051808215151515815260200191505060405180910390f35b3415620001c057600080fd5b620001ca620009ed565b604051808273ffffffffffffffffffffffffffffffffffffffff1673ffffffffffffffffffffffffffffffffffffffff16815260200191505060405180910390f35b34156200021857600080fd5b6200023b6004808035906020019082018035906020019190919290505062000a12565b604051808215151515815260200191505060405180910390f35b34156200026157600080fd5b6200029860048080359060200190820180359060200191909192908035906020019082018035906020019190919290505062000c15565b604051808215151515815260200191505060405180910390f35b620002e0600480803573ffffffffffffffffffffffffffffffffffffffff1690602001909190505062000f06565b604051808215151515815260200191505060405180910390f35b34156200030657600080fd5b62000329600480803590602001908201803590602001919091929050506200106b565b604051808215151515815260200191505060405180910390f35b6200036f6004808035906020019082018035906020019190919290803590602001909190505062001263565b604051808215151515815260200191505060405180910390f35b34156200039557600080fd5b620003b86004808035906020019082018035906020019190919290505062001477565b604051808215151515815260200191505060405180910390f35b3415620003de57600080fd5b62000401600480803590602001908201803590602001919091929050506200166f565b604051808215151515815260200191505060405180910390f35b6200045260048080359060200190820180359060200191909192908035906020019082018035906020019190919290505062001867565b604051808215151515815260200191505060405180910390f35b34156200047857600080fd5b6200049b6004808035906020019082018035906020019190919290505062001b78565b604051808215151515815260200191505060405180910390f35b3415620004c157600080fd5b620004e46004808035906020019082018035906020019190919290505062001d70565b604051808215151515815260200191505060405180910390f35b34156200050a57600080fd5b6200052d6004808035906020019082018035906020019190919290505062001f68565b604051808215151515815260200191505060405180910390f35b34156200055357600080fd5b6200055d62002160565b604051808273ffffffffffffffffffffffffffffffffffffffff1673ffffffffffffffffffffffffffffffffffffffff16815260200191505060405180910390f35b3415620005ab57600080fd5b620005b562002186565b6040518080602001828103825283818151815260200191508051906020019080838360005b83811015620005f7578082015181840152602081019050620005da565b50505050905090810190601f168015620006255780820380516001836020036101000a031916815260200191505b509250505060405180910390f35b6000806000848480806020026020016040519081016040528093929190818152602001838360200280828437820191505050505050600081511115156200067957600080fd5b600092505b858590508310156200081e5785858481811015156200069957fe5b9050602002013573ffffffffffffffffffffffffffffffffffffffff1691508173ffffffffffffffffffffffffffffffffffffffff16638da5cb5b6000604051602001526040518163ffffffff167c0100000000000000000000000000000000000000000000000000000000028152600401602060405180830381600087803b15156200072557600080fd5b6102c65a03f115156200073757600080fd5b5050506040518051905073ffffffffffffffffffffffffffffffffffffffff163373ffffffffffffffffffffffffffffffffffffffff161415156200077b57600080fd5b8173ffffffffffffffffffffffffffffffffffffffff1663fcc36c496000604051602001526040518163ffffffff167c0100000000000000000000000000000000000000000000000000000000028152600401602060405180830381600087803b1515620007e857600080fd5b6102c65a03f11515620007fa57600080fd5b5050506040518051905015156200081057600080fd5b82806001019350506200067e565b6001935050505092915050565b60006200083762002547565b620008a684848080602002602001604051908101604052809392919081815260200183836020028082843782019150505050505087878080601f0160208091040260200160405190810160405280939291908181526020018383808284378201915050505050508a8a620021bf565b90503373ffffffffffffffffffffffffffffffffffffffff167f38a3b172767ecb07a19d1357d8108fd759fac3ac495e789aa4408de6a650e3846040805190810160405280600581526020017f312e302e3000000000000000000000000000000000000000000000000000000081525083604051808060200180602001838103835285818151815260200191508051906020019080838360005b838110156200095d57808201518184015260208101905062000940565b50505050905090810190601f1680156200098b5780820380516001836020036101000a031916815260200191505b50838103825284818151815260200191508051906020019060200280838360005b83811015620009c9578082015181840152602081019050620009ac565b5050505090500194505050505060405180910390a260019150509695505050505050565b6000809054906101000a900473ffffffffffffffffffffffffffffffffffffffff1681565b6000806000808585808060200260200160405190810160405280939291908181526020018383602002808284378201915050505050506000815111151562000a5957600080fd5b600093505b8686905084101562000c0757868685818110151562000a7957fe5b9050602002013573ffffffffffffffffffffffffffffffffffffffff1692508273ffffffffffffffffffffffffffffffffffffffff1663cb7369606000604051604001526040518163ffffffff167c01000000000000000000000000000000000000000000000000000000000281526004016040805180830381600087803b151562000b0457600080fd5b6102c65a03f1151562000b1657600080fd5b505050604051805190602001805190509250508173ffffffffffffffffffffffffffffffffffffffff163373ffffffffffffffffffffffffffffffffffffffff1614151562000b6457600080fd5b8273ffffffffffffffffffffffffffffffffffffffff1663e7e104906000604051602001526040518163ffffffff167c0100000000000000000000000000000000000000000000000000000000028152600401602060405180830381600087803b151562000bd157600080fd5b6102c65a03f1151562000be357600080fd5b50505060405180519050151562000bf957600080fd5b838060010194505062000a5e565b600194505050505092915050565b60008060008686808060200260200160405190810160405280939291908181526020018383602002808284378201915050505050506000815111151562000c5b57600080fd5b858590508888905014151562000c7057600080fd5b600092505b8787905083101562000ef757878784818110151562000c9057fe5b9050602002013573ffffffffffffffffffffffffffffffffffffffff1691508173ffffffffffffffffffffffffffffffffffffffff16631e0018d66000604051602001526040518163ffffffff167c0100000000000000000000000000000000000000000000000000000000028152600401602060405180830381600087803b151562000d1c57600080fd5b6102c65a03f1151562000d2e57600080fd5b5050506040518051905073ffffffffffffffffffffffffffffffffffffffff163373ffffffffffffffffffffffffffffffffffffffff1614151562000d7257600080fd5b8173ffffffffffffffffffffffffffffffffffffffff1663e4849b32878786818110151562000d9d57fe5b905060200201356000604051602001526040518263ffffffff167c010000000000000000000000000000000000000000000000000000000002815260040180828152602001915050602060405180830381600087803b151562000dff57600080fd5b6102c65a03f1151562000e1157600080fd5b50505060405180519050151562000e2757600080fd5b3373ffffffffffffffffffffffffffffffffffffffff167f3958bd6e9ec89cb936f5a97ee8cade87440c6927910fce4d0bd65c50b5cea1ef898986818110151562000e6e57fe5b9050602002013573ffffffffffffffffffffffffffffffffffffffff16888887818110151562000e9a57fe5b90506020020135604051808373ffffffffffffffffffffffffffffffffffffffff1673ffffffffffffffffffffffffffffffffffffffff1681526020018281526020019250505060405180910390a2828060010193505062000c75565b60019350505050949350505050565b60008060003491508390508073ffffffffffffffffffffffffffffffffffffffff1663f088d54783336000604051602001526040518363ffffffff167c0100000000000000000000000000000000000000000000000000000000028152600401808273ffffffffffffffffffffffffffffffffffffffff1673ffffffffffffffffffffffffffffffffffffffff1681526020019150506020604051808303818588803b151562000fb557600080fd5b6125ee5a03f1151562000fc757600080fd5b5050505060405180519050151562000fde57600080fd5b3373ffffffffffffffffffffffffffffffffffffffff167f0a553f03004ca54c18763b68c9ef162311a3c847d15f2d2e12a39cdf28e966ce8534604051808373ffffffffffffffffffffffffffffffffffffffff1673ffffffffffffffffffffffffffffffffffffffff1681526020018281526020019250505060405180910390a2600192505050919050565b600080600084848080602002602001604051908101604052809392919081815260200183836020028082843782019150505050505060008151111515620010b157600080fd5b600092505b8585905083101562001256578585848181101515620010d157fe5b9050602002013573ffffffffffffffffffffffffffffffffffffffff1691508173ffffffffffffffffffffffffffffffffffffffff16631e0018d66000604051602001526040518163ffffffff167c0100000000000000000000000000000000000000000000000000000000028152600401602060405180830381600087803b15156200115d57600080fd5b6102c65a03f115156200116f57600080fd5b5050506040518051905073ffffffffffffffffffffffffffffffffffffffff163373ffffffffffffffffffffffffffffffffffffffff16141515620011b357600080fd5b8173ffffffffffffffffffffffffffffffffffffffff166394f8e9546000604051602001526040518163ffffffff167c0100000000000000000000000000000000000000000000000000000000028152600401602060405180830381600087803b15156200122057600080fd5b6102c65a03f115156200123257600080fd5b5050506040518051905015156200124857600080fd5b8280600101935050620010b6565b6001935050505092915050565b600080600085858080602002602001604051908101604052809392919081815260200183836020028082843782019150505050505060008151111515620012a957600080fd5b34620012c28888905087620024e990919063ffffffff16565b148015620012d05750600085115b1515620012dc57600080fd5b600092505b86869050831015620013f6578686848181101515620012fc57fe5b9050602002013573ffffffffffffffffffffffffffffffffffffffff1691508173ffffffffffffffffffffffffffffffffffffffff166303f9c79386336000604051602001526040518363ffffffff167c0100000000000000000000000000000000000000000000000000000000028152600401808273ffffffffffffffffffffffffffffffffffffffff1673ffffffffffffffffffffffffffffffffffffffff1681526020019150506020604051808303818588803b1515620013bf57600080fd5b6125ee5a03f11515620013d157600080fd5b50505050604051805190501515620013e857600080fd5b8280600101935050620012e1565b3373ffffffffffffffffffffffffffffffffffffffff167f727e3a62e643411b078c571689c8cef03f82ddf8bab3ee01b1d3d1cc5bf70bff88883460405180806020018381526020018281038252858582818152602001925060200280828437820191505094505050505060405180910390a2600193505050509392505050565b600080600084848080602002602001604051908101604052809392919081815260200183836020028082843782019150505050505060008151111515620014bd57600080fd5b600092505b8585905083101562001662578585848181101515620014dd57fe5b9050602002013573ffffffffffffffffffffffffffffffffffffffff1691508173ffffffffffffffffffffffffffffffffffffffff16631e0018d66000604051602001526040518163ffffffff167c0100000000000000000000000000000000000000000000000000000000028152600401602060405180830381600087803b15156200156957600080fd5b6102c65a03f115156200157b57600080fd5b5050506040518051905073ffffffffffffffffffffffffffffffffffffffff163373ffffffffffffffffffffffffffffffffffffffff16141515620015bf57600080fd5b8173ffffffffffffffffffffffffffffffffffffffff166339b506886000604051602001526040518163ffffffff167c0100000000000000000000000000000000000000000000000000000000028152600401602060405180830381600087803b15156200162c57600080fd5b6102c65a03f115156200163e57600080fd5b5050506040518051905015156200165457600080fd5b8280600101935050620014c2565b6001935050505092915050565b600080600084848080602002602001604051908101604052809392919081815260200183836020028082843782019150505050505060008151111515620016b557600080fd5b600092505b858590508310156200185a578585848181101515620016d557fe5b9050602002013573ffffffffffffffffffffffffffffffffffffffff1691508173ffffffffffffffffffffffffffffffffffffffff16631e0018d66000604051602001526040518163ffffffff167c0100000000000000000000000000000000000000000000000000000000028152600401602060405180830381600087803b15156200176157600080fd5b6102c65a03f115156200177357600080fd5b5050506040518051905073ffffffffffffffffffffffffffffffffffffffff163373ffffffffffffffffffffffffffffffffffffffff16141515620017b757600080fd5b8173ffffffffffffffffffffffffffffffffffffffff1663b08c9bd16000604051602001526040518163ffffffff167c0100000000000000000000000000000000000000000000000000000000028152600401602060405180830381600087803b15156200182457600080fd5b6102c65a03f115156200183657600080fd5b5050506040518051905015156200184c57600080fd5b8280600101935050620016ba565b6001935050505092915050565b60008060008087878080602002602001604051908101604052809392919081815260200183836020028082843782019150505050505060008151111515620018ae57600080fd5b600092505b86869050831015620018f957620018e98787858181101515620018d257fe5b90506020020135856200252890919063ffffffff16565b93508280600101935050620018b3565b3484148015620019095750600084115b15156200191557600080fd5b600092505b8888905083101562001ad05788888481811015156200193557fe5b9050602002013573ffffffffffffffffffffffffffffffffffffffff1691508173ffffffffffffffffffffffffffffffffffffffff16638da5cb5b6000604051602001526040518163ffffffff167c0100000000000000000000000000000000000000000000000000000000028152600401602060405180830381600087803b1515620019c157600080fd5b6102c65a03f11515620019d357600080fd5b5050506040518051905073ffffffffffffffffffffffffffffffffffffffff163373ffffffffffffffffffffffffffffffffffffffff1614151562001a1757600080fd5b8173ffffffffffffffffffffffffffffffffffffffff166340ac89a2888886818110151562001a4257fe5b905060200201356000604051602001526040518263ffffffff167c01000000000000000000000000000000000000000000000000000000000281526004016020604051808303818588803b151562001a9957600080fd5b6125ee5a03f1151562001aab57600080fd5b5050505060405180519050151562001ac257600080fd5b82806001019350506200191a565b3373ffffffffffffffffffffffffffffffffffffffff167fbc2ad092400bad8ce6c9066d3f37fd07b209ce80075cbe5897d5288e1b3896b88a8a8a8a34604051808060200180602001848152602001838103835288888281815260200192506020028082843782019150508381038252868682818152602001925060200280828437820191505097505050505050505060405180910390a26001945050505050949350505050565b60008060008484808060200260200160405190810160405280939291908181526020018383602002808284378201915050505050506000815111151562001bbe57600080fd5b600092505b8585905083101562001d6357858584818110151562001bde57fe5b9050602002013573ffffffffffffffffffffffffffffffffffffffff1691508173ffffffffffffffffffffffffffffffffffffffff16638da5cb5b6000604051602001526040518163ffffffff167c0100000000000000000000000000000000000000000000000000000000028152600401602060405180830381600087803b151562001c6a57600080fd5b6102c65a03f1151562001c7c57600080fd5b5050506040518051905073ffffffffffffffffffffffffffffffffffffffff163373ffffffffffffffffffffffffffffffffffffffff1614151562001cc057600080fd5b8173ffffffffffffffffffffffffffffffffffffffff166324600fc36000604051602001526040518163ffffffff167c0100000000000000000000000000000000000000000000000000000000028152600401602060405180830381600087803b151562001d2d57600080fd5b6102c65a03f1151562001d3f57600080fd5b50505060405180519050151562001d5557600080fd5b828060010193505062001bc3565b6001935050505092915050565b60008060008484808060200260200160405190810160405280939291908181526020018383602002808284378201915050505050506000815111151562001db657600080fd5b600092505b8585905083101562001f5b57858584818110151562001dd657fe5b9050602002013573ffffffffffffffffffffffffffffffffffffffff1691508173ffffffffffffffffffffffffffffffffffffffff16631e0018d66000604051602001526040518163ffffffff167c0100000000000000000000000000000000000000000000000000000000028152600401602060405180830381600087803b151562001e6257600080fd5b6102c65a03f1151562001e7457600080fd5b5050506040518051905073ffffffffffffffffffffffffffffffffffffffff163373ffffffffffffffffffffffffffffffffffffffff1614151562001eb857600080fd5b8173ffffffffffffffffffffffffffffffffffffffff166340b6290f6000604051602001526040518163ffffffff167c0100000000000000000000000000000000000000000000000000000000028152600401602060405180830381600087803b151562001f2557600080fd5b6102c65a03f1151562001f3757600080fd5b50505060405180519050151562001f4d57600080fd5b828060010193505062001dbb565b6001935050505092915050565b60008060008484808060200260200160405190810160405280939291908181526020018383602002808284378201915050505050506000815111151562001fae57600080fd5b600092505b858590508310156200215357858584818110151562001fce57fe5b9050602002013573ffffffffffffffffffffffffffffffffffffffff1691508173ffffffffffffffffffffffffffffffffffffffff16631e0018d66000604051602001526040518163ffffffff167c0100000000000000000000000000000000000000000000000000000000028152600401602060405180830381600087803b15156200205a57600080fd5b6102c65a03f115156200206c57600080fd5b5050506040518051905073ffffffffffffffffffffffffffffffffffffffff163373ffffffffffffffffffffffffffffffffffffffff16141515620020b057600080fd5b8173ffffffffffffffffffffffffffffffffffffffff1663f2c3e6d96000604051602001526040518163ffffffff167c0100000000000000000000000000000000000000000000000000000000028152600401602060405180830381600087803b15156200211d57600080fd5b6102c65a03f115156200212f57600080fd5b5050506040518051905015156200214557600080fd5b828060010193505062001fb3565b6001935050505092915050565b600160009054906101000a900473ffffffffffffffffffffffffffffffffffffffff1681565b6040805190810160405280600581526020017f312e302e3000000000000000000000000000000000000000000000000000000081525081565b620021c962002547565b620021d362002547565b60008651604051805910620021e55750595b90808252806020026020018201604052509150600090505b8651811015620024dc576000809054906101000a900473ffffffffffffffffffffffffffffffffffffffff1630336040805190810160405280600581526020017f312e302e30000000000000000000000000000000000000000000000000000000815250898b868151811015156200227157fe5b906020019060200201518a8a600160009054906101000a900473ffffffffffffffffffffffffffffffffffffffff16620022aa6200255b565b808a73ffffffffffffffffffffffffffffffffffffffff1673ffffffffffffffffffffffffffffffffffffffff1681526020018973ffffffffffffffffffffffffffffffffffffffff1673ffffffffffffffffffffffffffffffffffffffff1681526020018873ffffffffffffffffffffffffffffffffffffffff1673ffffffffffffffffffffffffffffffffffffffff16815260200180602001806020018781526020018681526020018581526020018473ffffffffffffffffffffffffffffffffffffffff1673ffffffffffffffffffffffffffffffffffffffff168152602001838103835289818151815260200191508051906020019080838360005b83811015620023c7578082015181840152602081019050620023aa565b50505050905090810190601f168015620023f55780820380516001836020036101000a031916815260200191505b50838103825288818151815260200191508051906020019080838360005b838110156200243057808201518184015260208101905062002413565b50505050905090810190601f1680156200245e5780820380516001836020036101000a031916815260200191505b509b505050505050505050505050604051809103906000f08015156200248357600080fd5b82828151811015156200249257fe5b9060200190602002019073ffffffffffffffffffffffffffffffffffffffff16908173ffffffffffffffffffffffffffffffffffffffff16815250508080600101915050620021fd565b8192505050949350505050565b600080600084141562002500576000915062002521565b82840290508284828115156200251257fe5b041415156200251d57fe5b8091505b5092915050565b60008082840190508381101515156200253d57fe5b8091505092915050565b602060405190810160405280600081525090565b604051610eea806200256d8339019056006060604052341561000f57600080fd5b604051610eea380380610eea8339810160405280805190602001909190805190602001909190805190602001909190805182019190602001805182019190602001805190602001909190805190602001909190805190602001909190805190602001909190505088600e60016101000a81548173ffffffffffffffffffffffffffffffffffffffff021916908373ffffffffffffffffffffffffffffffffffffffff16021790555087600160006101000a81548173ffffffffffffffffffffffffffffffffffffffff021916908373ffffffffffffffffffffffffffffffffffffffff160217905550866000806101000a81548173ffffffffffffffffffffffffffffffffffffffff021916908373ffffffffffffffffffffffffffffffffffffffff160217905550856008908051906020019061014e9291906101fe565b5084600290805190602001906101659291906101fe565b5083600381905550600060048190555082600581905550816006819055506000600e60006101000a81548160ff021916908360068111156101a257fe5b02179055506000600b8190555080600a60006101000a81548173ffffffffffffffffffffffffffffffffffffffff021916908373ffffffffffffffffffffffffffffffffffffffff1602179055505050505050505050506102a3565b828054600181600116156101000203166002900490600052602060002090601f016020900481019282601f1061023f57805160ff191683800117855561026d565b8280016001018555821561026d579182015b8281111561026c578251825591602001919060010190610251565b5b50905061027a919061027e565b5090565b6102a091905b8082111561029c576000816000905550600101610284565b5090565b90565b610c38806102b26000396000f3006060604052600436106100e6576000357c0100000000000000000000000000000000000000000000000000000000900463ffffffff1680631b4a044d146101555780631e0018d61461017e578063200d2ed2146101d35780632218c1941461020a5780632ae9c600146102335780633951d06b146102c15780633fa4f245146103165780635c222bad1461033f5780638ac48191146105185780638ce74426146105415780638da5cb5b14610596578063a13b9b1f146105eb578063cb73696014610614578063e5a6b10f14610670578063f771ac01146106fe578063fc0c546a14610727575b600e60019054906101000a900473ffffffffffffffffffffffffffffffffffffffff1673ffffffffffffffffffffffffffffffffffffffff16600036604051808383808284378201915050925050506000604051808303818561646e5a03f4915050151561015357600080fd5b005b341561016057600080fd5b61016861077c565b6040518082815260200191505060405180910390f35b341561018957600080fd5b610191610782565b604051808273ffffffffffffffffffffffffffffffffffffffff1673ffffffffffffffffffffffffffffffffffffffff16815260200191505060405180910390f35b34156101de57600080fd5b6101e66107a8565b604051808260068111156101f657fe5b60ff16815260200191505060405180910390f35b341561021557600080fd5b61021d6107bb565b6040518082815260200191505060405180910390f35b341561023e57600080fd5b6102466107c1565b6040518080602001828103825283818151815260200191508051906020019080838360005b8381101561028657808201518184015260208101905061026b565b50505050905090810190601f1680156102b35780820380516001836020036101000a031916815260200191505b509250505060405180910390f35b34156102cc57600080fd5b6102d461085f565b604051808273ffffffffffffffffffffffffffffffffffffffff1673ffffffffffffffffffffffffffffffffffffffff16815260200191505060405180910390f35b341561032157600080fd5b610329610885565b6040518082815260200191505060405180910390f35b341561034a57600080fd5b61035261088b565b604051808e73ffffffffffffffffffffffffffffffffffffffff1673ffffffffffffffffffffffffffffffffffffffff168152602001806020018d81526020018c81526020018b81526020018a60068111156103aa57fe5b60ff1681526020018973ffffffffffffffffffffffffffffffffffffffff1673ffffffffffffffffffffffffffffffffffffffff168152602001806020018881526020018781526020018673ffffffffffffffffffffffffffffffffffffffff1673ffffffffffffffffffffffffffffffffffffffff16815260200185815260200184815260200183810383528f818151815260200191508051906020019080838360005b8381101561046a57808201518184015260208101905061044f565b50505050905090810190601f1680156104975780820380516001836020036101000a031916815260200191505b50838103825289818151815260200191508051906020019080838360005b838110156104d05780820151818401526020810190506104b5565b50505050905090810190601f1680156104fd5780820380516001836020036101000a031916815260200191505b509f5050505050505050505050505050505060405180910390f35b341561052357600080fd5b61052b610aa5565b6040518082815260200191505060405180910390f35b341561054c57600080fd5b610554610aab565b604051808273ffffffffffffffffffffffffffffffffffffffff1673ffffffffffffffffffffffffffffffffffffffff16815260200191505060405180910390f35b34156105a157600080fd5b6105a9610ad1565b604051808273ffffffffffffffffffffffffffffffffffffffff1673ffffffffffffffffffffffffffffffffffffffff16815260200191505060405180910390f35b34156105f657600080fd5b6105fe610af6565b6040518082815260200191505060405180910390f35b341561061f57600080fd5b610627610afc565b604051808381526020018273ffffffffffffffffffffffffffffffffffffffff1673ffffffffffffffffffffffffffffffffffffffff1681526020019250505060405180910390f35b341561067b57600080fd5b610683610b2e565b6040518080602001828103825283818151815260200191508051906020019080838360005b838110156106c35780820151818401526020810190506106a8565b50505050905090810190601f1680156106f05780820380516001836020036101000a031916815260200191505b509250505060405180910390f35b341561070957600080fd5b610711610bcc565b6040518082815260200191505060405180910390f35b341561073257600080fd5b61073a610bd2565b604051808273ffffffffffffffffffffffffffffffffffffffff1673ffffffffffffffffffffffffffffffffffffffff16815260200191505060405180910390f35b60065481565b600760009054906101000a900473ffffffffffffffffffffffffffffffffffffffff1681565b600e60009054906101000a900460ff1681565b60045481565b60088054600181600116156101000203166002900480601f0160208091040260200160405190810160405280929190818152602001828054600181600116156101000203166002900480156108575780601f1061082c57610100808354040283529160200191610857565b820191906000526020600020905b81548152906001019060200180831161083a57829003601f168201915b505050505081565b600e60019054906101000a900473ffffffffffffffffffffffffffffffffffffffff1681565b60035481565b6000610895610bf8565b60008060008060006108a5610bf8565b60008060008060008060009054906101000a900473ffffffffffffffffffffffffffffffffffffffff166002600354600554600654600e60009054906101000a900460ff16600760009054906101000a900473ffffffffffffffffffffffffffffffffffffffff166008600954600b54600c60010160009054906101000a900473ffffffffffffffffffffffffffffffffffffffff16600c600001546004548b8054600181600116156101000203166002900480601f0160208091040260200160405190810160405280929190818152602001828054600181600116156101000203166002900480156109d95780601f106109ae576101008083540402835291602001916109d9565b820191906000526020600020905b8154815290600101906020018083116109bc57829003601f168201915b50505050509b50858054600181600116156101000203166002900480601f016020809104026020016040519081016040528092919081815260200182805460018160011615610100020316600290048015610a755780601f10610a4a57610100808354040283529160200191610a75565b820191906000526020600020905b815481529060010190602001808311610a5857829003601f168201915b505050505095509c509c509c509c509c509c509c509c509c509c509c509c509c50909192939495969798999a9b9c565b60095481565b600160009054906101000a900473ffffffffffffffffffffffffffffffffffffffff1681565b6000809054906101000a900473ffffffffffffffffffffffffffffffffffffffff1681565b60055481565b600c8060000154908060010160009054906101000a900473ffffffffffffffffffffffffffffffffffffffff16905082565b60028054600181600116156101000203166002900480601f016020809104026020016040519081016040528092919081815260200182805460018160011615610100020316600290048015610bc45780601f10610b9957610100808354040283529160200191610bc4565b820191906000526020600020905b815481529060010190602001808311610ba757829003601f168201915b505050505081565b600b5481565b600a60009054906101000a900473ffffffffffffffffffffffffffffffffffffffff1681565b6020604051908101604052806000815250905600a165627a7a7230582036e5d467dc8b9f932283cc70c94780b4a677a1f726d6fe699d05e2c50761fa420029a165627a7a723058204c7c2fe5d2eab835d5271afe909c2f31c876d8c144b884e1f264c448ba8192bf0029",
  "source": "pragma solidity ^0.4.18;\n\nimport \"./investment/InvestmentAsset.sol\";\nimport \"./investment/AssetLibrary.sol\";\nimport \"zeppelin-solidity/contracts/math/SafeMath.sol\";\n\ncontract SwapyExchange {\n    using SafeMath for uint256;\n    \n    // Protocol version\n    string constant public VERSION = \"1.0.0\";\n    address public assetLibrary;\n    address public token;\n    \n    event Offers(\n        address indexed _from,\n        string _protocolVersion,\n        address[] _assets\n    );\n\n    event Investments(\n        address indexed _investor,\n        address[] _assets,\n        uint256 _value\n    );\n\n    event ForSale(\n        address indexed _investor,\n        address _asset,\n        uint256 _value\n    );\n\n    event Bought(\n        address indexed _buyer,\n        address _asset,\n        uint256 _value\n    );\n\n    event Returned(\n        address indexed _from,\n        address[] _assets,\n        uint256[] _values,\n        uint256 _value\n    );\n\n    modifier notEmpty(address[] _assets){\n        require(_assets.length > 0);\n        _;\n    }\n\n    function SwapyExchange(address _assetLibrary, address _token)\n        public\n    {\n        assetLibrary = _assetLibrary;\n        token = _token;\n    }\n\n    // Creates a new investment offer\n    function createOffer(\n        uint256 _paybackDays,\n        uint256 _grossReturn,\n        string _currency,\n        uint256[] _assets)\n        external\n        returns(bool)\n    {\n        address[] memory newAssets = createOfferAssets(_assets, _currency, _paybackDays, _grossReturn);\n        Offers(msg.sender, VERSION, newAssets);\n        return true;\n    }\n\n    function createOfferAssets(\n        uint256[] _assets,\n        string _currency,\n        uint _paybackDays,\n        uint _grossReturn)\n        internal\n        returns (address[])\n    {\n        address[] memory newAssets = new address[](_assets.length);\n        for (uint index = 0; index < _assets.length; index++) {\n            newAssets[index] = new InvestmentAsset(\n                assetLibrary,\n                this,\n                msg.sender,\n                VERSION,\n                _currency,\n                _assets[index],\n                _paybackDays,\n                _grossReturn,\n                token\n            );\n        }\n        return newAssets;\n    }\n\n    function invest(address[] _assets, uint256 value) payable\n        notEmpty(_assets)\n        external\n        returns(bool)\n    {\n        require((value.mul(_assets.length) == msg.value) && value > 0);\n        for (uint index = 0; index < _assets.length; index++) {\n            AssetLibrary asset = AssetLibrary(_assets[index]);  \n            require(asset.invest.value(value)(msg.sender));\n        }\n        Investments(msg.sender, _assets, msg.value);\n        return true;\n    }\n\n    function withdrawFunds(address[] _assets) \n        notEmpty(_assets)\n        external\n        returns(bool)\n    {\n        for(uint index = 0; index < _assets.length; index++){\n            AssetLibrary asset = AssetLibrary(_assets[index]);\n            require(msg.sender == asset.owner());\n            require(asset.withdrawFunds());\n        }\n        return true;\n    }\n\n    function returnInvestment(address[] _assets, uint256[] _values) payable\n        notEmpty(_assets)\n        external\n        returns(bool)\n    {\n        uint256 total;\n        for (uint index = 0; index < _values.length; index++) {\n            total = total.add(_values[index]);\n        }\n        require((total == msg.value) && total > 0);\n        for (index = 0; index < _assets.length; index++) {\n            AssetLibrary asset = AssetLibrary(_assets[index]);  \n            require(msg.sender == asset.owner());\n            require(asset.returnInvestment.value(_values[index])());\n        }\n        Returned(msg.sender, _assets, _values, msg.value);\n        return true;\n    }\n    \n    function refuseInvestment(address[] _assets) \n        notEmpty(_assets)\n        external\n        returns(bool)\n    {\n        for(uint index = 0; index < _assets.length; index++){\n            AssetLibrary asset = AssetLibrary(_assets[index]);\n            require(msg.sender == asset.owner());\n            require(asset.refuseInvestment());\n        }\n        return true;\n    }\n\n    function cancelInvestment(address[] _assets) \n        notEmpty(_assets)\n        external\n        returns(bool)\n    {\n        for(uint index = 0; index < _assets.length; index++){\n            AssetLibrary asset = AssetLibrary(_assets[index]);\n            require(msg.sender == asset.investor());\n            require(asset.cancelInvestment());\n        }\n        return true;\n    }\n\n    function sellAssets(address[] _assets, uint256[] _values)\n        notEmpty(_assets)\n        external\n        returns(bool)\n    {\n        require(_assets.length == _values.length);\n        for(uint index = 0; index < _assets.length; index++){\n            AssetLibrary asset = AssetLibrary(_assets[index]);\n            require(msg.sender == asset.investor());\n            require(asset.sell(_values[index]));\n            ForSale(msg.sender, _assets[index], _values[index]);\n        }\n        return true;\n    }\n    \n    function cancelSellOrder(address[] _assets)\n        notEmpty(_assets) \n        external\n        returns(bool)\n    {\n        for(uint index = 0; index < _assets.length; index++){\n            AssetLibrary asset = AssetLibrary(_assets[index]);\n            require(msg.sender == asset.investor());\n            require(asset.cancelSellOrder());\n        }\n        return true;\n    }\n\n    function buyAsset(address _asset) payable\n        external\n        returns(bool)\n    {\n        uint256 assetValue = msg.value;\n        AssetLibrary asset = AssetLibrary(_asset);\n        require(asset.buy.value(assetValue)(msg.sender));\n        Bought(msg.sender, _asset, msg.value);\n        return true;\n    }\n    \n    function acceptSale(address[] _assets) \n        notEmpty(_assets)\n        external\n        returns(bool)\n    {\n        for(uint index = 0; index < _assets.length; index++) {\n            AssetLibrary asset = AssetLibrary(_assets[index]);\n            require(msg.sender == asset.investor());\n            require(asset.acceptSale());\n        }\n        return true;\n    }\n    \n    function refuseSale(address[] _assets) \n        notEmpty(_assets)\n        external\n        returns(bool)\n    {\n        for(uint index = 0; index < _assets.length; index++) {\n            AssetLibrary asset = AssetLibrary(_assets[index]);\n            require(msg.sender == asset.investor());\n            require(asset.refuseSale());\n        }\n        return true;\n    }\n\n    function cancelSale(address[] _assets) \n        notEmpty(_assets)\n        external\n        returns(bool)\n    {\n        for(uint index = 0; index < _assets.length; index++) {\n            AssetLibrary asset = AssetLibrary(_assets[index]);\n            var (,buyer) = asset.sellData();\n            require(msg.sender == buyer);\n            require(asset.cancelSale());\n        }\n        return true;\n    }\n    \n    function requireTokenFuel(address[] _assets) \n        notEmpty(_assets)\n        external\n        returns(bool)\n    {\n        for(uint index = 0; index < _assets.length; index++) {\n            AssetLibrary asset = AssetLibrary(_assets[index]);\n            require(msg.sender == asset.investor());\n            require(asset.requireTokenFuel());\n        }\n        return true;\n    }\n\n}\n",
  "sourcePath": "/home/adriel/Development/swapy-exchange-protocol/contracts/SwapyExchange.sol",
  "compiler": {
    "name": "solc",
    "version": "0.4.18+commit.9cf6e910.Emscripten.clang"
  },
  "schemaVersion": "1.0.1",
  "updatedAt": "2018-05-14T16:09:49.951Z"
}