{
  "contractName": "InvestmentAsset",
  "abi": [
    {
      "constant": true,
      "inputs": [],
      "name": "grossReturn",
      "outputs": [
        {
          "name": "",
          "type": "uint256"
        }
      ],
      "payable": false,
      "stateMutability": "view",
      "type": "function"
    },
    {
      "constant": true,
      "inputs": [],
      "name": "investor",
      "outputs": [
        {
          "name": "",
          "type": "address"
        }
      ],
      "payable": false,
      "stateMutability": "view",
      "type": "function"
    },
    {
      "constant": true,
      "inputs": [],
      "name": "status",
      "outputs": [
        {
          "name": "",
          "type": "uint8"
        }
      ],
      "payable": false,
      "stateMutability": "view",
      "type": "function"
    },
    {
      "constant": true,
      "inputs": [],
      "name": "protocolVersion",
      "outputs": [
        {
          "name": "",
          "type": "string"
        }
      ],
      "payable": false,
      "stateMutability": "view",
      "type": "function"
    },
    {
      "constant": true,
      "inputs": [],
      "name": "assetLibrary",
      "outputs": [
        {
          "name": "",
          "type": "address"
        }
      ],
      "payable": false,
      "stateMutability": "view",
      "type": "function"
    },
    {
      "constant": true,
      "inputs": [],
      "name": "value",
      "outputs": [
        {
          "name": "",
          "type": "uint256"
        }
      ],
      "payable": false,
      "stateMutability": "view",
      "type": "function"
    },
    {
      "constant": true,
      "inputs": [],
      "name": "getAsset",
      "outputs": [
        {
          "name": "",
          "type": "address"
        },
        {
          "name": "",
          "type": "string"
        },
        {
          "name": "",
          "type": "uint256"
        },
        {
          "name": "",
          "type": "uint256"
        },
        {
          "name": "",
          "type": "uint256"
        },
        {
          "name": "",
          "type": "uint8"
        },
        {
          "name": "",
          "type": "address"
        },
        {
          "name": "",
          "type": "string"
        },
        {
          "name": "",
          "type": "bytes"
        },
        {
          "name": "",
          "type": "uint256"
        },
        {
          "name": "",
          "type": "uint256"
        }
      ],
      "payable": false,
      "stateMutability": "view",
      "type": "function"
    },
    {
      "constant": true,
      "inputs": [],
      "name": "assetTermsHash",
      "outputs": [
        {
          "name": "",
          "type": "bytes"
        }
      ],
      "payable": false,
      "stateMutability": "view",
      "type": "function"
    },
    {
      "constant": true,
      "inputs": [],
      "name": "investedAt",
      "outputs": [
        {
          "name": "",
          "type": "uint256"
        }
      ],
      "payable": false,
      "stateMutability": "view",
      "type": "function"
    },
    {
      "constant": true,
      "inputs": [],
      "name": "protocol",
      "outputs": [
        {
          "name": "",
          "type": "address"
        }
      ],
      "payable": false,
      "stateMutability": "view",
      "type": "function"
    },
    {
      "constant": true,
      "inputs": [],
      "name": "owner",
      "outputs": [
        {
          "name": "",
          "type": "address"
        }
      ],
      "payable": false,
      "stateMutability": "view",
      "type": "function"
    },
    {
      "constant": true,
      "inputs": [],
      "name": "paybackDays",
      "outputs": [
        {
          "name": "",
          "type": "uint256"
        }
      ],
      "payable": false,
      "stateMutability": "view",
      "type": "function"
    },
    {
      "constant": true,
      "inputs": [],
      "name": "currency",
      "outputs": [
        {
          "name": "",
          "type": "string"
        }
      ],
      "payable": false,
      "stateMutability": "view",
      "type": "function"
    },
    {
      "constant": true,
      "inputs": [],
      "name": "tokenFuel",
      "outputs": [
        {
          "name": "",
          "type": "uint256"
        }
      ],
      "payable": false,
      "stateMutability": "view",
      "type": "function"
    },
    {
      "constant": true,
      "inputs": [],
      "name": "token",
      "outputs": [
        {
          "name": "",
          "type": "address"
        }
      ],
      "payable": false,
      "stateMutability": "view",
      "type": "function"
    },
    {
      "inputs": [
        {
          "name": "_library",
          "type": "address"
        },
        {
          "name": "_protocol",
          "type": "address"
        },
        {
          "name": "_owner",
          "type": "address"
        },
        {
          "name": "_protocolVersion",
          "type": "string"
        },
        {
          "name": "_currency",
          "type": "string"
        },
        {
          "name": "_value",
          "type": "uint256"
        },
        {
          "name": "_assetTermsHash",
          "type": "bytes"
        },
        {
          "name": "_paybackDays",
          "type": "uint256"
        },
        {
          "name": "_grossReturn",
          "type": "uint256"
        },
        {
          "name": "_token",
          "type": "address"
        }
      ],
      "payable": false,
      "stateMutability": "nonpayable",
      "type": "constructor"
    },
    {
      "payable": true,
      "stateMutability": "payable",
      "type": "fallback"
    }
  ],
  "bytecode": "0x606060405234156200001057600080fd5b604051620010af380380620010af8339810160405280805190602001909190805190602001909190805190602001909190805182019190602001805182019190602001805190602001909190805182019190602001805190602001909190805190602001909190805190602001909190505089600e60016101000a81548173ffffffffffffffffffffffffffffffffffffffff021916908373ffffffffffffffffffffffffffffffffffffffff16021790555088600160006101000a81548173ffffffffffffffffffffffffffffffffffffffff021916908373ffffffffffffffffffffffffffffffffffffffff160217905550876000806101000a81548173ffffffffffffffffffffffffffffffffffffffff021916908373ffffffffffffffffffffffffffffffffffffffff16021790555086600790805190602001906200015c92919062000222565b5085600290805190602001906200017592919062000222565b5084600381905550836008908051906020019062000195929190620002a9565b5082600481905550816005819055506000600e60006101000a81548160ff02191690836004811115620001c457fe5b02179055506000600b8190555080600a60006101000a81548173ffffffffffffffffffffffffffffffffffffffff021916908373ffffffffffffffffffffffffffffffffffffffff1602179055505050505050505050505062000358565b828054600181600116156101000203166002900490600052602060002090601f016020900481019282601f106200026557805160ff191683800117855562000296565b8280016001018555821562000296579182015b828111156200029557825182559160200191906001019062000278565b5b509050620002a5919062000330565b5090565b828054600181600116156101000203166002900490600052602060002090601f016020900481019282601f10620002ec57805160ff19168380011785556200031d565b828001600101855582156200031d579182015b828111156200031c578251825591602001919060010190620002ff565b5b5090506200032c919062000330565b5090565b6200035591905b808211156200035157600081600090555060010162000337565b5090565b90565b610d4780620003686000396000f3006060604052600436106100db576000357c0100000000000000000000000000000000000000000000000000000000900463ffffffff1680631b4a044d1461014a5780631e0018d614610173578063200d2ed2146101c85780632ae9c600146101ff5780633951d06b1461028d5780633fa4f245146102e25780635c222bad1461030b5780637442e6611461050f5780638ac481911461059d5780638ce74426146105c65780638da5cb5b1461061b578063a13b9b1f14610670578063e5a6b10f14610699578063f771ac0114610727578063fc0c546a14610750575b600e60019054906101000a900473ffffffffffffffffffffffffffffffffffffffff1673ffffffffffffffffffffffffffffffffffffffff16600036604051808383808284378201915050925050506000604051808303818561646e5a03f4915050151561014857600080fd5b005b341561015557600080fd5b61015d6107a5565b6040518082815260200191505060405180910390f35b341561017e57600080fd5b6101866107ab565b604051808273ffffffffffffffffffffffffffffffffffffffff1673ffffffffffffffffffffffffffffffffffffffff16815260200191505060405180910390f35b34156101d357600080fd5b6101db6107d1565b604051808260048111156101eb57fe5b60ff16815260200191505060405180910390f35b341561020a57600080fd5b6102126107e4565b6040518080602001828103825283818151815260200191508051906020019080838360005b83811015610252578082015181840152602081019050610237565b50505050905090810190601f16801561027f5780820380516001836020036101000a031916815260200191505b509250505060405180910390f35b341561029857600080fd5b6102a0610882565b604051808273ffffffffffffffffffffffffffffffffffffffff1673ffffffffffffffffffffffffffffffffffffffff16815260200191505060405180910390f35b34156102ed57600080fd5b6102f56108a8565b6040518082815260200191505060405180910390f35b341561031657600080fd5b61031e6108ae565b604051808c73ffffffffffffffffffffffffffffffffffffffff1673ffffffffffffffffffffffffffffffffffffffff168152602001806020018b81526020018a815260200189815260200188600481111561037657fe5b60ff1681526020018773ffffffffffffffffffffffffffffffffffffffff1673ffffffffffffffffffffffffffffffffffffffff168152602001806020018060200186815260200185815260200184810384528e818151815260200191508051906020019080838360005b838110156103fc5780820151818401526020810190506103e1565b50505050905090810190601f1680156104295780820380516001836020036101000a031916815260200191505b50848103835288818151815260200191508051906020019080838360005b83811015610462578082015181840152602081019050610447565b50505050905090810190601f16801561048f5780820380516001836020036101000a031916815260200191505b50848103825287818151815260200191508051906020019080838360005b838110156104c85780820151818401526020810190506104ad565b50505050905090810190601f1680156104f55780820380516001836020036101000a031916815260200191505b509e50505050505050505050505050505060405180910390f35b341561051a57600080fd5b610522610b34565b6040518080602001828103825283818151815260200191508051906020019080838360005b83811015610562578082015181840152602081019050610547565b50505050905090810190601f16801561058f5780820380516001836020036101000a031916815260200191505b509250505060405180910390f35b34156105a857600080fd5b6105b0610bd2565b6040518082815260200191505060405180910390f35b34156105d157600080fd5b6105d9610bd8565b604051808273ffffffffffffffffffffffffffffffffffffffff1673ffffffffffffffffffffffffffffffffffffffff16815260200191505060405180910390f35b341561062657600080fd5b61062e610bfe565b604051808273ffffffffffffffffffffffffffffffffffffffff1673ffffffffffffffffffffffffffffffffffffffff16815260200191505060405180910390f35b341561067b57600080fd5b610683610c23565b6040518082815260200191505060405180910390f35b34156106a457600080fd5b6106ac610c29565b6040518080602001828103825283818151815260200191508051906020019080838360005b838110156106ec5780820151818401526020810190506106d1565b50505050905090810190601f1680156107195780820380516001836020036101000a031916815260200191505b509250505060405180910390f35b341561073257600080fd5b61073a610cc7565b6040518082815260200191505060405180910390f35b341561075b57600080fd5b610763610ccd565b604051808273ffffffffffffffffffffffffffffffffffffffff1673ffffffffffffffffffffffffffffffffffffffff16815260200191505060405180910390f35b60055481565b600660009054906101000a900473ffffffffffffffffffffffffffffffffffffffff1681565b600e60009054906101000a900460ff1681565b60078054600181600116156101000203166002900480601f01602080910402602001604051908101604052809291908181526020018280546001816001161561010002031660029004801561087a5780601f1061084f5761010080835404028352916020019161087a565b820191906000526020600020905b81548152906001019060200180831161085d57829003601f168201915b505050505081565b600e60019054906101000a900473ffffffffffffffffffffffffffffffffffffffff1681565b60035481565b60006108b8610cf3565b60008060008060006108c8610cf3565b6108d0610d07565b6000806000809054906101000a900473ffffffffffffffffffffffffffffffffffffffff166002600354600454600554600e60009054906101000a900460ff16600660009054906101000a900473ffffffffffffffffffffffffffffffffffffffff1660076008600954600b54898054600181600116156101000203166002900480601f0160208091040260200160405190810160405280929190818152602001828054600181600116156101000203166002900480156109d25780601f106109a7576101008083540402835291602001916109d2565b820191906000526020600020905b8154815290600101906020018083116109b557829003601f168201915b50505050509950838054600181600116156101000203166002900480601f016020809104026020016040519081016040528092919081815260200182805460018160011615610100020316600290048015610a6e5780601f10610a4357610100808354040283529160200191610a6e565b820191906000526020600020905b815481529060010190602001808311610a5157829003601f168201915b50505050509350828054600181600116156101000203166002900480601f016020809104026020016040519081016040528092919081815260200182805460018160011615610100020316600290048015610b0a5780601f10610adf57610100808354040283529160200191610b0a565b820191906000526020600020905b815481529060010190602001808311610aed57829003601f168201915b505050505092509a509a509a509a509a509a509a509a509a509a509a50909192939495969798999a565b60088054600181600116156101000203166002900480601f016020809104026020016040519081016040528092919081815260200182805460018160011615610100020316600290048015610bca5780601f10610b9f57610100808354040283529160200191610bca565b820191906000526020600020905b815481529060010190602001808311610bad57829003601f168201915b505050505081565b60095481565b600160009054906101000a900473ffffffffffffffffffffffffffffffffffffffff1681565b6000809054906101000a900473ffffffffffffffffffffffffffffffffffffffff1681565b60045481565b60028054600181600116156101000203166002900480601f016020809104026020016040519081016040528092919081815260200182805460018160011615610100020316600290048015610cbf5780601f10610c9457610100808354040283529160200191610cbf565b820191906000526020600020905b815481529060010190602001808311610ca257829003601f168201915b505050505081565b600b5481565b600a60009054906101000a900473ffffffffffffffffffffffffffffffffffffffff1681565b602060405190810160405280600081525090565b6020604051908101604052806000815250905600a165627a7a72305820b280001daac152a082e7ab9aa029426c63468bb2dc0a1fca29ddd0e479fc5d210029",
  "source": "pragma solidity ^0.4.18;\n\nimport '../token/Token.sol';\n\n// Defines a fund raising asset contract\n\ncontract InvestmentAsset {\n\n    // Asset owner\n    address public owner;\n    // Protocol\n    address public protocol;\n    // Asset currency\n    string public currency;\n    // Asset value\n    uint256 public value;\n    // period to return the investment\n    uint256 public paybackDays;\n    // Gross return of investment\n    uint256 public grossReturn;\n    // Asset buyer\n    address public investor;\n    // Protocol version\n    string public protocolVersion;\n    // Contractual terms hash of investment\n    bytes public assetTermsHash;\n    // investment timestamp\n    uint public investedAt;\n    \n    // Fuel\n    Token public token;\n    uint256 public tokenFuel;\n    \n    // sell data\n    struct Sell {\n        uint256 value;\n        address buyer;  \n    }\n    Sell sellData;\n\n    // possible stages of an asset\n    enum Status {\n        AVAILABLE,\n        PENDING_OWNER_AGREEMENT,\n        INVESTED,\n        RETURNED,\n        DELAYED_RETURN\n    }\n    Status public status;\n\n    //  Library to delegate calls\n    address public assetLibrary;\n\n    function InvestmentAsset(\n        address _library,\n        address _protocol,\n        address _owner,\n        string _protocolVersion,\n        string _currency,\n        uint256 _value,\n        bytes _assetTermsHash,\n        uint _paybackDays,\n        uint _grossReturn,\n        address _token)\n        public\n    {\n        // set the library to delegate methods\n        assetLibrary = _library;\n        // init asset \n        protocol = _protocol;\n        owner = _owner;\n        protocolVersion = _protocolVersion;\n        currency = _currency;\n        value = _value;\n        assetTermsHash = _assetTermsHash;\n        paybackDays = _paybackDays;\n        grossReturn = _grossReturn;\n        status = Status.AVAILABLE;\n        tokenFuel = 0;\n        token = Token(_token);\n    }\n\n    function getAsset()\n        public\n        constant\n        returns(address, string, uint256, uint256, uint256, Status, address, string, bytes, uint, uint256)\n    {\n        return (owner, currency, value, paybackDays, grossReturn, status, investor, protocolVersion, assetTermsHash, investedAt, tokenFuel);\n    }\n\n    function () payable \n        public\n    {\n        require(assetLibrary.delegatecall(msg.data));\n    }\n\n}\n",
  "sourcePath": "/home/adriel/Development/swapy-exchange-protocol/contracts/investment/InvestmentAsset.sol",
  "compiler": {
    "name": "solc",
    "version": "0.4.18+commit.9cf6e910.Emscripten.clang"
  },
  "schemaVersion": "1.0.1",
  "updatedAt": "2017-12-11T20:12:51.597Z"
}