{
  "contractName": "InvestmentAsset",
  "abi": [
    {
      "constant": true,
      "inputs": [],
      "name": "grossReturn",
      "outputs": [
        {
          "name": "",
          "type": "uint256"
        }
      ],
      "payable": false,
      "stateMutability": "view",
      "type": "function"
    },
    {
      "constant": true,
      "inputs": [],
      "name": "investor",
      "outputs": [
        {
          "name": "",
          "type": "address"
        }
      ],
      "payable": false,
      "stateMutability": "view",
      "type": "function"
    },
    {
      "constant": true,
      "inputs": [],
      "name": "status",
      "outputs": [
        {
          "name": "",
          "type": "uint8"
        }
      ],
      "payable": false,
      "stateMutability": "view",
      "type": "function"
    },
    {
      "constant": true,
      "inputs": [],
      "name": "protocolVersion",
      "outputs": [
        {
          "name": "",
          "type": "string"
        }
      ],
      "payable": false,
      "stateMutability": "view",
      "type": "function"
    },
    {
      "constant": true,
      "inputs": [],
      "name": "assetLibrary",
      "outputs": [
        {
          "name": "",
          "type": "address"
        }
      ],
      "payable": false,
      "stateMutability": "view",
      "type": "function"
    },
    {
      "constant": true,
      "inputs": [],
      "name": "value",
      "outputs": [
        {
          "name": "",
          "type": "uint256"
        }
      ],
      "payable": false,
      "stateMutability": "view",
      "type": "function"
    },
    {
      "constant": true,
      "inputs": [],
      "name": "getAsset",
      "outputs": [
        {
          "name": "",
          "type": "address"
        },
        {
          "name": "",
          "type": "string"
        },
        {
          "name": "",
          "type": "uint256"
        },
        {
          "name": "",
          "type": "uint256"
        },
        {
          "name": "",
          "type": "uint256"
        },
        {
          "name": "",
          "type": "uint8"
        },
        {
          "name": "",
          "type": "address"
        },
        {
          "name": "",
          "type": "string"
        },
        {
          "name": "",
          "type": "uint256"
        },
        {
          "name": "",
          "type": "uint256"
        }
      ],
      "payable": false,
      "stateMutability": "view",
      "type": "function"
    },
    {
      "constant": true,
      "inputs": [],
      "name": "investedAt",
      "outputs": [
        {
          "name": "",
          "type": "uint256"
        }
      ],
      "payable": false,
      "stateMutability": "view",
      "type": "function"
    },
    {
      "constant": true,
      "inputs": [],
      "name": "protocol",
      "outputs": [
        {
          "name": "",
          "type": "address"
        }
      ],
      "payable": false,
      "stateMutability": "view",
      "type": "function"
    },
    {
      "constant": true,
      "inputs": [],
      "name": "owner",
      "outputs": [
        {
          "name": "",
          "type": "address"
        }
      ],
      "payable": false,
      "stateMutability": "view",
      "type": "function"
    },
    {
      "constant": true,
      "inputs": [],
      "name": "paybackDays",
      "outputs": [
        {
          "name": "",
          "type": "uint256"
        }
      ],
      "payable": false,
      "stateMutability": "view",
      "type": "function"
    },
    {
      "constant": true,
      "inputs": [],
      "name": "currency",
      "outputs": [
        {
          "name": "",
          "type": "string"
        }
      ],
      "payable": false,
      "stateMutability": "view",
      "type": "function"
    },
    {
      "constant": true,
      "inputs": [],
      "name": "tokenFuel",
      "outputs": [
        {
          "name": "",
          "type": "uint256"
        }
      ],
      "payable": false,
      "stateMutability": "view",
      "type": "function"
    },
    {
      "constant": true,
      "inputs": [],
      "name": "token",
      "outputs": [
        {
          "name": "",
          "type": "address"
        }
      ],
      "payable": false,
      "stateMutability": "view",
      "type": "function"
    },
    {
      "inputs": [
        {
          "name": "_library",
          "type": "address"
        },
        {
          "name": "_protocol",
          "type": "address"
        },
        {
          "name": "_owner",
          "type": "address"
        },
        {
          "name": "_protocolVersion",
          "type": "string"
        },
        {
          "name": "_currency",
          "type": "string"
        },
        {
          "name": "_value",
          "type": "uint256"
        },
        {
          "name": "_paybackDays",
          "type": "uint256"
        },
        {
          "name": "_grossReturn",
          "type": "uint256"
        },
        {
          "name": "_token",
          "type": "address"
        }
      ],
      "payable": false,
      "stateMutability": "nonpayable",
      "type": "constructor"
    },
    {
      "payable": true,
      "stateMutability": "payable",
      "type": "fallback"
    }
  ],
  "bytecode": "0x6060604052341561000f57600080fd5b604051610d91380380610d918339810160405280805190602001909190805190602001909190805190602001909190805182019190602001805182019190602001805190602001909190805190602001909190805190602001909190805190602001909190505088600d60016101000a81548173ffffffffffffffffffffffffffffffffffffffff021916908373ffffffffffffffffffffffffffffffffffffffff16021790555087600160006101000a81548173ffffffffffffffffffffffffffffffffffffffff021916908373ffffffffffffffffffffffffffffffffffffffff160217905550866000806101000a81548173ffffffffffffffffffffffffffffffffffffffff021916908373ffffffffffffffffffffffffffffffffffffffff160217905550856007908051906020019061014e9291906101f6565b5084600290805190602001906101659291906101f6565b508360038190555082600481905550816005819055506000600d60006101000a81548160ff0219169083600681111561019a57fe5b02179055506000600a8190555080600960006101000a81548173ffffffffffffffffffffffffffffffffffffffff021916908373ffffffffffffffffffffffffffffffffffffffff16021790555050505050505050505061029b565b828054600181600116156101000203166002900490600052602060002090601f016020900481019282601f1061023757805160ff1916838001178555610265565b82800160010185558215610265579182015b82811115610264578251825591602001919060010190610249565b5b5090506102729190610276565b5090565b61029891905b8082111561029457600081600090555060010161027c565b5090565b90565b610ae7806102aa6000396000f3006060604052600436106100d0576000357c0100000000000000000000000000000000000000000000000000000000900463ffffffff1680631b4a044d1461013f5780631e0018d614610168578063200d2ed2146101bd5780632ae9c600146101f45780633951d06b146102825780633fa4f245146102d75780635c222bad146103005780638ac48191146104985780638ce74426146104c15780638da5cb5b14610516578063a13b9b1f1461056b578063e5a6b10f14610594578063f771ac0114610622578063fc0c546a1461064b575b600d60019054906101000a900473ffffffffffffffffffffffffffffffffffffffff1673ffffffffffffffffffffffffffffffffffffffff16600036604051808383808284378201915050925050506000604051808303818561646e5a03f4915050151561013d57600080fd5b005b341561014a57600080fd5b6101526106a0565b6040518082815260200191505060405180910390f35b341561017357600080fd5b61017b6106a6565b604051808273ffffffffffffffffffffffffffffffffffffffff1673ffffffffffffffffffffffffffffffffffffffff16815260200191505060405180910390f35b34156101c857600080fd5b6101d06106cc565b604051808260068111156101e057fe5b60ff16815260200191505060405180910390f35b34156101ff57600080fd5b6102076106df565b6040518080602001828103825283818151815260200191508051906020019080838360005b8381101561024757808201518184015260208101905061022c565b50505050905090810190601f1680156102745780820380516001836020036101000a031916815260200191505b509250505060405180910390f35b341561028d57600080fd5b61029561077d565b604051808273ffffffffffffffffffffffffffffffffffffffff1673ffffffffffffffffffffffffffffffffffffffff16815260200191505060405180910390f35b34156102e257600080fd5b6102ea6107a3565b6040518082815260200191505060405180910390f35b341561030b57600080fd5b6103136107a9565b604051808b73ffffffffffffffffffffffffffffffffffffffff1673ffffffffffffffffffffffffffffffffffffffff168152602001806020018a815260200189815260200188815260200187600681111561036b57fe5b60ff1681526020018673ffffffffffffffffffffffffffffffffffffffff1673ffffffffffffffffffffffffffffffffffffffff1681526020018060200185815260200184815260200183810383528c818151815260200191508051906020019080838360005b838110156103ed5780820151818401526020810190506103d2565b50505050905090810190601f16801561041a5780820380516001836020036101000a031916815260200191505b50838103825286818151815260200191508051906020019080838360005b83811015610453578082015181840152602081019050610438565b50505050905090810190601f1680156104805780820380516001836020036101000a031916815260200191505b509c5050505050505050505050505060405180910390f35b34156104a357600080fd5b6104ab610986565b6040518082815260200191505060405180910390f35b34156104cc57600080fd5b6104d461098c565b604051808273ffffffffffffffffffffffffffffffffffffffff1673ffffffffffffffffffffffffffffffffffffffff16815260200191505060405180910390f35b341561052157600080fd5b6105296109b2565b604051808273ffffffffffffffffffffffffffffffffffffffff1673ffffffffffffffffffffffffffffffffffffffff16815260200191505060405180910390f35b341561057657600080fd5b61057e6109d7565b6040518082815260200191505060405180910390f35b341561059f57600080fd5b6105a76109dd565b6040518080602001828103825283818151815260200191508051906020019080838360005b838110156105e75780820151818401526020810190506105cc565b50505050905090810190601f1680156106145780820380516001836020036101000a031916815260200191505b509250505060405180910390f35b341561062d57600080fd5b610635610a7b565b6040518082815260200191505060405180910390f35b341561065657600080fd5b61065e610a81565b604051808273ffffffffffffffffffffffffffffffffffffffff1673ffffffffffffffffffffffffffffffffffffffff16815260200191505060405180910390f35b60055481565b600660009054906101000a900473ffffffffffffffffffffffffffffffffffffffff1681565b600d60009054906101000a900460ff1681565b60078054600181600116156101000203166002900480601f0160208091040260200160405190810160405280929190818152602001828054600181600116156101000203166002900480156107755780601f1061074a57610100808354040283529160200191610775565b820191906000526020600020905b81548152906001019060200180831161075857829003601f168201915b505050505081565b600d60019054906101000a900473ffffffffffffffffffffffffffffffffffffffff1681565b60035481565b60006107b3610aa7565b60008060008060006107c3610aa7565b6000806000809054906101000a900473ffffffffffffffffffffffffffffffffffffffff166002600354600454600554600d60009054906101000a900460ff16600660009054906101000a900473ffffffffffffffffffffffffffffffffffffffff166007600854600a54888054600181600116156101000203166002900480601f0160208091040260200160405190810160405280929190818152602001828054600181600116156101000203166002900480156108c35780601f10610898576101008083540402835291602001916108c3565b820191906000526020600020905b8154815290600101906020018083116108a657829003601f168201915b50505050509850828054600181600116156101000203166002900480601f01602080910402602001604051908101604052809291908181526020018280546001816001161561010002031660029004801561095f5780601f106109345761010080835404028352916020019161095f565b820191906000526020600020905b81548152906001019060200180831161094257829003601f168201915b50505050509250995099509950995099509950995099509950995090919293949596979899565b60085481565b600160009054906101000a900473ffffffffffffffffffffffffffffffffffffffff1681565b6000809054906101000a900473ffffffffffffffffffffffffffffffffffffffff1681565b60045481565b60028054600181600116156101000203166002900480601f016020809104026020016040519081016040528092919081815260200182805460018160011615610100020316600290048015610a735780601f10610a4857610100808354040283529160200191610a73565b820191906000526020600020905b815481529060010190602001808311610a5657829003601f168201915b505050505081565b600a5481565b600960009054906101000a900473ffffffffffffffffffffffffffffffffffffffff1681565b6020604051908101604052806000815250905600a165627a7a72305820ed6dc1303d3ed40ea350b5bd302fad045403d8158e82017fb72f1b486cf7d7500029",
  "source": "pragma solidity ^0.4.18;\n\nimport '../token/Token.sol';\n\n// Defines a fund raising asset contract\n\ncontract InvestmentAsset {\n\n    // Asset owner\n    address public owner;\n    // Protocol\n    address public protocol;\n    // Asset currency\n    string public currency;\n    // Asset value\n    uint256 public value;\n    // period to return the investment\n    uint256 public paybackDays;\n    // Gross return of investment\n    uint256 public grossReturn;\n    // Asset buyer\n    address public investor;\n    // Protocol version\n    string public protocolVersion;\n    // investment timestamp\n    uint public investedAt;\n\n    // Fuel\n    Token public token;\n    uint256 public tokenFuel;\n\n    // sell data\n    struct Sell {\n        uint256 value;\n        address buyer;\n    }\n    Sell sellData;\n\n    // possible stages of an asset\n    enum Status {\n        AVAILABLE,\n        PENDING_OWNER_AGREEMENT,\n        INVESTED,\n        FOR_SALE,\n        PENDING_INVESTOR_AGREEMENT,\n        RETURNED,\n        DELAYED_RETURN\n    }\n    Status public status;\n\n    //  Library to delegate calls\n    address public assetLibrary;\n\n    function InvestmentAsset(\n        address _library,\n        address _protocol,\n        address _owner,\n        string _protocolVersion,\n        string _currency,\n        uint256 _value,\n        uint _paybackDays,\n        uint _grossReturn,\n        address _token)\n        public\n    {\n        // set the library to delegate methods\n        assetLibrary = _library;\n        // init asset\n        protocol = _protocol;\n        owner = _owner;\n        protocolVersion = _protocolVersion;\n        currency = _currency;\n        value = _value;\n        paybackDays = _paybackDays;\n        grossReturn = _grossReturn;\n        status = Status.AVAILABLE;\n        tokenFuel = 0;\n        token = Token(_token);\n    }\n\n    function getAsset()\n        public\n        constant\n        returns(address, string, uint256, uint256, uint256, Status, address, string, uint, uint256)\n    {\n        return (owner, currency, value, paybackDays, grossReturn, status, investor, protocolVersion, investedAt, tokenFuel);\n    }\n\n    function () payable\n        public\n    {\n        require(assetLibrary.delegatecall(msg.data));\n    }\n\n}\n",
  "sourcePath": "/home/icaro/workfolder/swapy-exchange-protocol/contracts/investment/InvestmentAsset.sol",
  "compiler": {
    "name": "solc",
    "version": "0.4.18+commit.9cf6e910.Emscripten.clang"
  },
  "schemaVersion": "1.0.1",
  "updatedAt": "2017-12-13T21:05:40.656Z"
}