{
  "contractName": "SwapyExchange",
  "abi": [
    {
      "constant": false,
      "inputs": [
        {
          "name": "_assets",
          "type": "address[]"
        }
      ],
      "name": "invest",
      "outputs": [
        {
          "name": "",
          "type": "bool"
        }
      ],
      "payable": true,
      "stateMutability": "payable",
      "type": "function"
    },
    {
      "constant": true,
      "inputs": [],
      "name": "assetLibrary",
      "outputs": [
        {
          "name": "",
          "type": "address"
        }
      ],
      "payable": false,
      "stateMutability": "view",
      "type": "function"
    },
    {
      "constant": false,
      "inputs": [
        {
          "name": "_asset",
          "type": "address"
        }
      ],
      "name": "buyAsset",
      "outputs": [
        {
          "name": "",
          "type": "bool"
        }
      ],
      "payable": true,
      "stateMutability": "payable",
      "type": "function"
    },
    {
      "constant": false,
      "inputs": [
        {
          "name": "_paybackDays",
          "type": "uint256"
        },
        {
          "name": "_grossReturn",
          "type": "uint256"
        },
        {
          "name": "_currency",
          "type": "string"
        },
        {
          "name": "_offerTermsHash",
          "type": "bytes"
        },
        {
          "name": "_assets",
          "type": "uint256[]"
        }
      ],
      "name": "createOffer",
      "outputs": [
        {
          "name": "",
          "type": "bool"
        }
      ],
      "payable": false,
      "stateMutability": "nonpayable",
      "type": "function"
    },
    {
      "constant": false,
      "inputs": [
        {
          "name": "_asset",
          "type": "address"
        },
        {
          "name": "_value",
          "type": "uint256"
        }
      ],
      "name": "sellAsset",
      "outputs": [
        {
          "name": "",
          "type": "bool"
        }
      ],
      "payable": false,
      "stateMutability": "nonpayable",
      "type": "function"
    },
    {
      "constant": true,
      "inputs": [],
      "name": "token",
      "outputs": [
        {
          "name": "",
          "type": "address"
        }
      ],
      "payable": false,
      "stateMutability": "view",
      "type": "function"
    },
    {
      "constant": true,
      "inputs": [],
      "name": "VERSION",
      "outputs": [
        {
          "name": "",
          "type": "string"
        }
      ],
      "payable": false,
      "stateMutability": "view",
      "type": "function"
    },
    {
      "inputs": [
        {
          "name": "_assetLibrary",
          "type": "address"
        },
        {
          "name": "_token",
          "type": "address"
        }
      ],
      "payable": false,
      "stateMutability": "nonpayable",
      "type": "constructor"
    },
    {
      "anonymous": false,
      "inputs": [
        {
          "indexed": false,
          "name": "_from",
          "type": "address"
        },
        {
          "indexed": false,
          "name": "_protocolVersion",
          "type": "string"
        },
        {
          "indexed": false,
          "name": "_assets",
          "type": "address[]"
        }
      ],
      "name": "Offers",
      "type": "event"
    },
    {
      "anonymous": false,
      "inputs": [
        {
          "indexed": false,
          "name": "_investor",
          "type": "address"
        },
        {
          "indexed": false,
          "name": "_assets",
          "type": "address[]"
        },
        {
          "indexed": false,
          "name": "_value",
          "type": "uint256"
        }
      ],
      "name": "Investments",
      "type": "event"
    },
    {
      "anonymous": false,
      "inputs": [
        {
          "indexed": false,
          "name": "_investor",
          "type": "address"
        },
        {
          "indexed": false,
          "name": "_asset",
          "type": "address"
        },
        {
          "indexed": false,
          "name": "_value",
          "type": "uint256"
        }
      ],
      "name": "ForSale",
      "type": "event"
    },
    {
      "anonymous": false,
      "inputs": [
        {
          "indexed": false,
          "name": "_buyer",
          "type": "address"
        },
        {
          "indexed": false,
          "name": "_asset",
          "type": "address"
        },
        {
          "indexed": false,
          "name": "_value",
          "type": "uint256"
        }
      ],
      "name": "Bought",
      "type": "event"
    }
  ],
  "bytecode": "0x6060604052341561000f57600080fd5b60405160408061213283398101604052808051906020019091908051906020019091905050816000806101000a81548173ffffffffffffffffffffffffffffffffffffffff021916908373ffffffffffffffffffffffffffffffffffffffff16021790555080600160006101000a81548173ffffffffffffffffffffffffffffffffffffffff021916908373ffffffffffffffffffffffffffffffffffffffff160217905550505061206c806100c66000396000f3006060604052600436106200008a576000357c0100000000000000000000000000000000000000000000000000000000900463ffffffff168062b3c728146200008f5780633951d06b14620000f857806386bb5a4814620001505780638bd7e8fb1462000198578063d3e38dae14620002a5578063fc0c546a1462000302578063ffa1ad74146200035a575b600080fd5b620000de600480803590602001908201803590602001908080602002602001604051908101604052809392919081815260200183836020028082843782019150505050505091905050620003ee565b604051808215151515815260200191505060405180910390f35b34156200010457600080fd5b6200010e620005ef565b604051808273ffffffffffffffffffffffffffffffffffffffff1673ffffffffffffffffffffffffffffffffffffffff16815260200191505060405180910390f35b6200017e600480803573ffffffffffffffffffffffffffffffffffffffff1690602001909190505062000614565b604051808215151515815260200191505060405180910390f35b3415620001a457600080fd5b6200028b600480803590602001909190803590602001909190803590602001908201803590602001908080601f0160208091040260200160405190810160405280939291908181526020018383808284378201915050505050509190803590602001908201803590602001908080601f0160208091040260200160405190810160405280939291908181526020018383808284378201915050505050509190803590602001908201803590602001908080602002602001604051908101604052809392919081815260200183836020028082843782019150505050505091905050620007b9565b604051808215151515815260200191505060405180910390f35b3415620002b157600080fd5b620002e8600480803573ffffffffffffffffffffffffffffffffffffffff1690602001909190803590602001909190505062000937565b604051808215151515815260200191505060405180910390f35b34156200030e57600080fd5b6200031862000b72565b604051808273ffffffffffffffffffffffffffffffffffffffff1673ffffffffffffffffffffffffffffffffffffffff16815260200191505060405180910390f35b34156200036657600080fd5b6200037062000b98565b6040518080602001828103825283818151815260200191508051906020019080838360005b83811015620003b257808201518184015260208101905062000395565b50505050905090810190601f168015620003e05780820380516001836020036101000a031916815260200191505b509250505060405180910390f35b60008060008351348115156200040057fe5b049150600090505b83518110156200052e5783818151811015156200042157fe5b9060200190602002015173ffffffffffffffffffffffffffffffffffffffff168260405180807f696e766573742861646472657373290000000000000000000000000000000000815250600f01905060405180910390207c0100000000000000000000000000000000000000000000000000000000900490336040518363ffffffff167c0100000000000000000000000000000000000000000000000000000000028152600401808273ffffffffffffffffffffffffffffffffffffffff1673ffffffffffffffffffffffffffffffffffffffff16815260200191505060006040518083038185886187965a03f1935050505015156200052057600080fd5b808060010191505062000408565b7f727e3a62e643411b078c571689c8cef03f82ddf8bab3ee01b1d3d1cc5bf70bff338534604051808473ffffffffffffffffffffffffffffffffffffffff1673ffffffffffffffffffffffffffffffffffffffff16815260200180602001838152602001828103825284818151815260200191508051906020019060200280838360005b83811015620005cf578082015181840152602081019050620005b2565b5050505090500194505050505060405180910390a1600192505050919050565b6000809054906101000a900473ffffffffffffffffffffffffffffffffffffffff1681565b6000803490508273ffffffffffffffffffffffffffffffffffffffff168160405180807f6275792861646472657373290000000000000000000000000000000000000000815250600c01905060405180910390207c0100000000000000000000000000000000000000000000000000000000900490336040518363ffffffff167c0100000000000000000000000000000000000000000000000000000000028152600401808273ffffffffffffffffffffffffffffffffffffffff1673ffffffffffffffffffffffffffffffffffffffff16815260200191505060006040518083038185886187965a03f1935050505015156200071057600080fd5b7f0a553f03004ca54c18763b68c9ef162311a3c847d15f2d2e12a39cdf28e966ce338434604051808473ffffffffffffffffffffffffffffffffffffffff1673ffffffffffffffffffffffffffffffffffffffff1681526020018373ffffffffffffffffffffffffffffffffffffffff1673ffffffffffffffffffffffffffffffffffffffff168152602001828152602001935050505060405180910390a16001915050919050565b6000620007c562000f6c565b620007d48386868a8a62000bd1565b90507f38a3b172767ecb07a19d1357d8108fd759fac3ac495e789aa4408de6a650e384336040805190810160405280600581526020017f312e302e3000000000000000000000000000000000000000000000000000000081525083604051808473ffffffffffffffffffffffffffffffffffffffff1673ffffffffffffffffffffffffffffffffffffffff1681526020018060200180602001838103835285818151815260200191508051906020019080838360005b83811015620008a75780820151818401526020810190506200088a565b50505050905090810190601f168015620008d55780820380516001836020036101000a031916815260200191505b50838103825284818151815260200191508051906020019060200280838360005b8381101562000913578082015181840152602081019050620008f6565b505050509050019550505050505060405180910390a1600191505095945050505050565b6000808390508073ffffffffffffffffffffffffffffffffffffffff16631e0018d66000604051602001526040518163ffffffff167c0100000000000000000000000000000000000000000000000000000000028152600401602060405180830381600087803b1515620009aa57600080fd5b6102c65a03f11515620009bc57600080fd5b5050506040518051905073ffffffffffffffffffffffffffffffffffffffff163373ffffffffffffffffffffffffffffffffffffffff1614151562000a0057600080fd5b8373ffffffffffffffffffffffffffffffffffffffff1660405180807f73656c6c2875696e743235362900000000000000000000000000000000000000815250600d01905060405180910390207c01000000000000000000000000000000000000000000000000000000009004846040518263ffffffff167c01000000000000000000000000000000000000000000000000000000000281526004018082815260200191505060006040518083038160008761646e5a03f192505050151562000ac857600080fd5b7f3958bd6e9ec89cb936f5a97ee8cade87440c6927910fce4d0bd65c50b5cea1ef338585604051808473ffffffffffffffffffffffffffffffffffffffff1673ffffffffffffffffffffffffffffffffffffffff1681526020018373ffffffffffffffffffffffffffffffffffffffff1673ffffffffffffffffffffffffffffffffffffffff168152602001828152602001935050505060405180910390a1600191505092915050565b600160009054906101000a900473ffffffffffffffffffffffffffffffffffffffff1681565b6040805190810160405280600581526020017f312e302e3000000000000000000000000000000000000000000000000000000081525081565b62000bdb62000f6c565b62000be562000f6c565b6000875160405180591062000bf75750595b90808252806020026020018201604052509150600090505b875181101562000f5e576000809054906101000a900473ffffffffffffffffffffffffffffffffffffffff1630336040805190810160405280600581526020017f312e302e300000000000000000000000000000000000000000000000000000008152508a8c8681518110151562000c8357fe5b906020019060200201518b8b8b600160009054906101000a900473ffffffffffffffffffffffffffffffffffffffff1662000cbd62000f80565b808b73ffffffffffffffffffffffffffffffffffffffff1673ffffffffffffffffffffffffffffffffffffffff1681526020018a73ffffffffffffffffffffffffffffffffffffffff1673ffffffffffffffffffffffffffffffffffffffff1681526020018973ffffffffffffffffffffffffffffffffffffffff1673ffffffffffffffffffffffffffffffffffffffff1681526020018060200180602001888152602001806020018781526020018681526020018573ffffffffffffffffffffffffffffffffffffffff1673ffffffffffffffffffffffffffffffffffffffff16815260200184810384528b818151815260200191508051906020019080838360005b8381101562000dde57808201518184015260208101905062000dc1565b50505050905090810190601f16801562000e0c5780820380516001836020036101000a031916815260200191505b5084810383528a818151815260200191508051906020019080838360005b8381101562000e4757808201518184015260208101905062000e2a565b50505050905090810190601f16801562000e755780820380516001836020036101000a031916815260200191505b50848103825288818151815260200191508051906020019080838360005b8381101562000eb057808201518184015260208101905062000e93565b50505050905090810190601f16801562000ede5780820380516001836020036101000a031916815260200191505b509d5050505050505050505050505050604051809103906000f080151562000f0557600080fd5b828281518110151562000f1457fe5b9060200190602002019073ffffffffffffffffffffffffffffffffffffffff16908173ffffffffffffffffffffffffffffffffffffffff1681525050808060010191505062000c0f565b819250505095945050505050565b602060405190810160405280600081525090565b6040516110af8062000f92833901905600606060405234156200001057600080fd5b604051620010af380380620010af8339810160405280805190602001909190805190602001909190805190602001909190805182019190602001805182019190602001805190602001909190805182019190602001805190602001909190805190602001909190805190602001909190505089600e60016101000a81548173ffffffffffffffffffffffffffffffffffffffff021916908373ffffffffffffffffffffffffffffffffffffffff16021790555088600160006101000a81548173ffffffffffffffffffffffffffffffffffffffff021916908373ffffffffffffffffffffffffffffffffffffffff160217905550876000806101000a81548173ffffffffffffffffffffffffffffffffffffffff021916908373ffffffffffffffffffffffffffffffffffffffff16021790555086600790805190602001906200015c92919062000222565b5085600290805190602001906200017592919062000222565b5084600381905550836008908051906020019062000195929190620002a9565b5082600481905550816005819055506000600e60006101000a81548160ff02191690836006811115620001c457fe5b02179055506000600b8190555080600a60006101000a81548173ffffffffffffffffffffffffffffffffffffffff021916908373ffffffffffffffffffffffffffffffffffffffff1602179055505050505050505050505062000358565b828054600181600116156101000203166002900490600052602060002090601f016020900481019282601f106200026557805160ff191683800117855562000296565b8280016001018555821562000296579182015b828111156200029557825182559160200191906001019062000278565b5b509050620002a5919062000330565b5090565b828054600181600116156101000203166002900490600052602060002090601f016020900481019282601f10620002ec57805160ff19168380011785556200031d565b828001600101855582156200031d579182015b828111156200031c578251825591602001919060010190620002ff565b5b5090506200032c919062000330565b5090565b6200035591905b808211156200035157600081600090555060010162000337565b5090565b90565b610d4780620003686000396000f3006060604052600436106100db576000357c0100000000000000000000000000000000000000000000000000000000900463ffffffff1680631b4a044d1461014a5780631e0018d614610173578063200d2ed2146101c85780632ae9c600146101ff5780633951d06b1461028d5780633fa4f245146102e25780635c222bad1461030b5780637442e6611461050f5780638ac481911461059d5780638ce74426146105c65780638da5cb5b1461061b578063a13b9b1f14610670578063e5a6b10f14610699578063f771ac0114610727578063fc0c546a14610750575b600e60019054906101000a900473ffffffffffffffffffffffffffffffffffffffff1673ffffffffffffffffffffffffffffffffffffffff16600036604051808383808284378201915050925050506000604051808303818561646e5a03f4915050151561014857600080fd5b005b341561015557600080fd5b61015d6107a5565b6040518082815260200191505060405180910390f35b341561017e57600080fd5b6101866107ab565b604051808273ffffffffffffffffffffffffffffffffffffffff1673ffffffffffffffffffffffffffffffffffffffff16815260200191505060405180910390f35b34156101d357600080fd5b6101db6107d1565b604051808260068111156101eb57fe5b60ff16815260200191505060405180910390f35b341561020a57600080fd5b6102126107e4565b6040518080602001828103825283818151815260200191508051906020019080838360005b83811015610252578082015181840152602081019050610237565b50505050905090810190601f16801561027f5780820380516001836020036101000a031916815260200191505b509250505060405180910390f35b341561029857600080fd5b6102a0610882565b604051808273ffffffffffffffffffffffffffffffffffffffff1673ffffffffffffffffffffffffffffffffffffffff16815260200191505060405180910390f35b34156102ed57600080fd5b6102f56108a8565b6040518082815260200191505060405180910390f35b341561031657600080fd5b61031e6108ae565b604051808c73ffffffffffffffffffffffffffffffffffffffff1673ffffffffffffffffffffffffffffffffffffffff168152602001806020018b81526020018a815260200189815260200188600681111561037657fe5b60ff1681526020018773ffffffffffffffffffffffffffffffffffffffff1673ffffffffffffffffffffffffffffffffffffffff168152602001806020018060200186815260200185815260200184810384528e818151815260200191508051906020019080838360005b838110156103fc5780820151818401526020810190506103e1565b50505050905090810190601f1680156104295780820380516001836020036101000a031916815260200191505b50848103835288818151815260200191508051906020019080838360005b83811015610462578082015181840152602081019050610447565b50505050905090810190601f16801561048f5780820380516001836020036101000a031916815260200191505b50848103825287818151815260200191508051906020019080838360005b838110156104c85780820151818401526020810190506104ad565b50505050905090810190601f1680156104f55780820380516001836020036101000a031916815260200191505b509e50505050505050505050505050505060405180910390f35b341561051a57600080fd5b610522610b34565b6040518080602001828103825283818151815260200191508051906020019080838360005b83811015610562578082015181840152602081019050610547565b50505050905090810190601f16801561058f5780820380516001836020036101000a031916815260200191505b509250505060405180910390f35b34156105a857600080fd5b6105b0610bd2565b6040518082815260200191505060405180910390f35b34156105d157600080fd5b6105d9610bd8565b604051808273ffffffffffffffffffffffffffffffffffffffff1673ffffffffffffffffffffffffffffffffffffffff16815260200191505060405180910390f35b341561062657600080fd5b61062e610bfe565b604051808273ffffffffffffffffffffffffffffffffffffffff1673ffffffffffffffffffffffffffffffffffffffff16815260200191505060405180910390f35b341561067b57600080fd5b610683610c23565b6040518082815260200191505060405180910390f35b34156106a457600080fd5b6106ac610c29565b6040518080602001828103825283818151815260200191508051906020019080838360005b838110156106ec5780820151818401526020810190506106d1565b50505050905090810190601f1680156107195780820380516001836020036101000a031916815260200191505b509250505060405180910390f35b341561073257600080fd5b61073a610cc7565b6040518082815260200191505060405180910390f35b341561075b57600080fd5b610763610ccd565b604051808273ffffffffffffffffffffffffffffffffffffffff1673ffffffffffffffffffffffffffffffffffffffff16815260200191505060405180910390f35b60055481565b600660009054906101000a900473ffffffffffffffffffffffffffffffffffffffff1681565b600e60009054906101000a900460ff1681565b60078054600181600116156101000203166002900480601f01602080910402602001604051908101604052809291908181526020018280546001816001161561010002031660029004801561087a5780601f1061084f5761010080835404028352916020019161087a565b820191906000526020600020905b81548152906001019060200180831161085d57829003601f168201915b505050505081565b600e60019054906101000a900473ffffffffffffffffffffffffffffffffffffffff1681565b60035481565b60006108b8610cf3565b60008060008060006108c8610cf3565b6108d0610d07565b6000806000809054906101000a900473ffffffffffffffffffffffffffffffffffffffff166002600354600454600554600e60009054906101000a900460ff16600660009054906101000a900473ffffffffffffffffffffffffffffffffffffffff1660076008600954600b54898054600181600116156101000203166002900480601f0160208091040260200160405190810160405280929190818152602001828054600181600116156101000203166002900480156109d25780601f106109a7576101008083540402835291602001916109d2565b820191906000526020600020905b8154815290600101906020018083116109b557829003601f168201915b50505050509950838054600181600116156101000203166002900480601f016020809104026020016040519081016040528092919081815260200182805460018160011615610100020316600290048015610a6e5780601f10610a4357610100808354040283529160200191610a6e565b820191906000526020600020905b815481529060010190602001808311610a5157829003601f168201915b50505050509350828054600181600116156101000203166002900480601f016020809104026020016040519081016040528092919081815260200182805460018160011615610100020316600290048015610b0a5780601f10610adf57610100808354040283529160200191610b0a565b820191906000526020600020905b815481529060010190602001808311610aed57829003601f168201915b505050505092509a509a509a509a509a509a509a509a509a509a509a50909192939495969798999a565b60088054600181600116156101000203166002900480601f016020809104026020016040519081016040528092919081815260200182805460018160011615610100020316600290048015610bca5780601f10610b9f57610100808354040283529160200191610bca565b820191906000526020600020905b815481529060010190602001808311610bad57829003601f168201915b505050505081565b60095481565b600160009054906101000a900473ffffffffffffffffffffffffffffffffffffffff1681565b6000809054906101000a900473ffffffffffffffffffffffffffffffffffffffff1681565b60045481565b60028054600181600116156101000203166002900480601f016020809104026020016040519081016040528092919081815260200182805460018160011615610100020316600290048015610cbf5780601f10610c9457610100808354040283529160200191610cbf565b820191906000526020600020905b815481529060010190602001808311610ca257829003601f168201915b505050505081565b600b5481565b600a60009054906101000a900473ffffffffffffffffffffffffffffffffffffffff1681565b602060405190810160405280600081525090565b6020604051908101604052806000815250905600a165627a7a72305820c63b4512d41cb9cb6fb350e0c7ba9e4974ecb113f0dda5d79a970a193579f7350029a165627a7a7230582056cd8c2a7e1042ae2eb707de9d1b250ac81fb28fa9edc4428f681bf2847094450029",
  "source": "pragma solidity ^0.4.18;\n\nimport './investment/InvestmentAsset.sol';\n\ncontract SwapyExchange {\n\n  // Protocol version\n  string constant public VERSION = \"1.0.0\";\n  address public assetLibrary;\n  address public token;\n\n  event Offers(\n    address _from,\n    string _protocolVersion,\n    address[] _assets\n  );\n\n  event Investments(\n    address _investor,\n    address[] _assets,\n    uint256 _value\n  );\n\n  event ForSale(\n    address _investor,\n    address _asset,\n    uint256 _value\n  );\n\n  event Bought(\n    address _buyer,\n    address _asset,\n    uint256 _value\n  );\n\n  function SwapyExchange(address _assetLibrary, address _token)\n    public\n  {\n    assetLibrary = _assetLibrary;\n    token = _token;\n  }\n\n  // Creates a new investment offer\n  function createOffer(\n      uint256 _paybackDays,\n      uint256 _grossReturn,\n      string _currency,\n      bytes _offerTermsHash,\n      uint256[] _assets)\n    public\n    returns(bool)\n  {\n    address[] memory newAssets = createOfferAssets(_assets, _currency, _offerTermsHash, _paybackDays, _grossReturn);\n    Offers(msg.sender, VERSION, newAssets);\n    return true;\n  }\n\n  function createOfferAssets(\n      uint256[] _assets,\n      string _currency,\n      bytes _offerTermsHash,\n      uint _paybackDays,\n      uint _grossReturn)\n    internal\n    returns (address[])\n  {\n    address[] memory newAssets = new address[](_assets.length);\n    for (uint index = 0; index < _assets.length; index++) {\n      newAssets[index] = new InvestmentAsset(\n        assetLibrary,\n        this,\n        msg.sender,\n        VERSION,\n        _currency,\n        _assets[index],\n        _offerTermsHash,\n        _paybackDays,\n        _grossReturn,\n        token\n      );\n    }\n    return newAssets;\n  }\n\n  function invest(address[] _assets) payable\n    public\n    returns(bool)\n  {\n    uint256 assetValue = msg.value / _assets.length;\n    for (uint index = 0; index < _assets.length; index++) {\n      require(_assets[index].call.value(assetValue)(bytes4(keccak256(\"invest(address)\")), msg.sender));\n    }\n    Investments(msg.sender, _assets, msg.value);\n    return true;\n  }\n\n  function sellAsset(address _asset, uint256 _value)\n    public\n    returns(bool)\n  {\n    InvestmentAsset asset = InvestmentAsset(_asset);\n    require(msg.sender == asset.investor());\n    require(_asset.call(bytes4(keccak256(\"sell(uint256)\")), _value));\n    ForSale(msg.sender, _asset, _value);\n    return true;\n  }\n\n  function buyAsset(address _asset) payable\n    public\n    returns(bool)\n  {\n    uint256 assetValue = msg.value;\n    require(_asset.call.value(assetValue)(bytes4(keccak256(\"buy(address)\")), msg.sender));\n    Bought(msg.sender, _asset, msg.value);\n    return true;\n  }\n\n}\n",
  "sourcePath": "/home/icaro/workfolder/swapy-exchange-protocol/contracts/SwapyExchange.sol",
  "compiler": {
    "name": "solc",
    "version": "0.4.18+commit.9cf6e910.Emscripten.clang"
  },
  "schemaVersion": "1.0.1",
  "updatedAt": "2017-12-13T17:23:05.873Z"
}